{
  "_format": "hh3-artifact-1",
  "contractName": "BetFactory",
  "sourceName": "src/BetFactory.sol",
  "abi": [
    {
      "inputs": [
        {
          "internalType": "address",
          "name": "_owner",
          "type": "address"
        },
        {
          "internalType": "address",
          "name": "_betImplementation",
          "type": "address"
        }
      ],
      "stateMutability": "nonpayable",
      "type": "constructor"
    },
    {
      "inputs": [],
      "name": "BetNotFound",
      "type": "error"
    },
    {
      "inputs": [],
      "name": "FailedDeployment",
      "type": "error"
    },
    {
      "inputs": [
        {
          "internalType": "uint256",
          "name": "balance",
          "type": "uint256"
        },
        {
          "internalType": "uint256",
          "name": "needed",
          "type": "uint256"
        }
      ],
      "name": "InsufficientBalance",
      "type": "error"
    },
    {
      "inputs": [
        {
          "internalType": "address",
          "name": "owner",
          "type": "address"
        }
      ],
      "name": "OwnableInvalidOwner",
      "type": "error"
    },
    {
      "inputs": [
        {
          "internalType": "address",
          "name": "account",
          "type": "address"
        }
      ],
      "name": "OwnableUnauthorizedAccount",
      "type": "error"
    },
    {
      "anonymous": false,
      "inputs": [
        {
          "indexed": true,
          "internalType": "address",
          "name": "bet",
          "type": "address"
        }
      ],
      "name": "BetCreated",
      "type": "event"
    },
    {
      "anonymous": false,
      "inputs": [
        {
          "indexed": true,
          "internalType": "address",
          "name": "previousOwner",
          "type": "address"
        },
        {
          "indexed": true,
          "internalType": "address",
          "name": "newOwner",
          "type": "address"
        }
      ],
      "name": "OwnershipTransferred",
      "type": "event"
    },
    {
      "inputs": [
        {
          "internalType": "address",
          "name": "addr",
          "type": "address"
        }
      ],
      "name": "bet",
      "outputs": [
        {
          "components": [
            {
              "internalType": "address",
              "name": "maker",
              "type": "address"
            },
            {
              "internalType": "uint40",
              "name": "acceptBy",
              "type": "uint40"
            },
            {
              "internalType": "uint40",
              "name": "resolveBy",
              "type": "uint40"
            },
            {
              "internalType": "enum IBet.Status",
              "name": "status",
              "type": "uint8"
            },
            {
              "internalType": "address",
              "name": "taker",
              "type": "address"
            },
            {
              "internalType": "address",
              "name": "judge",
              "type": "address"
            },
            {
              "internalType": "address",
              "name": "asset",
              "type": "address"
            },
            {
              "internalType": "address",
              "name": "winner",
              "type": "address"
            },
            {
              "internalType": "uint256",
              "name": "makerStake",
              "type": "uint256"
            },
            {
              "internalType": "uint256",
              "name": "takerStake",
              "type": "uint256"
            }
          ],
          "internalType": "struct IBet.Bet",
          "name": "",
          "type": "tuple"
        }
      ],
      "stateMutability": "view",
      "type": "function"
    },
    {
      "inputs": [],
      "name": "betCount",
      "outputs": [
        {
          "internalType": "uint256",
          "name": "",
          "type": "uint256"
        }
      ],
      "stateMutability": "view",
      "type": "function"
    },
    {
      "inputs": [],
      "name": "betImplementation",
      "outputs": [
        {
          "internalType": "address",
          "name": "",
          "type": "address"
        }
      ],
      "stateMutability": "view",
      "type": "function"
    },
    {
      "inputs": [
        {
          "internalType": "address",
          "name": "taker",
          "type": "address"
        },
        {
          "internalType": "address",
          "name": "judge",
          "type": "address"
        },
        {
          "internalType": "address",
          "name": "asset",
          "type": "address"
        },
        {
          "internalType": "uint256",
          "name": "makerStake",
          "type": "uint256"
        },
        {
          "internalType": "uint256",
          "name": "takerStake",
          "type": "uint256"
        },
        {
          "internalType": "uint40",
          "name": "acceptBy",
          "type": "uint40"
        },
        {
          "internalType": "uint40",
          "name": "resolveBy",
          "type": "uint40"
        }
      ],
      "name": "createBet",
      "outputs": [
        {
          "internalType": "address",
          "name": "",
          "type": "address"
        }
      ],
      "stateMutability": "nonpayable",
      "type": "function"
    },
    {
      "inputs": [],
      "name": "name",
      "outputs": [
        {
          "internalType": "string",
          "name": "",
          "type": "string"
        }
      ],
      "stateMutability": "view",
      "type": "function"
    },
    {
      "inputs": [],
      "name": "owner",
      "outputs": [
        {
          "internalType": "address",
          "name": "",
          "type": "address"
        }
      ],
      "stateMutability": "view",
      "type": "function"
    },
    {
      "inputs": [],
      "name": "renounceOwnership",
      "outputs": [],
      "stateMutability": "nonpayable",
      "type": "function"
    },
    {
      "inputs": [
        {
          "internalType": "address",
          "name": "token",
          "type": "address"
        },
        {
          "internalType": "address",
          "name": "pool",
          "type": "address"
        }
      ],
      "name": "setPool",
      "outputs": [],
      "stateMutability": "nonpayable",
      "type": "function"
    },
    {
      "inputs": [
        {
          "internalType": "address",
          "name": "_treasury",
          "type": "address"
        }
      ],
      "name": "setTreasury",
      "outputs": [],
      "stateMutability": "nonpayable",
      "type": "function"
    },
    {
      "inputs": [
        {
          "internalType": "address",
          "name": "",
          "type": "address"
        }
      ],
      "name": "tokenToPool",
      "outputs": [
        {
          "internalType": "address",
          "name": "",
          "type": "address"
        }
      ],
      "stateMutability": "view",
      "type": "function"
    },
    {
      "inputs": [
        {
          "internalType": "address",
          "name": "newOwner",
          "type": "address"
        }
      ],
      "name": "transferOwnership",
      "outputs": [],
      "stateMutability": "nonpayable",
      "type": "function"
    },
    {
      "inputs": [],
      "name": "treasury",
      "outputs": [
        {
          "internalType": "address",
          "name": "",
          "type": "address"
        }
      ],
      "stateMutability": "view",
      "type": "function"
    }
  ],
  "bytecode": "0x60a060405234801561000f575f5ffd5b50604051610b1b380380610b1b83398101604081905261002e916100e2565b816001600160a01b03811661005c57604051631e4fbdf760e01b81525f600482015260240160405180910390fd5b61006581610078565b506001600160a01b031660805250610113565b5f80546001600160a01b038381166001600160a01b0319831681178455604051919092169283917f8be0079c531659141344cd1fd0a4f28419497f9722a3daafe3b4186f6b6457e09190a35050565b80516001600160a01b03811681146100dd575f5ffd5b919050565b5f5f604083850312156100f3575f5ffd5b6100fc836100c7565b915061010a602084016100c7565b90509250929050565b6080516109e96101325f395f818161011901526103ad01526109e95ff3fe608060405234801561000f575f5ffd5b50600436106100b1575f3560e01c80638da5cb5b1161006e5780638da5cb5b14610183578063989796b514610193578063cf094497146101bb578063f0f44260146101d2578063f2fde38b146101e5578063fd9156f6146101f8575f5ffd5b80630474a68e146100b557806306fdde03146100de5780633ff9e8e0146101145780634e847fc71461015357806361d027b314610168578063715018a61461017b575b5f5ffd5b6100c86100c336600461060f565b61020b565b6040516100d5919061073a565b60405180910390f35b6101076040518060400160405280600a815260200169426574466163746f727960b01b81525081565b6040516100d59190610749565b61013b7f000000000000000000000000000000000000000000000000000000000000000081565b6040516001600160a01b0390911681526020016100d5565b61016661016136600461077e565b6102de565b005b60035461013b906001600160a01b031681565b610166610313565b5f546001600160a01b031661013b565b61013b6101a136600461060f565b60026020525f90815260409020546001600160a01b031681565b6101c460015481565b6040519081526020016100d5565b6101666101e036600461060f565b610326565b6101666101f336600461060f565b610350565b61013b6102063660046107c7565b610392565b60408051610140810182525f80825260208201819052918101829052606081018290526080810182905260a0810182905260c0810182905260e081018290526101008101829052610120810191909152816001600160a01b03166311610c256040518163ffffffff1660e01b815260040161014060405180830381865afa9250505080156102b6575060408051601f3d908101601f191682019092526102b3918101906108a0565b60015b6102d35760405163469bfa9160e01b815260040160405180910390fd5b92915050565b919050565b6102e6610510565b6001600160a01b039182165f90815260026020526040902080546001600160a01b03191691909216179055565b61031b610510565b6103245f61053c565b565b61032e610510565b600380546001600160a01b0319166001600160a01b0392909216919091179055565b610358610510565b6001600160a01b03811661038657604051631e4fbdf760e01b81525f60048201526024015b60405180910390fd5b61038f8161053c565b50565b600180545f91826103a28361095c565b91905055505f6103d17f000000000000000000000000000000000000000000000000000000000000000061058b565b9050806001600160a01b031663079f55e3604051806101400160405280336001600160a01b031681526020018764ffffffffff1681526020018664ffffffffff1681526020015f600481111561042957610429610631565b81526001600160a01b03808e166020808401919091528d82166040808501919091528d8316606085018190525f6080860181905260a086018f905260c09095018d905284526002909152918290205460035492516001600160e01b031960e087901b1681526104a49493918316929190911690600401610980565b5f604051808303815f87803b1580156104bb575f5ffd5b505af11580156104cd573d5f5f3e3d5ffd5b50506040516001600160a01b03841692507fbdfd908d5005fd89d2ca88c0256d46e69a81b03e98a6b5f51baf0945ccce06fe91505f90a298975050505050505050565b5f546001600160a01b031633146103245760405163118cdaa760e01b815233600482015260240161037d565b5f80546001600160a01b038381166001600160a01b0319831681178455604051919092169283917f8be0079c531659141344cd1fd0a4f28419497f9722a3daafe3b4186f6b6457e09190a35050565b5f6102d3828280763d602d80600a3d3981f3363d3d373d3d3d363d730000008360601b60e81c175f526e5af43d82803e903d91602b57fd5bf38360781b176020526037600983f090506001600160a01b0381166102d35760405163b06ebf3d60e01b815260040160405180910390fd5b6001600160a01b038116811461038f575f5ffd5b5f6020828403121561061f575f5ffd5b813561062a816105fb565b9392505050565b634e487b7160e01b5f52602160045260245ffd5b6005811061066157634e487b7160e01b5f52602160045260245ffd5b9052565b80516001600160a01b03168252602081015161068a602084018264ffffffffff169052565b5060408101516106a3604084018264ffffffffff169052565b5060608101516106b66060840182610645565b5060808101516106d160808401826001600160a01b03169052565b5060a08101516106ec60a08401826001600160a01b03169052565b5060c081015161070760c08401826001600160a01b03169052565b5060e081015161072260e08401826001600160a01b03169052565b50610100818101519083015261012090810151910152565b61014081016102d38284610665565b602081525f82518060208401528060208501604085015e5f604082850101526040601f19601f83011684010191505092915050565b5f5f6040838503121561078f575f5ffd5b823561079a816105fb565b915060208301356107aa816105fb565b809150509250929050565b64ffffffffff8116811461038f575f5ffd5b5f5f5f5f5f5f5f60e0888a0312156107dd575f5ffd5b87356107e8816105fb565b965060208801356107f8816105fb565b95506040880135610808816105fb565b9450606088013593506080880135925060a0880135610826816107b5565b915060c0880135610836816107b5565b8091505092959891949750929550565b604051610140810167ffffffffffffffff8111828210171561087657634e487b7160e01b5f52604160045260245ffd5b60405290565b80516102d9816105fb565b80516102d9816107b5565b8051600581106102d9575f5ffd5b5f6101408284031280156108b2575f5ffd5b506108bb610846565b6108c48361087c565b81526108d260208401610887565b60208201526108e360408401610887565b60408201526108f460608401610892565b60608201526109056080840161087c565b608082015261091660a0840161087c565b60a082015261092760c0840161087c565b60c082015261093860e0840161087c565b60e08201526101008381015190820152610120928301519281019290925250919050565b5f6001820161097957634e487b7160e01b5f52601160045260245ffd5b5060010190565b610180810161098f8286610665565b6001600160a01b03938416610140830152919092166101609092019190915291905056fea2646970667358221220544702f293974e033e1ad3eb5c614679bb27dedfe1a85ca22befa2d4101de06564736f6c634300081c0033",
  "linkReferences": {},
  "deployedLinkReferences": {},
  "immutableReferences": {
    "714": [
      {
        "length": 32,
        "start": 281
      },
      {
        "length": 32,
        "start": 941
      }
    ]
  },
  "inputSourceName": "project/src/BetFactory.sol",
  "buildInfoId": "solc-0_8_28-d950f49ef45a6bee48bce03f0f57704a86fd4379"
}