{
  "_format": "hh3-artifact-1",
  "contractName": "BetFactory",
  "sourceName": "src/BetFactory.sol",
  "abi": [
    {
      "inputs": [
        {
          "internalType": "address",
          "name": "_owner",
          "type": "address"
        },
        {
          "internalType": "address",
          "name": "_betImplementation",
          "type": "address"
        }
      ],
      "stateMutability": "nonpayable",
      "type": "constructor"
    },
    {
      "inputs": [],
      "name": "BetNotFound",
      "type": "error"
    },
    {
      "inputs": [],
      "name": "FailedDeployment",
      "type": "error"
    },
    {
      "inputs": [
        {
          "internalType": "uint256",
          "name": "balance",
          "type": "uint256"
        },
        {
          "internalType": "uint256",
          "name": "needed",
          "type": "uint256"
        }
      ],
      "name": "InsufficientBalance",
      "type": "error"
    },
    {
      "inputs": [
        {
          "internalType": "address",
          "name": "owner",
          "type": "address"
        }
      ],
      "name": "OwnableInvalidOwner",
      "type": "error"
    },
    {
      "inputs": [
        {
          "internalType": "address",
          "name": "account",
          "type": "address"
        }
      ],
      "name": "OwnableUnauthorizedAccount",
      "type": "error"
    },
    {
      "anonymous": false,
      "inputs": [
        {
          "indexed": true,
          "internalType": "address",
          "name": "bet",
          "type": "address"
        }
      ],
      "name": "BetCreated",
      "type": "event"
    },
    {
      "anonymous": false,
      "inputs": [
        {
          "indexed": true,
          "internalType": "address",
          "name": "newImplementation",
          "type": "address"
        }
      ],
      "name": "ImplementationUpdated",
      "type": "event"
    },
    {
      "anonymous": false,
      "inputs": [
        {
          "indexed": true,
          "internalType": "address",
          "name": "previousOwner",
          "type": "address"
        },
        {
          "indexed": true,
          "internalType": "address",
          "name": "newOwner",
          "type": "address"
        }
      ],
      "name": "OwnershipTransferred",
      "type": "event"
    },
    {
      "anonymous": false,
      "inputs": [
        {
          "indexed": true,
          "internalType": "address",
          "name": "token",
          "type": "address"
        },
        {
          "indexed": true,
          "internalType": "address",
          "name": "pool",
          "type": "address"
        }
      ],
      "name": "PoolConfigured",
      "type": "event"
    },
    {
      "anonymous": false,
      "inputs": [
        {
          "indexed": true,
          "internalType": "address",
          "name": "newTreasury",
          "type": "address"
        }
      ],
      "name": "TreasuryUpdated",
      "type": "event"
    },
    {
      "inputs": [
        {
          "internalType": "address",
          "name": "addr",
          "type": "address"
        }
      ],
      "name": "bet",
      "outputs": [
        {
          "components": [
            {
              "internalType": "address",
              "name": "maker",
              "type": "address"
            },
            {
              "internalType": "uint40",
              "name": "acceptBy",
              "type": "uint40"
            },
            {
              "internalType": "uint40",
              "name": "resolveBy",
              "type": "uint40"
            },
            {
              "internalType": "enum IBet.Status",
              "name": "status",
              "type": "uint8"
            },
            {
              "internalType": "address",
              "name": "taker",
              "type": "address"
            },
            {
              "internalType": "address",
              "name": "judge",
              "type": "address"
            },
            {
              "internalType": "address",
              "name": "asset",
              "type": "address"
            },
            {
              "internalType": "address",
              "name": "winner",
              "type": "address"
            },
            {
              "internalType": "uint256",
              "name": "makerStake",
              "type": "uint256"
            },
            {
              "internalType": "uint256",
              "name": "takerStake",
              "type": "uint256"
            }
          ],
          "internalType": "struct IBet.Bet",
          "name": "",
          "type": "tuple"
        }
      ],
      "stateMutability": "view",
      "type": "function"
    },
    {
      "inputs": [],
      "name": "betCount",
      "outputs": [
        {
          "internalType": "uint256",
          "name": "",
          "type": "uint256"
        }
      ],
      "stateMutability": "view",
      "type": "function"
    },
    {
      "inputs": [],
      "name": "betImplementation",
      "outputs": [
        {
          "internalType": "address",
          "name": "",
          "type": "address"
        }
      ],
      "stateMutability": "view",
      "type": "function"
    },
    {
      "inputs": [
        {
          "internalType": "address",
          "name": "taker",
          "type": "address"
        },
        {
          "internalType": "address",
          "name": "judge",
          "type": "address"
        },
        {
          "internalType": "address",
          "name": "asset",
          "type": "address"
        },
        {
          "internalType": "uint256",
          "name": "makerStake",
          "type": "uint256"
        },
        {
          "internalType": "uint256",
          "name": "takerStake",
          "type": "uint256"
        },
        {
          "internalType": "uint40",
          "name": "acceptBy",
          "type": "uint40"
        },
        {
          "internalType": "uint40",
          "name": "resolveBy",
          "type": "uint40"
        },
        {
          "internalType": "string",
          "name": "description",
          "type": "string"
        }
      ],
      "name": "createBet",
      "outputs": [
        {
          "internalType": "address",
          "name": "",
          "type": "address"
        }
      ],
      "stateMutability": "nonpayable",
      "type": "function"
    },
    {
      "inputs": [],
      "name": "owner",
      "outputs": [
        {
          "internalType": "address",
          "name": "",
          "type": "address"
        }
      ],
      "stateMutability": "view",
      "type": "function"
    },
    {
      "inputs": [
        {
          "internalType": "address",
          "name": "maker",
          "type": "address"
        },
        {
          "internalType": "address",
          "name": "taker",
          "type": "address"
        },
        {
          "internalType": "uint40",
          "name": "acceptBy",
          "type": "uint40"
        },
        {
          "internalType": "uint40",
          "name": "resolveBy",
          "type": "uint40"
        }
      ],
      "name": "predictBetAddress",
      "outputs": [
        {
          "internalType": "address",
          "name": "",
          "type": "address"
        }
      ],
      "stateMutability": "view",
      "type": "function"
    },
    {
      "inputs": [],
      "name": "renounceOwnership",
      "outputs": [],
      "stateMutability": "nonpayable",
      "type": "function"
    },
    {
      "inputs": [
        {
          "internalType": "address",
          "name": "_token",
          "type": "address"
        },
        {
          "internalType": "address",
          "name": "_pool",
          "type": "address"
        }
      ],
      "name": "setPool",
      "outputs": [],
      "stateMutability": "nonpayable",
      "type": "function"
    },
    {
      "inputs": [
        {
          "internalType": "address",
          "name": "_treasury",
          "type": "address"
        }
      ],
      "name": "setTreasury",
      "outputs": [],
      "stateMutability": "nonpayable",
      "type": "function"
    },
    {
      "inputs": [
        {
          "internalType": "address",
          "name": "",
          "type": "address"
        }
      ],
      "name": "tokenToPool",
      "outputs": [
        {
          "internalType": "address",
          "name": "",
          "type": "address"
        }
      ],
      "stateMutability": "view",
      "type": "function"
    },
    {
      "inputs": [
        {
          "internalType": "address",
          "name": "newOwner",
          "type": "address"
        }
      ],
      "name": "transferOwnership",
      "outputs": [],
      "stateMutability": "nonpayable",
      "type": "function"
    },
    {
      "inputs": [],
      "name": "treasury",
      "outputs": [
        {
          "internalType": "address",
          "name": "",
          "type": "address"
        }
      ],
      "stateMutability": "view",
      "type": "function"
    },
    {
      "inputs": [
        {
          "internalType": "address",
          "name": "_betImplementation",
          "type": "address"
        }
      ],
      "name": "updateImplementation",
      "outputs": [],
      "stateMutability": "nonpayable",
      "type": "function"
    }
  ],
  "bytecode": "0x6080346100ea57601f610bcd38819003918201601f19168301916001600160401b038311848410176100ee5780849260409485528339810103126100ea57610052602061004b83610102565b9201610102565b6001600160a01b039091169081156100d7575f80546001600160a01b031981168417825560405193916001600160a01b03909116907f8be0079c531659141344cd1fd0a4f28419497f9722a3daafe3b4186f6b6457e09080a3600180546001600160a01b0319166001600160a01b0392909216919091179055610ab690816101178239f35b631e4fbdf760e01b5f525f60045260245ffd5b5f80fd5b634e487b7160e01b5f52604160045260245ffd5b51906001600160a01b03821682036100ea5756fe60806040526004361015610011575f80fd5b5f5f3560e01c8063025b22bc146107405780630474a68e1461070d5780633ff9e8e0146106e55780634e847fc71461066657806361d027b31461063e578063693823ea14610544578063715018a6146104ed5780638da5cb5b146104c6578063989796b514610486578063cf09449714610469578063f00cb90314610199578063f0f44260146101315763f2fde38b146100a9575f80fd5b3461012e57602036600319011261012e576100c26107a6565b6100ca610a5a565b6001600160a01b0316801561011a5781546001600160a01b03198116821783556001600160a01b03167f8be0079c531659141344cd1fd0a4f28419497f9722a3daafe3b4186f6b6457e08380a380f35b631e4fbdf760e01b82526004829052602482fd5b80fd5b503461012e57602036600319011261012e5761014b6107a6565b610153610a5a565b600480546001600160a01b0319166001600160a01b039290921691821790557f7dae230f18360d76a040c81f050aa14eb9d6dc7901b20fc5d855e2a20fe814d18280a280f35b503461044257610100366003190112610442576101b46107a6565b906101bd6107bc565b916044356001600160a01b038116908190036104425760a4359064ffffffffff8216908183036104425760c4359564ffffffffff8716948588036104425760e4359767ffffffffffffffff8911610442573660238a0112156104425788600401359567ffffffffffffffff871161044257366024888c01011161044257600254905f19821461045557600191820160025590546040805133602082019081526001600160a01b0387169282019290925264ffffffffff9384166060820152929093166080830152916e5af43d82803e903d91602b57fd5bf3916102ad8160a081015b03601f1981018352826108ac565b51902091763d602d80600a3d3981f3363d3d373d3d3d363d7300000062ffffff8260881c16175f526effffffffffffffffffffffffffffff199060781b161760205260018060a01b0390603760095ff51695861561044657604051946103128661087b565b338652602086015260408501525f606085015260018060a01b0316608084015260018060a01b031660a08301528060c08301525f60e08301526064356101008301526084356101208301525f52600360205260018060a01b0360405f20541660018060a01b036004541691843b1561044257836103ad936101c4935f9660246040519b8c988997631a1bb33560e11b895260048901906107d2565b6101a0610144880152826101a488015201868601378383018501879052610164840152610184830152601f01601f1916810103018183855af192831561043757602093610422575b50807fbdfd908d5005fd89d2ca88c0256d46e69a81b03e98a6b5f51baf0945ccce06fe6040519380a28152f35b61042f9192505f906108ac565b5f905f6103f5565b6040513d5f823e3d90fd5b5f80fd5b63b06ebf3d60e01b5f5260045ffd5b634e487b7160e01b5f52601160045260245ffd5b34610442575f366003190112610442576020600254604051908152f35b34610442576020366003190112610442576001600160a01b036104a76107a6565b165f526003602052602060018060a01b0360405f205416604051908152f35b34610442575f366003190112610442575f546040516001600160a01b039091168152602090f35b34610442575f36600319011261044257610505610a5a565b5f80546001600160a01b0319811682556001600160a01b03167f8be0079c531659141344cd1fd0a4f28419497f9722a3daafe3b4186f6b6457e08280a3005b346104425760803660031901126104425761055d6107a6565b6105656107bc565b906044359064ffffffffff82168203610442576064359164ffffffffff8316830361044257600154604080516001600160a01b0394851660208281019182529786169282019290925264ffffffffff938416606082015292909416608083015290911691906105d78160a0810161029f565b519020604051913060388401526f5af43d82803e903d91602b57fd5bf3ff60248401526014830152733d602d80600a3d3981f3363d3d373d3d3d363d73825260588201526037600c82012060788201526055604360018060a01b0392012016604051908152f35b34610442575f366003190112610442576004546040516001600160a01b039091168152602090f35b346104425760403660031901126104425761067f6107a6565b6106876107bc565b90610690610a5a565b6001600160a01b039081165f81815260036020526040812080546001600160a01b03191694909316938417909255907fe4b33c6c01d2f440febfa6d01356ad3357d405b8c85acabc87e47d5e66a776e69080a3005b34610442575f366003190112610442576001546040516001600160a01b039091168152602090f35b346104425760203660031901126104425761014061073161072c6107a6565b6108f4565b61073e60405180926107d2565bf35b34610442576020366003190112610442576107596107a6565b610761610a5a565b600180546001600160a01b0319166001600160a01b039290921691821790557f310ba5f1d2ed074b51e2eccd052a47ae9ab7c6b800d1fca3db3999d6a592ca035f80a2005b600435906001600160a01b038216820361044257565b602435906001600160a01b038216820361044257565b60018060a01b03815116825264ffffffffff602082015116602083015264ffffffffff6040820151166040830152606081015160058110156108675760608301526080808201516001600160a01b039081169184019190915260a08083015182169084015260c08083015182169084015260e08083015190911690830152610100808201519083015261012090810151910152565b634e487b7160e01b5f52602160045260245ffd5b610140810190811067ffffffffffffffff82111761089857604052565b634e487b7160e01b5f52604160045260245ffd5b90601f8019910116810190811067ffffffffffffffff82111761089857604052565b51906001600160a01b038216820361044257565b519064ffffffffff8216820361044257565b6101406004916040516109068161087b565b5f81525f60208201525f60408201525f60608201525f60808201525f60a08201525f60c08201525f60e08201525f6101008201525f61012082015250604051928380926311610c2560e01b825260018060a01b03165afa5f918161097c575b506109795763469bfa9160e01b5f5260045ffd5b90565b909150610140813d8211610a52575b8161099961014093836108ac565b8101031261044257604051906109ae8261087b565b6109b7816108ce565b82526109c5602082016108e2565b60208301526109d6604082016108e2565b60408301526060810151906005821015610442576101209160608401526109ff608082016108ce565b6080840152610a1060a082016108ce565b60a0840152610a2160c082016108ce565b60c0840152610a3260e082016108ce565b60e08401526101008101516101008401520151610120820152905f610965565b3d915061098b565b5f546001600160a01b03163303610a6d57565b63118cdaa760e01b5f523360045260245ffdfea2646970667358221220e231969713a3d229694ba6b92b7d89fc6a441a6bdb6ea418b02bf0cca6bf6c0664736f6c634300081c0033",
  "linkReferences": {},
  "deployedLinkReferences": {},
  "immutableReferences": {},
  "inputSourceName": "project/src/BetFactory.sol",
  "buildInfoId": "solc-0_8_28-2eb94cb2f3a93d7ee0fbd3a629ebd14806ff475c"
}