{
  "_format": "hh3-artifact-1",
  "contractName": "Bet",
  "sourceName": "src/Bet.sol",
  "abi": [
    {
      "inputs": [],
      "stateMutability": "nonpayable",
      "type": "constructor"
    },
    {
      "inputs": [],
      "name": "InvalidAddress",
      "type": "error"
    },
    {
      "inputs": [],
      "name": "InvalidAmount",
      "type": "error"
    },
    {
      "inputs": [],
      "name": "InvalidInitialization",
      "type": "error"
    },
    {
      "inputs": [],
      "name": "InvalidStatus",
      "type": "error"
    },
    {
      "inputs": [],
      "name": "InvalidTimestamp",
      "type": "error"
    },
    {
      "inputs": [],
      "name": "NotInitializing",
      "type": "error"
    },
    {
      "inputs": [],
      "name": "Unauthorized",
      "type": "error"
    },
    {
      "anonymous": false,
      "inputs": [],
      "name": "BetAccepted",
      "type": "event"
    },
    {
      "anonymous": false,
      "inputs": [],
      "name": "BetCancelled",
      "type": "event"
    },
    {
      "anonymous": false,
      "inputs": [
        {
          "indexed": true,
          "internalType": "address",
          "name": "maker",
          "type": "address"
        },
        {
          "indexed": true,
          "internalType": "address",
          "name": "taker",
          "type": "address"
        },
        {
          "indexed": true,
          "internalType": "address",
          "name": "asset",
          "type": "address"
        },
        {
          "indexed": false,
          "internalType": "uint40",
          "name": "acceptBy",
          "type": "uint40"
        },
        {
          "indexed": false,
          "internalType": "uint40",
          "name": "resolveBy",
          "type": "uint40"
        },
        {
          "indexed": false,
          "internalType": "uint256",
          "name": "makerStake",
          "type": "uint256"
        },
        {
          "indexed": false,
          "internalType": "uint256",
          "name": "takerStake",
          "type": "uint256"
        }
      ],
      "name": "BetCreated",
      "type": "event"
    },
    {
      "anonymous": false,
      "inputs": [
        {
          "indexed": true,
          "internalType": "address",
          "name": "winner",
          "type": "address"
        },
        {
          "indexed": false,
          "internalType": "uint256",
          "name": "amount",
          "type": "uint256"
        }
      ],
      "name": "BetResolved",
      "type": "event"
    },
    {
      "anonymous": false,
      "inputs": [
        {
          "indexed": false,
          "internalType": "uint64",
          "name": "version",
          "type": "uint64"
        }
      ],
      "name": "Initialized",
      "type": "event"
    },
    {
      "inputs": [],
      "name": "accept",
      "outputs": [],
      "stateMutability": "nonpayable",
      "type": "function"
    },
    {
      "inputs": [],
      "name": "bet",
      "outputs": [
        {
          "components": [
            {
              "internalType": "address",
              "name": "maker",
              "type": "address"
            },
            {
              "internalType": "uint40",
              "name": "acceptBy",
              "type": "uint40"
            },
            {
              "internalType": "uint40",
              "name": "resolveBy",
              "type": "uint40"
            },
            {
              "internalType": "enum IBet.Status",
              "name": "status",
              "type": "uint8"
            },
            {
              "internalType": "address",
              "name": "taker",
              "type": "address"
            },
            {
              "internalType": "address",
              "name": "judge",
              "type": "address"
            },
            {
              "internalType": "address",
              "name": "asset",
              "type": "address"
            },
            {
              "internalType": "address",
              "name": "winner",
              "type": "address"
            },
            {
              "internalType": "uint256",
              "name": "makerStake",
              "type": "uint256"
            },
            {
              "internalType": "uint256",
              "name": "takerStake",
              "type": "uint256"
            }
          ],
          "internalType": "struct IBet.Bet",
          "name": "state",
          "type": "tuple"
        }
      ],
      "stateMutability": "view",
      "type": "function"
    },
    {
      "inputs": [],
      "name": "cancel",
      "outputs": [],
      "stateMutability": "nonpayable",
      "type": "function"
    },
    {
      "inputs": [
        {
          "components": [
            {
              "internalType": "address",
              "name": "maker",
              "type": "address"
            },
            {
              "internalType": "uint40",
              "name": "acceptBy",
              "type": "uint40"
            },
            {
              "internalType": "uint40",
              "name": "resolveBy",
              "type": "uint40"
            },
            {
              "internalType": "enum IBet.Status",
              "name": "status",
              "type": "uint8"
            },
            {
              "internalType": "address",
              "name": "taker",
              "type": "address"
            },
            {
              "internalType": "address",
              "name": "judge",
              "type": "address"
            },
            {
              "internalType": "address",
              "name": "asset",
              "type": "address"
            },
            {
              "internalType": "address",
              "name": "winner",
              "type": "address"
            },
            {
              "internalType": "uint256",
              "name": "makerStake",
              "type": "uint256"
            },
            {
              "internalType": "uint256",
              "name": "takerStake",
              "type": "uint256"
            }
          ],
          "internalType": "struct IBet.Bet",
          "name": "initialBet",
          "type": "tuple"
        },
        {
          "internalType": "address",
          "name": "pool",
          "type": "address"
        },
        {
          "internalType": "address",
          "name": "treasury",
          "type": "address"
        }
      ],
      "name": "initialize",
      "outputs": [],
      "stateMutability": "nonpayable",
      "type": "function"
    },
    {
      "inputs": [
        {
          "internalType": "address",
          "name": "winner",
          "type": "address"
        }
      ],
      "name": "resolve",
      "outputs": [],
      "stateMutability": "nonpayable",
      "type": "function"
    },
    {
      "inputs": [],
      "name": "status",
      "outputs": [
        {
          "internalType": "enum IBet.Status",
          "name": "",
          "type": "uint8"
        }
      ],
      "stateMutability": "view",
      "type": "function"
    }
  ],
  "bytecode": "0x6080604052348015600e575f5ffd5b5060156019565b60c9565b7ff0c57e16840df040f15088dc2f81fe391c3923bec73e23a9662efc9c229c6a00805468010000000000000000900460ff161560685760405163f92ee8a960e01b815260040160405180910390fd5b80546001600160401b039081161460c65780546001600160401b0319166001600160401b0390811782556040519081527fc7f505b2f371ae2175ee4913f4499e1f2633a7b5936321eed1cdaeb6115181d29060200160405180910390a15b50565b61163e806100d65f395ff3fe608060405234801561000f575f5ffd5b5060043610610060575f3560e01c8063079f55e31461006457806311610c2514610079578063200d2ed2146100975780632852b71c146100ac57806355ea6c47146100b4578063ea8a1af0146100c7575b5f5ffd5b610077610072366004611241565b6100cf565b005b6100816106a8565b60405161008e91906112c6565b60405180910390f35b61009f6107f3565b60405161008e91906113a7565b6100776108c4565b6100776100c23660046113b5565b610b3e565b610077610f0b565b5f6100d8611190565b805490915060ff600160401b820416159067ffffffffffffffff165f811580156100ff5750825b90505f8267ffffffffffffffff16600114801561011b5750303b155b905081158015610129575080155b156101475760405163f92ee8a960e01b815260040160405180910390fd5b845467ffffffffffffffff19166001178555831561017157845460ff60401b1916600160401b1785555b600960208181527fa5834974e1759241ec52bd9f9e726a21f57f3cb855352070eb0675ce685a6a3e8054600160ff1991821681179092557fbdd13c3d71b4c1dd1a1982dda01644ca7b46c0aa96d270fd15c77110820dd20980548216831790557f50ff35c29a86854bfdf875d1f4dad0bcc2afa1731848be0cc942b2fd4cdbb3a980548216831790557ff162882f347bffeab9c5451b506d13fa1e84c4699b03e9a70bdff51d3c76f22380548216831790557f7227e49eb6e085d5ae7ae1ed784bf9329af247886ecbd05f71911c08a4f3d25f805482168317905573716b52795a72de3309d86971428e19843d6d9a815f9081527f92db28f9f3e7852c0cdac6b8d5296d8c80dab9704825d1e0fa35943c70732b10805490921690921790559061029d908b018b6113b5565b6001600160a01b0316815260208101919091526040015f205460ff166102d5576040516282b42960e81b815260040160405180910390fd5b5f6102e360208a018a6113b5565b6001600160a01b0316148061030f57505f61030460a08a0160808b016113b5565b6001600160a01b0316145b8061033157505f61032660e08a0160c08b016113b5565b6001600160a01b0316145b8061035357505f61034860c08a0160a08b016113b5565b6001600160a01b0316145b156103715760405163e6c4247b60e01b815260040160405180910390fd5b5f61038260408a0160208b016113e9565b9050428164ffffffffff161115806103b7575064ffffffffff81166103ad60608b0160408c016113e9565b64ffffffffff1611155b156103d55760405163b7d0949760e01b815260040160405180910390fd5b5f6103e660808b0160608c01611410565b60048111156103f7576103f7611292565b14610415576040516307a92f1960e51b815260040160405180910390fd5b885f61042182826114a8565b5050600880546001600160a01b03808a166001600160a01b03199283161790925560078054928b169290911691909117905561046360e08a0160c08b016113b5565b6001600160a01b03166323b872dd61047e60208c018c6113b5565b6040516001600160e01b031960e084901b1681526001600160a01b0390911660048201523060248201526101008c013560448201526064016020604051808303815f875af11580156104d2573d5f5f3e3d5ffd5b505050506040513d601f19601f820116820180604052508101906104f691906115b3565b506001600160a01b03881615610593576007546001600160a01b031663617ba03761052760e08c0160c08d016113b5565b6040516001600160e01b031960e084901b1681526001600160a01b0390911660048201526101008c013560248201523060448201525f60648201526084015f604051808303815f87803b15801561057c575f5ffd5b505af115801561058e573d5f5f3e3d5ffd5b505050505b6105a360e08a0160c08b016113b5565b6001600160a01b03166105bc60a08b0160808c016113b5565b6001600160a01b03166105d260208c018c6113b5565b6001600160a01b03167f8dc5fa0e4fac3ee322f7740c523d7b69cbec4b6895fd492ef4912ba45b8ba52e61060c60408e0160208f016113e9565b8d604001602081019061061f91906113e9565b6040805164ffffffffff93841681529290911660208301526101008f0135908201526101208e0135606082015260800160405180910390a450831561069e57845460ff60401b19168555604051600181527fc7f505b2f371ae2175ee4913f4499e1f2633a7b5936321eed1cdaeb6115181d29060200160405180910390a15b5050505050505050565b60408051610140810182525f80825260208201819052918101829052606081018290526080810182905260a0810182905260c0810182905260e08101829052610100810182905261012081019190915260408051610140810182525f80546001600160a01b038116835264ffffffffff600160a01b820481166020850152600160c81b820416938301939093529091606083019060ff600160f01b90910416600481111561075857610758611292565b600481111561076957610769611292565b815260018201546001600160a01b0390811660208301526002830154811660408301526003830154811660608301526004830154166080820152600582015460a082015260069091015460c09091015290506107c4816111ba565b816060019060048111156107da576107da611292565b908160048111156107ed576107ed611292565b90525090565b60408051610140810182525f80546001600160a01b038116835264ffffffffff600160a01b820481166020850152600160c81b82041693830193909352916108bf91908390606083019060ff600160f01b90910416600481111561085957610859611292565b600481111561086a5761086a611292565b815260018201546001600160a01b0390811660208301526002830154811660408301526003830154811660608301526004830154166080820152600582015460a082015260069091015460c0909101526111ba565b905090565b60408051610140810182525f80546001600160a01b038116835264ffffffffff600160a01b820481166020850152600160c81b82041693830193909352918290606083019060ff600160f01b90910416600481111561092557610925611292565b600481111561093657610936611292565b815260018201546001600160a01b0390811660208301526002830154811660408301526003830154811660608301526004830154166080820152600582015460a082015260069091015460c09091015290505f610992826111ba565b60048111156109a3576109a3611292565b146109c1576040516307a92f1960e51b815260040160405180910390fd5b80608001516001600160a01b0316336001600160a01b0316146109f6576040516282b42960e81b815260040160405180910390fd5b60c08101516101208201516040516323b872dd60e01b815233600482015230602482015260448101919091526001600160a01b03909116906323b872dd906064016020604051808303815f875af1158015610a53573d5f5f3e3d5ffd5b505050506040513d601f19601f82011682018060405250810190610a7791906115b3565b506007546001600160a01b031615610b025760075460c082015161012083015160405163617ba03760e01b81526001600160a01b03928316600482015260248101919091523060448201525f606482015291169063617ba037906084015f604051808303815f87803b158015610aeb575f5ffd5b505af1158015610afd573d5f5f3e3d5ffd5b505050505b5f805460ff60f01b1916600160f01b1781556040517ff6a659fe9c2ae0ca4af5c4aebfae05a84e00868374bcfff5bccaee0b77eae7a19190a150565b60408051610140810182525f80546001600160a01b038116835264ffffffffff600160a01b820481166020850152600160c81b82041693830193909352918290606083019060ff600160f01b909104166004811115610b9f57610b9f611292565b6004811115610bb057610bb0611292565b815260018201546001600160a01b039081166020830152600283015481166040830152600383015481166060830152600483015481166080830152600583015460a08084019190915260069093015460c09092019190915290820151919250163314610c2e576040516282b42960e81b815260040160405180910390fd5b6001610c39826111ba565b6004811115610c4a57610c4a611292565b141580610c615750806040015164ffffffffff1642115b15610c7f576040516307a92f1960e51b815260040160405180910390fd5b5f816101200151826101000151610c9691906115d2565b9050826001600160a01b03167f267080663d37ffe29159bb65a5b0fd5ef7a272464e69a52c77c0520592669c0d82604051610cd391815260200190565b60405180910390a26007546001600160a01b031615610d6c5760075460c0830151604051631a4ca37b60e21b81526001600160a01b039182166004820152602481018490523060448201529116906369328dec906064016020604051808303815f875af1158015610d46573d5f5f3e3d5ffd5b505050506040513d601f19601f82011682018060405250810190610d6a91906115f1565b505b60c082015160405163a9059cbb60e01b81526001600160a01b038581166004830152602482018490529091169063a9059cbb906044016020604051808303815f875af1158015610dbe573d5f5f3e3d5ffd5b505050506040513d601f19601f82011682018060405250810190610de291906115b3565b5060c08201516040516370a0823160e01b81523060048201525f916001600160a01b0316906370a0823190602401602060405180830381865afa158015610e2b573d5f5f3e3d5ffd5b505050506040513d601f19601f82011682018060405250810190610e4f91906115f1565b90508015610ed15760c083015160085460405163a9059cbb60e01b81526001600160a01b0391821660048201526024810184905291169063a9059cbb906044016020604051808303815f875af1158015610eab573d5f5f3e3d5ffd5b505050506040513d601f19601f82011682018060405250810190610ecf91906115b3565b505b600480546001600160a01b0319166001600160a01b0386161790555f80546002919060ff60f01b1916600160f01b83021790555050505050565b60408051610140810182525f80546001600160a01b038116835264ffffffffff600160a01b820481166020850152600160c81b82041693830193909352918290606083019060ff600160f01b909104166004811115610f6c57610f6c611292565b6004811115610f7d57610f7d611292565b815260018201546001600160a01b0390811660208301526002808401548216604084015260038401548216606084015260048401549091166080830152600583015460a083015260069092015460c09091015290915081606001516004811115610fe957610fe9611292565b10611007576040516307a92f1960e51b815260040160405180910390fd5b80516001600160a01b03163314801561103557505f8160600151600481111561103257611032611292565b14155b15611053576040516307a92f1960e51b815260040160405180910390fd5b60c0810151815161010083015160405163a9059cbb60e01b81526001600160a01b039283166004820152602481019190915291169063a9059cbb906044016020604051808303815f875af19250505080156110cb575060408051601f3d908101601f191682019092526110c8918101906115b3565b60015b156110d257505b60c0810151608082015161012083015160405163a9059cbb60e01b81526001600160a01b039283166004820152602481019190915291169063a9059cbb906044016020604051808303815f875af192505050801561114d575060408051601f3d908101601f1916820190925261114a918101906115b3565b60015b1561115457505b5f805460ff60f01b1916600360f01b1781556040517fa9c660d43fdb14d4f7f7226623a556967689f58ee0e7c1a3397257bb909454c99190a150565b5f807ff0c57e16840df040f15088dc2f81fe391c3923bec73e23a9662efc9c229c6a005b92915050565b60608101515f90818160048111156111d4576111d4611292565b1480156111eb5750826020015164ffffffffff1642115b8061121c5750600181600481111561120557611205611292565b14801561121c5750826040015164ffffffffff1642115b156111b45750600492915050565b6001600160a01b038116811461123e575f5ffd5b50565b5f5f5f838503610180811215611255575f5ffd5b610140811215611263575f5ffd5b508392506101408401356112768161122a565b91506101608401356112878161122a565b809150509250925092565b634e487b7160e01b5f52602160045260245ffd5b600581106112c257634e487b7160e01b5f52602160045260245ffd5b9052565b81516001600160a01b03168152610140810160208301516112f0602084018264ffffffffff169052565b506040830151611309604084018264ffffffffff169052565b50606083015161131c60608401826112a6565b50608083015161133760808401826001600160a01b03169052565b5060a083015161135260a08401826001600160a01b03169052565b5060c083015161136d60c08401826001600160a01b03169052565b5060e083015161138860e08401826001600160a01b03169052565b5061010083015161010083015261012083015161012083015292915050565b602081016111b482846112a6565b5f602082840312156113c5575f5ffd5b81356113d08161122a565b9392505050565b64ffffffffff8116811461123e575f5ffd5b5f602082840312156113f9575f5ffd5b81356113d0816113d7565b6005811061123e575f5ffd5b5f60208284031215611420575f5ffd5b81356113d081611404565b5f81356111b48161122a565b80546001600160a01b0319166001600160a01b0392909216919091179055565b5f81356111b4816113d7565b5f81356111b481611404565b6005821061148b57634e487b7160e01b5f52602160045260245ffd5b805460ff60f01b191660f09290921b60ff60f01b16919091179055565b6114ba6114b48361142b565b82611437565b6114ef6114c960208401611457565b82805464ffffffffff60a01b191660a09290921b64ffffffffff60a01b16919091179055565b6115246114fe60408401611457565b82805464ffffffffff60c81b191660c89290921b64ffffffffff60c81b16919091179055565b61153961153360608401611463565b8261146f565b6115516115486080840161142b565b60018301611437565b61156961156060a0840161142b565b60028301611437565b61158161157860c0840161142b565b60038301611437565b61159961159060e0840161142b565b60048301611437565b610100820135600582015561012090910135600690910155565b5f602082840312156115c3575f5ffd5b815180151581146113d0575f5ffd5b808201808211156111b457634e487b7160e01b5f52601160045260245ffd5b5f60208284031215611601575f5ffd5b505191905056fea2646970667358221220736c37483a34c057107a83e2190cc38961a2c8f28bdf1c3d3465aeee63e30bb864736f6c634300081c0033",
  "linkReferences": {},
  "deployedLinkReferences": {},
  "immutableReferences": {},
  "inputSourceName": "project/src/Bet.sol",
  "buildInfoId": "solc-0_8_28-3002811170ca67473a9b23cc131f7cf62c763b4f"
}