{
  "_format": "hh3-artifact-1",
  "contractName": "BetFactory",
  "sourceName": "src/BetFactory.sol",
  "abi": [
    {
      "inputs": [
        {
          "internalType": "address",
          "name": "_owner",
          "type": "address"
        },
        {
          "internalType": "address",
          "name": "_betImplementation",
          "type": "address"
        }
      ],
      "stateMutability": "nonpayable",
      "type": "constructor"
    },
    {
      "inputs": [],
      "name": "BetNotFound",
      "type": "error"
    },
    {
      "inputs": [],
      "name": "FailedDeployment",
      "type": "error"
    },
    {
      "inputs": [
        {
          "internalType": "uint256",
          "name": "balance",
          "type": "uint256"
        },
        {
          "internalType": "uint256",
          "name": "needed",
          "type": "uint256"
        }
      ],
      "name": "InsufficientBalance",
      "type": "error"
    },
    {
      "inputs": [
        {
          "internalType": "address",
          "name": "owner",
          "type": "address"
        }
      ],
      "name": "OwnableInvalidOwner",
      "type": "error"
    },
    {
      "inputs": [
        {
          "internalType": "address",
          "name": "account",
          "type": "address"
        }
      ],
      "name": "OwnableUnauthorizedAccount",
      "type": "error"
    },
    {
      "anonymous": false,
      "inputs": [
        {
          "indexed": true,
          "internalType": "address",
          "name": "bet",
          "type": "address"
        }
      ],
      "name": "BetCreated",
      "type": "event"
    },
    {
      "anonymous": false,
      "inputs": [
        {
          "indexed": true,
          "internalType": "address",
          "name": "newImplementation",
          "type": "address"
        }
      ],
      "name": "ImplementationUpdated",
      "type": "event"
    },
    {
      "anonymous": false,
      "inputs": [
        {
          "indexed": true,
          "internalType": "address",
          "name": "previousOwner",
          "type": "address"
        },
        {
          "indexed": true,
          "internalType": "address",
          "name": "newOwner",
          "type": "address"
        }
      ],
      "name": "OwnershipTransferred",
      "type": "event"
    },
    {
      "anonymous": false,
      "inputs": [
        {
          "indexed": true,
          "internalType": "address",
          "name": "token",
          "type": "address"
        },
        {
          "indexed": true,
          "internalType": "address",
          "name": "pool",
          "type": "address"
        }
      ],
      "name": "PoolConfigured",
      "type": "event"
    },
    {
      "anonymous": false,
      "inputs": [
        {
          "indexed": true,
          "internalType": "address",
          "name": "newTreasury",
          "type": "address"
        }
      ],
      "name": "TreasuryUpdated",
      "type": "event"
    },
    {
      "inputs": [
        {
          "internalType": "address",
          "name": "addr",
          "type": "address"
        }
      ],
      "name": "bet",
      "outputs": [
        {
          "components": [
            {
              "internalType": "address",
              "name": "maker",
              "type": "address"
            },
            {
              "internalType": "uint40",
              "name": "acceptBy",
              "type": "uint40"
            },
            {
              "internalType": "uint40",
              "name": "resolveBy",
              "type": "uint40"
            },
            {
              "internalType": "enum IBet.Status",
              "name": "status",
              "type": "uint8"
            },
            {
              "internalType": "address",
              "name": "taker",
              "type": "address"
            },
            {
              "internalType": "address",
              "name": "judge",
              "type": "address"
            },
            {
              "internalType": "address",
              "name": "asset",
              "type": "address"
            },
            {
              "internalType": "address",
              "name": "winner",
              "type": "address"
            },
            {
              "internalType": "uint256",
              "name": "makerStake",
              "type": "uint256"
            },
            {
              "internalType": "uint256",
              "name": "takerStake",
              "type": "uint256"
            }
          ],
          "internalType": "struct IBet.Bet",
          "name": "",
          "type": "tuple"
        }
      ],
      "stateMutability": "view",
      "type": "function"
    },
    {
      "inputs": [],
      "name": "betCount",
      "outputs": [
        {
          "internalType": "uint256",
          "name": "",
          "type": "uint256"
        }
      ],
      "stateMutability": "view",
      "type": "function"
    },
    {
      "inputs": [],
      "name": "betImplementation",
      "outputs": [
        {
          "internalType": "address",
          "name": "",
          "type": "address"
        }
      ],
      "stateMutability": "view",
      "type": "function"
    },
    {
      "inputs": [
        {
          "internalType": "address",
          "name": "taker",
          "type": "address"
        },
        {
          "internalType": "address",
          "name": "judge",
          "type": "address"
        },
        {
          "internalType": "address",
          "name": "asset",
          "type": "address"
        },
        {
          "internalType": "uint256",
          "name": "makerStake",
          "type": "uint256"
        },
        {
          "internalType": "uint256",
          "name": "takerStake",
          "type": "uint256"
        },
        {
          "internalType": "uint40",
          "name": "acceptBy",
          "type": "uint40"
        },
        {
          "internalType": "uint40",
          "name": "resolveBy",
          "type": "uint40"
        }
      ],
      "name": "createBet",
      "outputs": [
        {
          "internalType": "address",
          "name": "",
          "type": "address"
        }
      ],
      "stateMutability": "nonpayable",
      "type": "function"
    },
    {
      "inputs": [],
      "name": "owner",
      "outputs": [
        {
          "internalType": "address",
          "name": "",
          "type": "address"
        }
      ],
      "stateMutability": "view",
      "type": "function"
    },
    {
      "inputs": [
        {
          "internalType": "address",
          "name": "maker",
          "type": "address"
        },
        {
          "internalType": "address",
          "name": "taker",
          "type": "address"
        },
        {
          "internalType": "address",
          "name": "asset",
          "type": "address"
        },
        {
          "internalType": "uint256",
          "name": "makerStake",
          "type": "uint256"
        },
        {
          "internalType": "uint256",
          "name": "takerStake",
          "type": "uint256"
        },
        {
          "internalType": "uint40",
          "name": "acceptBy",
          "type": "uint40"
        },
        {
          "internalType": "uint40",
          "name": "resolveBy",
          "type": "uint40"
        }
      ],
      "name": "predictBetAddress",
      "outputs": [
        {
          "internalType": "address",
          "name": "",
          "type": "address"
        }
      ],
      "stateMutability": "view",
      "type": "function"
    },
    {
      "inputs": [],
      "name": "renounceOwnership",
      "outputs": [],
      "stateMutability": "nonpayable",
      "type": "function"
    },
    {
      "inputs": [
        {
          "internalType": "address",
          "name": "_token",
          "type": "address"
        },
        {
          "internalType": "address",
          "name": "_pool",
          "type": "address"
        }
      ],
      "name": "setPool",
      "outputs": [],
      "stateMutability": "nonpayable",
      "type": "function"
    },
    {
      "inputs": [
        {
          "internalType": "address",
          "name": "_treasury",
          "type": "address"
        }
      ],
      "name": "setTreasury",
      "outputs": [],
      "stateMutability": "nonpayable",
      "type": "function"
    },
    {
      "inputs": [
        {
          "internalType": "address",
          "name": "",
          "type": "address"
        }
      ],
      "name": "tokenToPool",
      "outputs": [
        {
          "internalType": "address",
          "name": "",
          "type": "address"
        }
      ],
      "stateMutability": "view",
      "type": "function"
    },
    {
      "inputs": [
        {
          "internalType": "address",
          "name": "newOwner",
          "type": "address"
        }
      ],
      "name": "transferOwnership",
      "outputs": [],
      "stateMutability": "nonpayable",
      "type": "function"
    },
    {
      "inputs": [],
      "name": "treasury",
      "outputs": [
        {
          "internalType": "address",
          "name": "",
          "type": "address"
        }
      ],
      "stateMutability": "view",
      "type": "function"
    },
    {
      "inputs": [
        {
          "internalType": "address",
          "name": "_betImplementation",
          "type": "address"
        }
      ],
      "name": "updateImplementation",
      "outputs": [],
      "stateMutability": "nonpayable",
      "type": "function"
    }
  ],
  "bytecode": "0x608060405234801561000f575f5ffd5b50604051610ca7380380610ca783398101604081905261002e916100f6565b816001600160a01b03811661005c57604051631e4fbdf760e01b81525f600482015260240160405180910390fd5b6100658161008c565b50600180546001600160a01b0319166001600160a01b039290921691909117905550610127565b5f80546001600160a01b038381166001600160a01b0319831681178455604051919092169283917f8be0079c531659141344cd1fd0a4f28419497f9722a3daafe3b4186f6b6457e09190a35050565b80516001600160a01b03811681146100f1575f5ffd5b919050565b5f5f60408385031215610107575f5ffd5b610110836100db565b915061011e602084016100db565b90509250929050565b610b73806101345f395ff3fe608060405234801561000f575f5ffd5b50600436106100cb575f3560e01c80638da5cb5b11610088578063cf09449711610063578063cf094497146101b1578063f0f44260146101c8578063f2fde38b146101db578063fd9156f6146101ee575f5ffd5b80638da5cb5b14610166578063989796b514610176578063c2addbb61461019e575f5ffd5b8063025b22bc146100cf5780630474a68e146100e45780633ff9e8e01461010d5780634e847fc71461013857806361d027b31461014b578063715018a61461015e575b5f5ffd5b6100e26100dd36600461078e565b610201565b005b6100f76100f236600461078e565b610252565b60405161010491906108b2565b60405180910390f35b600154610120906001600160a01b031681565b6040516001600160a01b039091168152602001610104565b6100e26101463660046108c1565b610325565b600454610120906001600160a01b031681565b6100e2610383565b5f546001600160a01b0316610120565b61012061018436600461078e565b60036020525f90815260409020546001600160a01b031681565b6101206101ac36600461090a565b610396565b6101ba60025481565b604051908152602001610104565b6100e26101d636600461078e565b6103ef565b6100e26101e936600461078e565b610440565b6101206101fc36600461090a565b610482565b610209610622565b600180546001600160a01b0319166001600160a01b0383169081179091556040517f310ba5f1d2ed074b51e2eccd052a47ae9ab7c6b800d1fca3db3999d6a592ca03905f90a250565b60408051610140810182525f80825260208201819052918101829052606081018290526080810182905260a0810182905260c0810182905260e081018290526101008101829052610120810191909152816001600160a01b03166311610c256040518163ffffffff1660e01b815260040161014060405180830381865afa9250505080156102fd575060408051601f3d908101601f191682019092526102fa918101906109e3565b60015b61031a5760405163469bfa9160e01b815260040160405180910390fd5b92915050565b919050565b61032d610622565b6001600160a01b038281165f8181526003602052604080822080546001600160a01b0319169486169485179055517fe4b33c6c01d2f440febfa6d01356ad3357d405b8c85acabc87e47d5e66a776e69190a35050565b61038b610622565b6103945f61064e565b565b6001546040515f916103e3916001600160a01b03909116906103c8908b908b908b908b908b908b908b90602001610a9f565b6040516020818303038152906040528051906020012061069d565b98975050505050505050565b6103f7610622565b600480546001600160a01b0319166001600160a01b0383169081179091556040517f7dae230f18360d76a040c81f050aa14eb9d6dc7901b20fc5d855e2a20fe814d1905f90a250565b610448610622565b6001600160a01b03811661047657604051631e4fbdf760e01b81525f60048201526024015b60405180910390fd5b61047f8161064e565b50565b600280545f918261049283610ae6565b90915550506001546040515f916104e4916001600160a01b03909116906104c99033908d908c908c908c908c908c90602001610a9f565b60405160208183030381529060405280519060200120610708565b9050806001600160a01b031663079f55e3604051806101400160405280336001600160a01b031681526020018764ffffffffff1681526020018664ffffffffff1681526020015f600481111561053c5761053c6107a9565b81526001600160a01b03808e166020808401919091528d82166040808501919091528d8316606085018190525f6080860181905260a086018f905260c09095018d90528452600390915291829020546004805493516001600160e01b031960e088901b1681526105b6959492841693929092169101610b0a565b5f604051808303815f87803b1580156105cd575f5ffd5b505af11580156105df573d5f5f3e3d5ffd5b50506040516001600160a01b03841692507fbdfd908d5005fd89d2ca88c0256d46e69a81b03e98a6b5f51baf0945ccce06fe91505f90a298975050505050505050565b5f546001600160a01b031633146103945760405163118cdaa760e01b815233600482015260240161046d565b5f80546001600160a01b038381166001600160a01b0319831681178455604051919092169283917f8be0079c531659141344cd1fd0a4f28419497f9722a3daafe3b4186f6b6457e09190a35050565b6040513060388201526f5af43d82803e903d91602b57fd5bf3ff602482015260148101839052733d602d80600a3d3981f3363d3d373d3d3d363d738152605881018290526037600c820120607882015260556043909101205f906001600160a01b03165b9392505050565b5f61070183838380763d602d80600a3d3981f3363d3d373d3d3d363d730000008460601b60e81c175f526e5af43d82803e903d91602b57fd5bf38460781b17602052826037600984f590506001600160a01b0381166107015760405163b06ebf3d60e01b815260040160405180910390fd5b6001600160a01b038116811461047f575f5ffd5b5f6020828403121561079e575f5ffd5b81356107018161077a565b634e487b7160e01b5f52602160045260245ffd5b600581106107d957634e487b7160e01b5f52602160045260245ffd5b9052565b80516001600160a01b031682526020810151610802602084018264ffffffffff169052565b50604081015161081b604084018264ffffffffff169052565b50606081015161082e60608401826107bd565b50608081015161084960808401826001600160a01b03169052565b5060a081015161086460a08401826001600160a01b03169052565b5060c081015161087f60c08401826001600160a01b03169052565b5060e081015161089a60e08401826001600160a01b03169052565b50610100818101519083015261012090810151910152565b610140810161031a82846107dd565b5f5f604083850312156108d2575f5ffd5b82356108dd8161077a565b915060208301356108ed8161077a565b809150509250929050565b64ffffffffff8116811461047f575f5ffd5b5f5f5f5f5f5f5f60e0888a031215610920575f5ffd5b873561092b8161077a565b9650602088013561093b8161077a565b9550604088013561094b8161077a565b9450606088013593506080880135925060a0880135610969816108f8565b915060c0880135610979816108f8565b8091505092959891949750929550565b604051610140810167ffffffffffffffff811182821017156109b957634e487b7160e01b5f52604160045260245ffd5b60405290565b80516103208161077a565b8051610320816108f8565b805160058110610320575f5ffd5b5f6101408284031280156109f5575f5ffd5b506109fe610989565b610a07836109bf565b8152610a15602084016109ca565b6020820152610a26604084016109ca565b6040820152610a37606084016109d5565b6060820152610a48608084016109bf565b6080820152610a5960a084016109bf565b60a0820152610a6a60c084016109bf565b60c0820152610a7b60e084016109bf565b60e08201526101008381015190820152610120928301519281019290925250919050565b6001600160a01b03978816815295871660208701529390951660408501526060840191909152608083015264ffffffffff92831660a083015290911660c082015260e00190565b5f60018201610b0357634e487b7160e01b5f52601160045260245ffd5b5060010190565b6101808101610b1982866107dd565b6001600160a01b03938416610140830152919092166101609092019190915291905056fea264697066735822122075b61287933900e482827aca596b48cfb9d38247c2caae585ede007e49098e6564736f6c634300081c0033",
  "linkReferences": {},
  "deployedLinkReferences": {},
  "immutableReferences": {},
  "inputSourceName": "project/src/BetFactory.sol",
  "buildInfoId": "solc-0_8_28-3476904e38c3954184cc35b4011a4d1fc4585f2f"
}