{
  "_format": "hh3-artifact-1",
  "contractName": "BetFactory",
  "sourceName": "src/BetFactory.sol",
  "abi": [
    {
      "inputs": [
        {
          "internalType": "address",
          "name": "_owner",
          "type": "address"
        },
        {
          "internalType": "address",
          "name": "_betImplementation",
          "type": "address"
        }
      ],
      "stateMutability": "nonpayable",
      "type": "constructor"
    },
    {
      "inputs": [],
      "name": "ATokenMismatch",
      "type": "error"
    },
    {
      "inputs": [],
      "name": "BetNotFound",
      "type": "error"
    },
    {
      "inputs": [],
      "name": "FailedDeployment",
      "type": "error"
    },
    {
      "inputs": [
        {
          "internalType": "uint256",
          "name": "balance",
          "type": "uint256"
        },
        {
          "internalType": "uint256",
          "name": "needed",
          "type": "uint256"
        }
      ],
      "name": "InsufficientBalance",
      "type": "error"
    },
    {
      "inputs": [],
      "name": "InvalidPool",
      "type": "error"
    },
    {
      "inputs": [
        {
          "internalType": "address",
          "name": "owner",
          "type": "address"
        }
      ],
      "name": "OwnableInvalidOwner",
      "type": "error"
    },
    {
      "inputs": [
        {
          "internalType": "address",
          "name": "account",
          "type": "address"
        }
      ],
      "name": "OwnableUnauthorizedAccount",
      "type": "error"
    },
    {
      "inputs": [],
      "name": "TokenNotSupported",
      "type": "error"
    },
    {
      "anonymous": false,
      "inputs": [
        {
          "indexed": true,
          "internalType": "address",
          "name": "bet",
          "type": "address"
        }
      ],
      "name": "BetCreated",
      "type": "event"
    },
    {
      "anonymous": false,
      "inputs": [
        {
          "indexed": true,
          "internalType": "address",
          "name": "newImplementation",
          "type": "address"
        }
      ],
      "name": "ImplementationUpdated",
      "type": "event"
    },
    {
      "anonymous": false,
      "inputs": [
        {
          "indexed": true,
          "internalType": "address",
          "name": "previousOwner",
          "type": "address"
        },
        {
          "indexed": true,
          "internalType": "address",
          "name": "newOwner",
          "type": "address"
        }
      ],
      "name": "OwnershipTransferStarted",
      "type": "event"
    },
    {
      "anonymous": false,
      "inputs": [
        {
          "indexed": true,
          "internalType": "address",
          "name": "previousOwner",
          "type": "address"
        },
        {
          "indexed": true,
          "internalType": "address",
          "name": "newOwner",
          "type": "address"
        }
      ],
      "name": "OwnershipTransferred",
      "type": "event"
    },
    {
      "anonymous": false,
      "inputs": [
        {
          "indexed": true,
          "internalType": "address",
          "name": "token",
          "type": "address"
        },
        {
          "indexed": true,
          "internalType": "address",
          "name": "pool",
          "type": "address"
        }
      ],
      "name": "PoolConfigured",
      "type": "event"
    },
    {
      "anonymous": false,
      "inputs": [
        {
          "indexed": true,
          "internalType": "address",
          "name": "newTreasury",
          "type": "address"
        }
      ],
      "name": "TreasuryUpdated",
      "type": "event"
    },
    {
      "inputs": [],
      "name": "AAVE_ADDRESSES_PROVIDER",
      "outputs": [
        {
          "internalType": "contract IPoolAddressesProvider",
          "name": "",
          "type": "address"
        }
      ],
      "stateMutability": "view",
      "type": "function"
    },
    {
      "inputs": [],
      "name": "acceptOwnership",
      "outputs": [],
      "stateMutability": "nonpayable",
      "type": "function"
    },
    {
      "inputs": [
        {
          "internalType": "address",
          "name": "addr",
          "type": "address"
        }
      ],
      "name": "bet",
      "outputs": [
        {
          "components": [
            {
              "internalType": "address",
              "name": "maker",
              "type": "address"
            },
            {
              "internalType": "uint40",
              "name": "acceptBy",
              "type": "uint40"
            },
            {
              "internalType": "uint40",
              "name": "endsBy",
              "type": "uint40"
            },
            {
              "internalType": "enum IBet.Status",
              "name": "status",
              "type": "uint8"
            },
            {
              "internalType": "address",
              "name": "taker",
              "type": "address"
            },
            {
              "internalType": "address",
              "name": "judge",
              "type": "address"
            },
            {
              "internalType": "address",
              "name": "asset",
              "type": "address"
            },
            {
              "internalType": "address",
              "name": "winner",
              "type": "address"
            },
            {
              "internalType": "uint256",
              "name": "makerStake",
              "type": "uint256"
            },
            {
              "internalType": "uint256",
              "name": "takerStake",
              "type": "uint256"
            }
          ],
          "internalType": "struct IBet.Bet",
          "name": "",
          "type": "tuple"
        }
      ],
      "stateMutability": "view",
      "type": "function"
    },
    {
      "inputs": [],
      "name": "betCount",
      "outputs": [
        {
          "internalType": "uint256",
          "name": "",
          "type": "uint256"
        }
      ],
      "stateMutability": "view",
      "type": "function"
    },
    {
      "inputs": [],
      "name": "betImplementation",
      "outputs": [
        {
          "internalType": "address",
          "name": "",
          "type": "address"
        }
      ],
      "stateMutability": "view",
      "type": "function"
    },
    {
      "inputs": [
        {
          "internalType": "address",
          "name": "taker",
          "type": "address"
        },
        {
          "internalType": "address",
          "name": "judge",
          "type": "address"
        },
        {
          "internalType": "address",
          "name": "asset",
          "type": "address"
        },
        {
          "internalType": "uint256",
          "name": "makerStake",
          "type": "uint256"
        },
        {
          "internalType": "uint256",
          "name": "takerStake",
          "type": "uint256"
        },
        {
          "internalType": "uint40",
          "name": "acceptBy",
          "type": "uint40"
        },
        {
          "internalType": "uint40",
          "name": "endsBy",
          "type": "uint40"
        },
        {
          "internalType": "string",
          "name": "description",
          "type": "string"
        }
      ],
      "name": "createBet",
      "outputs": [
        {
          "internalType": "address",
          "name": "newBet",
          "type": "address"
        }
      ],
      "stateMutability": "nonpayable",
      "type": "function"
    },
    {
      "inputs": [],
      "name": "owner",
      "outputs": [
        {
          "internalType": "address",
          "name": "",
          "type": "address"
        }
      ],
      "stateMutability": "view",
      "type": "function"
    },
    {
      "inputs": [],
      "name": "pendingOwner",
      "outputs": [
        {
          "internalType": "address",
          "name": "",
          "type": "address"
        }
      ],
      "stateMutability": "view",
      "type": "function"
    },
    {
      "inputs": [
        {
          "internalType": "address",
          "name": "maker",
          "type": "address"
        },
        {
          "internalType": "address",
          "name": "taker",
          "type": "address"
        },
        {
          "internalType": "uint40",
          "name": "acceptBy",
          "type": "uint40"
        },
        {
          "internalType": "uint40",
          "name": "endsBy",
          "type": "uint40"
        }
      ],
      "name": "predictBetAddress",
      "outputs": [
        {
          "internalType": "address",
          "name": "",
          "type": "address"
        }
      ],
      "stateMutability": "view",
      "type": "function"
    },
    {
      "inputs": [],
      "name": "renounceOwnership",
      "outputs": [],
      "stateMutability": "nonpayable",
      "type": "function"
    },
    {
      "inputs": [
        {
          "internalType": "address",
          "name": "_token",
          "type": "address"
        },
        {
          "internalType": "address",
          "name": "_pool",
          "type": "address"
        }
      ],
      "name": "setPool",
      "outputs": [],
      "stateMutability": "nonpayable",
      "type": "function"
    },
    {
      "inputs": [
        {
          "internalType": "address",
          "name": "_treasury",
          "type": "address"
        }
      ],
      "name": "setTreasury",
      "outputs": [],
      "stateMutability": "nonpayable",
      "type": "function"
    },
    {
      "inputs": [
        {
          "internalType": "address",
          "name": "token",
          "type": "address"
        }
      ],
      "name": "tokenToPool",
      "outputs": [
        {
          "internalType": "address",
          "name": "aavePool",
          "type": "address"
        }
      ],
      "stateMutability": "view",
      "type": "function"
    },
    {
      "inputs": [
        {
          "internalType": "address",
          "name": "newOwner",
          "type": "address"
        }
      ],
      "name": "transferOwnership",
      "outputs": [],
      "stateMutability": "nonpayable",
      "type": "function"
    },
    {
      "inputs": [],
      "name": "treasury",
      "outputs": [
        {
          "internalType": "address",
          "name": "",
          "type": "address"
        }
      ],
      "stateMutability": "view",
      "type": "function"
    },
    {
      "inputs": [
        {
          "internalType": "address",
          "name": "_betImplementation",
          "type": "address"
        }
      ],
      "name": "updateImplementation",
      "outputs": [],
      "stateMutability": "nonpayable",
      "type": "function"
    }
  ],
  "bytecode": "0x6080346100f357601f610e8338819003918201601f19168301916001600160401b038311848410176100f75780849260409485528339810103126100f357610052602061004b8361010b565b920161010b565b6001600160a01b039091169081156100e057600180546001600160a01b03199081169091555f80549182168417815560405193916001600160a01b0316907f8be0079c531659141344cd1fd0a4f28419497f9722a3daafe3b4186f6b6457e09080a3600380546001600160a01b0319166001600160a01b0392909216919091179055610d6390816101208239f35b631e4fbdf760e01b5f525f60045260245ffd5b5f80fd5b634e487b7160e01b5f52604160045260245ffd5b51906001600160a01b03821682036100f35756fe60806040526004361015610011575f80fd5b5f5f3560e01c8063025b22bc146107be5780630474a68e1461078b57806311b2e10e1461075d5780633ff9e8e0146107355780634e847fc71461070157806361d027b3146106d9578063693823ea146105df578063715018a61461057c57806379ba5097146104f75780638da5cb5b146104d0578063989796b514610490578063cf09449714610473578063e30c39781461044b578063f00cb903146101a1578063f0f44260146101395763f2fde38b146100ca575f80fd5b34610136576020366003190112610136576100e3610824565b6100eb610d1a565b600180546001600160a01b0319166001600160a01b0392831690811790915582549091167f38d16b8cac22d99fc7c124b9cd0de2d3fa1faef420bfe791d8c362d765e227008380a380f35b80fd5b503461013657602036600319011261013657610153610824565b61015b610d1a565b600580546001600160a01b0319166001600160a01b039290921691821790557f7dae230f18360d76a040c81f050aa14eb9d6dc7901b20fc5d855e2a20fe814d18280a280f35b503461043857610100366003190112610438576101bc610824565b906101c561083a565b6044356001600160a01b038116908190036104385760a43564ffffffffff8116908181036104385760c4359264ffffffffff8416948585036104385760e4359767ffffffffffffffff8911610438573660238a0112156104385788600401359567ffffffffffffffff871161043857366024888c010111610438576002805460010190555f84815260046020908152604091829020546003548351339381019384526001600160a01b038781169582019590955264ffffffffff998a166060820152989094166080890152909116956e5af43d82803e903d91602b57fd5bf391906102bd8160a081015b03601f19810183528261092a565b51902091763d602d80600a3d3981f3363d3d373d3d3d363d7300000062ffffff8260881c16175f526effffffffffffffffffffffffffffff199060781b161760205260018060a01b0390603760095ff51696871561043c5760405195610322876108f9565b338752602087015260408601525f606086018190526001600160a01b03918216608087015291811660a086015260c085019290925260e08401526064356101008401526084356101208401526005541691843b1561043857836103a3936101c4935f9660246040519b8c988997631a1bb33560e11b89526004890190610850565b6101a0610144880152826101a488015201868601378383018501879052610164840152610184830152601f01601f1916810103018183855af192831561042d57602093610418575b50807fbdfd908d5005fd89d2ca88c0256d46e69a81b03e98a6b5f51baf0945ccce06fe6040519380a28152f35b6104259192505f9061092a565b5f905f6103eb565b6040513d5f823e3d90fd5b5f80fd5b63b06ebf3d60e01b5f5260045ffd5b34610438575f366003190112610438576001546040516001600160a01b039091168152602090f35b34610438575f366003190112610438576020600254604051908152f35b34610438576020366003190112610438576001600160a01b036104b1610824565b165f526004602052602060018060a01b0360405f205416604051908152f35b34610438575f366003190112610438575f546040516001600160a01b039091168152602090f35b34610438575f36600319011261043857600154336001600160a01b039091160361056957600180546001600160a01b03199081169091555f805433928116831782556001600160a01b0316907f8be0079c531659141344cd1fd0a4f28419497f9722a3daafe3b4186f6b6457e09080a3005b63118cdaa760e01b5f523360045260245ffd5b34610438575f36600319011261043857610594610d1a565b600180546001600160a01b03199081169091555f80549182168155906001600160a01b03167f8be0079c531659141344cd1fd0a4f28419497f9722a3daafe3b4186f6b6457e08280a3005b34610438576080366003190112610438576105f8610824565b61060061083a565b906044359064ffffffffff82168203610438576064359164ffffffffff8316830361043857600354604080516001600160a01b0394851660208281019182529786169282019290925264ffffffffff938416606082015292909416608083015290911691906106728160a081016102af565b519020604051913060388401526f5af43d82803e903d91602b57fd5bf3ff60248401526014830152733d602d80600a3d3981f3363d3d373d3d3d363d73825260588201526037600c82012060788201526055604360018060a01b0392012016604051908152f35b34610438575f366003190112610438576005546040516001600160a01b039091168152602090f35b346104385760403660031901126104385761073361071d610824565b61072561083a565b9061072e610d1a565b610ad8565b005b34610438575f366003190112610438576003546040516001600160a01b039091168152602090f35b34610438575f36600319011261043857602060405173e20fcbdbffc4dd138ce8b2e6fbb6cb49777ad64d8152f35b34610438576020366003190112610438576101406107af6107aa610824565b610972565b6107bc6040518092610850565bf35b34610438576020366003190112610438576107d7610824565b6107df610d1a565b600380546001600160a01b0319166001600160a01b039290921691821790557f310ba5f1d2ed074b51e2eccd052a47ae9ab7c6b800d1fca3db3999d6a592ca035f80a2005b600435906001600160a01b038216820361043857565b602435906001600160a01b038216820361043857565b60018060a01b03815116825264ffffffffff602082015116602083015264ffffffffff6040820151166040830152606081015160068110156108e55760608301526080808201516001600160a01b039081169184019190915260a08083015182169084015260c08083015182169084015260e08083015190911690830152610100808201519083015261012090810151910152565b634e487b7160e01b5f52602160045260245ffd5b610140810190811067ffffffffffffffff82111761091657604052565b634e487b7160e01b5f52604160045260245ffd5b90601f8019910116810190811067ffffffffffffffff82111761091657604052565b51906001600160a01b038216820361043857565b519064ffffffffff8216820361043857565b610140600491604051610984816108f9565b5f81525f60208201525f60408201525f60608201525f60808201525f60a08201525f60c08201525f60e08201525f6101008201525f61012082015250604051928380926311610c2560e01b825260018060a01b03165afa5f91816109fa575b506109f75763469bfa9160e01b5f5260045ffd5b90565b909150610140813d8211610ad0575b81610a17610140938361092a565b810103126104385760405190610a2c826108f9565b610a358161094c565b8252610a4360208201610960565b6020830152610a5460408201610960565b6040830152606081015190600682101561043857610120916060840152610a7d6080820161094c565b6080840152610a8e60a0820161094c565b60a0840152610a9f60c0820161094c565b60c0840152610ab060e0820161094c565b60e08401526101008101516101008401520151610120820152905f6109e3565b3d9150610a09565b6001600160a01b03909116908115610cce5760405163026b1d5f60e01b815260208160048173e20fcbdbffc4dd138ce8b2e6fbb6cb49777ad64d5afa90811561042d575f91610c94575b506001600160a01b03168203610c865760405163cff027d960e01b81526001600160a01b039091166004820181905290602081602481865afa90811561042d575f91610c4c575b506001600160a01b03168015610c3d576020600491604051928380926358b50cef60e11b82525afa801561042d5782915f91610c01575b506001600160a01b031603610bf2575f81815260046020526040812080546001600160a01b031916841790557fe4b33c6c01d2f440febfa6d01356ad3357d405b8c85acabc87e47d5e66a776e69080a3565b63035230a760e41b5f5260045ffd5b9150506020813d602011610c35575b81610c1d6020938361092a565b8101031261043857610c2f829161094c565b5f610ba0565b3d9150610c10565b633dd1b30560e01b5f5260045ffd5b90506020813d602011610c7e575b81610c676020938361092a565b8101031261043857610c789061094c565b5f610b69565b3d9150610c5a565b62820f3560e61b5f5260045ffd5b90506020813d602011610cc6575b81610caf6020938361092a565b8101031261043857610cc09061094c565b5f610b22565b3d9150610ca2565b6001600160a01b03165f81815260046020526040812080546001600160a01b031916905591507fe4b33c6c01d2f440febfa6d01356ad3357d405b8c85acabc87e47d5e66a776e68280a3565b5f546001600160a01b031633036105695756fea2646970667358221220b43e89a92813697535c36d8c4b96b78e56fd0c010b11358f03c2ffc45b415d6b64736f6c634300081c0033",
  "linkReferences": {},
  "deployedLinkReferences": {},
  "immutableReferences": {},
  "inputSourceName": "project/src/BetFactory.sol",
  "buildInfoId": "solc-0_8_28-3692342e51e2b469086cda893fed90b2f226fc37"
}