{
  "_format": "hh3-artifact-1",
  "contractName": "Bet",
  "sourceName": "src/Bet.sol",
  "abi": [
    {
      "inputs": [],
      "stateMutability": "nonpayable",
      "type": "constructor"
    },
    {
      "inputs": [],
      "name": "InvalidAddress",
      "type": "error"
    },
    {
      "inputs": [],
      "name": "InvalidAmount",
      "type": "error"
    },
    {
      "inputs": [],
      "name": "InvalidInitialization",
      "type": "error"
    },
    {
      "inputs": [],
      "name": "InvalidStatus",
      "type": "error"
    },
    {
      "inputs": [],
      "name": "InvalidTimestamp",
      "type": "error"
    },
    {
      "inputs": [],
      "name": "NotInitializing",
      "type": "error"
    },
    {
      "inputs": [],
      "name": "Unauthorized",
      "type": "error"
    },
    {
      "anonymous": false,
      "inputs": [],
      "name": "BetCancelled",
      "type": "event"
    },
    {
      "anonymous": false,
      "inputs": [
        {
          "indexed": true,
          "internalType": "address",
          "name": "maker",
          "type": "address"
        },
        {
          "indexed": true,
          "internalType": "address",
          "name": "taker",
          "type": "address"
        },
        {
          "indexed": true,
          "internalType": "address",
          "name": "asset",
          "type": "address"
        },
        {
          "indexed": false,
          "internalType": "uint40",
          "name": "acceptBy",
          "type": "uint40"
        },
        {
          "indexed": false,
          "internalType": "uint40",
          "name": "resolveBy",
          "type": "uint40"
        },
        {
          "indexed": false,
          "internalType": "uint256",
          "name": "makerStake",
          "type": "uint256"
        },
        {
          "indexed": false,
          "internalType": "uint256",
          "name": "takerStake",
          "type": "uint256"
        }
      ],
      "name": "BetCreated",
      "type": "event"
    },
    {
      "anonymous": false,
      "inputs": [
        {
          "indexed": true,
          "internalType": "address",
          "name": "winner",
          "type": "address"
        },
        {
          "indexed": false,
          "internalType": "uint256",
          "name": "amount",
          "type": "uint256"
        }
      ],
      "name": "BetResolved",
      "type": "event"
    },
    {
      "anonymous": false,
      "inputs": [
        {
          "indexed": true,
          "internalType": "address",
          "name": "depositor",
          "type": "address"
        },
        {
          "indexed": false,
          "internalType": "uint256",
          "name": "amount",
          "type": "uint256"
        }
      ],
      "name": "Deposited",
      "type": "event"
    },
    {
      "anonymous": false,
      "inputs": [
        {
          "indexed": false,
          "internalType": "uint64",
          "name": "version",
          "type": "uint64"
        }
      ],
      "name": "Initialized",
      "type": "event"
    },
    {
      "inputs": [],
      "name": "bet",
      "outputs": [
        {
          "components": [
            {
              "internalType": "address",
              "name": "maker",
              "type": "address"
            },
            {
              "internalType": "uint40",
              "name": "acceptBy",
              "type": "uint40"
            },
            {
              "internalType": "uint40",
              "name": "resolveBy",
              "type": "uint40"
            },
            {
              "internalType": "enum IBet.Status",
              "name": "status",
              "type": "uint8"
            },
            {
              "internalType": "address",
              "name": "taker",
              "type": "address"
            },
            {
              "internalType": "address",
              "name": "judge",
              "type": "address"
            },
            {
              "internalType": "address",
              "name": "asset",
              "type": "address"
            },
            {
              "internalType": "address",
              "name": "winner",
              "type": "address"
            },
            {
              "internalType": "uint256",
              "name": "makerStake",
              "type": "uint256"
            },
            {
              "internalType": "uint256",
              "name": "takerStake",
              "type": "uint256"
            }
          ],
          "internalType": "struct IBet.Bet",
          "name": "state",
          "type": "tuple"
        }
      ],
      "stateMutability": "view",
      "type": "function"
    },
    {
      "inputs": [],
      "name": "cancel",
      "outputs": [],
      "stateMutability": "nonpayable",
      "type": "function"
    },
    {
      "inputs": [
        {
          "internalType": "uint256",
          "name": "amount",
          "type": "uint256"
        }
      ],
      "name": "deposit",
      "outputs": [],
      "stateMutability": "nonpayable",
      "type": "function"
    },
    {
      "inputs": [
        {
          "components": [
            {
              "internalType": "address",
              "name": "maker",
              "type": "address"
            },
            {
              "internalType": "uint40",
              "name": "acceptBy",
              "type": "uint40"
            },
            {
              "internalType": "uint40",
              "name": "resolveBy",
              "type": "uint40"
            },
            {
              "internalType": "enum IBet.Status",
              "name": "status",
              "type": "uint8"
            },
            {
              "internalType": "address",
              "name": "taker",
              "type": "address"
            },
            {
              "internalType": "address",
              "name": "judge",
              "type": "address"
            },
            {
              "internalType": "address",
              "name": "asset",
              "type": "address"
            },
            {
              "internalType": "address",
              "name": "winner",
              "type": "address"
            },
            {
              "internalType": "uint256",
              "name": "makerStake",
              "type": "uint256"
            },
            {
              "internalType": "uint256",
              "name": "takerStake",
              "type": "uint256"
            }
          ],
          "internalType": "struct IBet.Bet",
          "name": "initialBet",
          "type": "tuple"
        },
        {
          "internalType": "address",
          "name": "pool",
          "type": "address"
        },
        {
          "internalType": "address",
          "name": "treasury",
          "type": "address"
        }
      ],
      "name": "initialize",
      "outputs": [],
      "stateMutability": "nonpayable",
      "type": "function"
    },
    {
      "inputs": [
        {
          "internalType": "address",
          "name": "winner",
          "type": "address"
        }
      ],
      "name": "resolve",
      "outputs": [],
      "stateMutability": "nonpayable",
      "type": "function"
    },
    {
      "inputs": [],
      "name": "status",
      "outputs": [
        {
          "internalType": "enum IBet.Status",
          "name": "",
          "type": "uint8"
        }
      ],
      "stateMutability": "view",
      "type": "function"
    }
  ],
  "bytecode": "0x6080604052348015600e575f5ffd5b5060156019565b60c9565b7ff0c57e16840df040f15088dc2f81fe391c3923bec73e23a9662efc9c229c6a00805468010000000000000000900460ff161560685760405163f92ee8a960e01b815260040160405180910390fd5b80546001600160401b039081161460c65780546001600160401b0319166001600160401b0390811782556040519081527fc7f505b2f371ae2175ee4913f4499e1f2633a7b5936321eed1cdaeb6115181d29060200160405180910390a15b50565b611608806100d65f395ff3fe608060405234801561000f575f5ffd5b5060043610610060575f3560e01c8063079f55e31461006457806311610c2514610079578063200d2ed21461009757806355ea6c47146100ac578063b6b55f25146100bf578063ea8a1af0146100d2575b5f5ffd5b6100776100723660046111f4565b6100da565b005b610081610573565b60405161008e9190611279565b60405180910390f35b61009f6106be565b60405161008e919061135a565b6100776100ba366004611368565b61078f565b6100776100cd36600461138a565b610b5c565b610077610ebe565b5f6100e3611143565b805490915060ff600160401b820416159067ffffffffffffffff165f8115801561010a5750825b90505f8267ffffffffffffffff1660011480156101265750303b155b905081158015610134575080155b156101525760405163f92ee8a960e01b815260040160405180910390fd5b845467ffffffffffffffff19166001178555831561017c57845460ff60401b1916600160401b1785555b600960208181527fa5834974e1759241ec52bd9f9e726a21f57f3cb855352070eb0675ce685a6a3e8054600160ff1991821681179092557fbdd13c3d71b4c1dd1a1982dda01644ca7b46c0aa96d270fd15c77110820dd20980548216831790557f50ff35c29a86854bfdf875d1f4dad0bcc2afa1731848be0cc942b2fd4cdbb3a980548216831790557ff162882f347bffeab9c5451b506d13fa1e84c4699b03e9a70bdff51d3c76f22380548216831790557f7227e49eb6e085d5ae7ae1ed784bf9329af247886ecbd05f71911c08a4f3d25f805482168317905573716b52795a72de3309d86971428e19843d6d9a815f9081527f92db28f9f3e7852c0cdac6b8d5296d8c80dab9704825d1e0fa35943c70732b1080549092169092179055906102a8908b018b611368565b6001600160a01b0316815260208101919091526040015f205460ff166102e0576040516282b42960e81b815260040160405180910390fd5b5f6102ee60208a018a611368565b6001600160a01b0316148061031a57505f61030f60a08a0160808b01611368565b6001600160a01b0316145b8061033c57505f61033160e08a0160c08b01611368565b6001600160a01b0316145b8061035e57505f61035360c08a0160a08b01611368565b6001600160a01b0316145b1561037c5760405163e6c4247b60e01b815260040160405180910390fd5b5f61038d60408a0160208b016113b3565b9050428164ffffffffff161115806103c2575064ffffffffff81166103b860608b0160408c016113b3565b64ffffffffff1611155b156103e05760405163b7d0949760e01b815260040160405180910390fd5b5f6103f160808b0160608c016113da565b600481111561040257610402611245565b14610420576040516307a92f1960e51b815260040160405180910390fd5b885f61042c8282611472565b5050600880546001600160a01b03808a166001600160a01b03199283161790925560078054928b169290911691909117905561046e60e08a0160c08b01611368565b6001600160a01b031661048760a08b0160808c01611368565b6001600160a01b031661049d60208c018c611368565b6001600160a01b03167f8dc5fa0e4fac3ee322f7740c523d7b69cbec4b6895fd492ef4912ba45b8ba52e6104d760408e0160208f016113b3565b8d60400160208101906104ea91906113b3565b6040805164ffffffffff93841681529290911660208301526101008f0135908201526101208e0135606082015260800160405180910390a450831561056957845460ff60401b19168555604051600181527fc7f505b2f371ae2175ee4913f4499e1f2633a7b5936321eed1cdaeb6115181d29060200160405180910390a15b5050505050505050565b60408051610140810182525f80825260208201819052918101829052606081018290526080810182905260a0810182905260c0810182905260e08101829052610100810182905261012081019190915260408051610140810182525f80546001600160a01b038116835264ffffffffff600160a01b820481166020850152600160c81b820416938301939093529091606083019060ff600160f01b90910416600481111561062357610623611245565b600481111561063457610634611245565b815260018201546001600160a01b0390811660208301526002830154811660408301526003830154811660608301526004830154166080820152600582015460a082015260069091015460c090910152905061068f8161116d565b816060019060048111156106a5576106a5611245565b908160048111156106b8576106b8611245565b90525090565b60408051610140810182525f80546001600160a01b038116835264ffffffffff600160a01b820481166020850152600160c81b820416938301939093529161078a91908390606083019060ff600160f01b90910416600481111561072457610724611245565b600481111561073557610735611245565b815260018201546001600160a01b0390811660208301526002830154811660408301526003830154811660608301526004830154166080820152600582015460a082015260069091015460c09091015261116d565b905090565b60408051610140810182525f80546001600160a01b038116835264ffffffffff600160a01b820481166020850152600160c81b82041693830193909352918290606083019060ff600160f01b9091041660048111156107f0576107f0611245565b600481111561080157610801611245565b815260018201546001600160a01b039081166020830152600283015481166040830152600383015481166060830152600483015481166080830152600583015460a08084019190915260069093015460c0909201919091529082015191925016331461087f576040516282b42960e81b815260040160405180910390fd5b600161088a8261116d565b600481111561089b5761089b611245565b1415806108b25750806040015164ffffffffff1642115b156108d0576040516307a92f1960e51b815260040160405180910390fd5b5f8161012001518261010001516108e7919061157d565b9050826001600160a01b03167f267080663d37ffe29159bb65a5b0fd5ef7a272464e69a52c77c0520592669c0d8260405161092491815260200190565b60405180910390a26007546001600160a01b0316156109bd5760075460c0830151604051631a4ca37b60e21b81526001600160a01b039182166004820152602481018490523060448201529116906369328dec906064016020604051808303815f875af1158015610997573d5f5f3e3d5ffd5b505050506040513d601f19601f820116820180604052508101906109bb919061159c565b505b60c082015160405163a9059cbb60e01b81526001600160a01b038581166004830152602482018490529091169063a9059cbb906044016020604051808303815f875af1158015610a0f573d5f5f3e3d5ffd5b505050506040513d601f19601f82011682018060405250810190610a3391906115b3565b5060c08201516040516370a0823160e01b81523060048201525f916001600160a01b0316906370a0823190602401602060405180830381865afa158015610a7c573d5f5f3e3d5ffd5b505050506040513d601f19601f82011682018060405250810190610aa0919061159c565b90508015610b225760c083015160085460405163a9059cbb60e01b81526001600160a01b0391821660048201526024810184905291169063a9059cbb906044016020604051808303815f875af1158015610afc573d5f5f3e3d5ffd5b505050506040513d601f19601f82011682018060405250810190610b2091906115b3565b505b600480546001600160a01b0319166001600160a01b0386161790555f80546002919060ff60f01b1916600160f01b83021790555050505050565b60408051610140810182525f80546001600160a01b038116835264ffffffffff600160a01b820481166020850152600160c81b82041693830193909352918290606083019060ff600160f01b909104166004811115610bbd57610bbd611245565b6004811115610bce57610bce611245565b815260018201546001600160a01b0390811660208301526002830154811660408301526003830154811660608301526004830154166080820152600582015460a082015260069091015460c09091015290505f610c2a8261116d565b6004811115610c3b57610c3b611245565b14610c59576040516307a92f1960e51b815260040160405180910390fd5b80516001600160a01b03163314801590610c89575080608001516001600160a01b0316336001600160a01b031614155b15610ca6576040516282b42960e81b815260040160405180910390fd5b80516001600160a01b03163314610cc557806101200151821415610ccf565b8061010001518214155b15610ced5760405163162908e360e11b815260040160405180910390fd5b60c08101516040516323b872dd60e01b8152336004820152306024820152604481018490526001600160a01b03909116906323b872dd906064016020604051808303815f875af1158015610d43573d5f5f3e3d5ffd5b505050506040513d601f19601f82011682018060405250810190610d6791906115b3565b506007546001600160a01b031615610deb5760075460c082015160405163617ba03760e01b81526001600160a01b039182166004820152602481018590523060448201525f606482015291169063617ba037906084015f604051808303815f87803b158015610dd4575f5ffd5b505af1158015610de6573d5f5f3e3d5ffd5b505050505b806101200151816101000151610e01919061157d565b60c08201516040516370a0823160e01b81523060048201526001600160a01b03909116906370a0823190602401602060405180830381865afa158015610e49573d5f5f3e3d5ffd5b505050506040513d601f19601f82011682018060405250810190610e6d919061159c565b03610e85575f805460ff60f01b1916600160f01b1790555b60405182815233907f2da466a7b24304f47e87fa2e1e5a81b9831ce54fec19055ce277ca2f39ba42c49060200160405180910390a25050565b60408051610140810182525f80546001600160a01b038116835264ffffffffff600160a01b820481166020850152600160c81b82041693830193909352918290606083019060ff600160f01b909104166004811115610f1f57610f1f611245565b6004811115610f3057610f30611245565b815260018201546001600160a01b0390811660208301526002808401548216604084015260038401548216606084015260048401549091166080830152600583015460a083015260069092015460c09091015290915081606001516004811115610f9c57610f9c611245565b10610fba576040516307a92f1960e51b815260040160405180910390fd5b80516001600160a01b031633148015610fe857505f81606001516004811115610fe557610fe5611245565b14155b15611006576040516307a92f1960e51b815260040160405180910390fd5b60c0810151815161010083015160405163a9059cbb60e01b81526001600160a01b039283166004820152602481019190915291169063a9059cbb906044016020604051808303815f875af192505050801561107e575060408051601f3d908101601f1916820190925261107b918101906115b3565b60015b1561108557505b60c0810151608082015161012083015160405163a9059cbb60e01b81526001600160a01b039283166004820152602481019190915291169063a9059cbb906044016020604051808303815f875af1925050508015611100575060408051601f3d908101601f191682019092526110fd918101906115b3565b60015b1561110757505b5f805460ff60f01b1916600360f01b1781556040517fa9c660d43fdb14d4f7f7226623a556967689f58ee0e7c1a3397257bb909454c99190a150565b5f807ff0c57e16840df040f15088dc2f81fe391c3923bec73e23a9662efc9c229c6a005b92915050565b60608101515f908181600481111561118757611187611245565b14801561119e5750826020015164ffffffffff1642115b806111cf575060018160048111156111b8576111b8611245565b1480156111cf5750826040015164ffffffffff1642115b156111675750600492915050565b6001600160a01b03811681146111f1575f5ffd5b50565b5f5f5f838503610180811215611208575f5ffd5b610140811215611216575f5ffd5b50839250610140840135611229816111dd565b915061016084013561123a816111dd565b809150509250925092565b634e487b7160e01b5f52602160045260245ffd5b6005811061127557634e487b7160e01b5f52602160045260245ffd5b9052565b81516001600160a01b03168152610140810160208301516112a3602084018264ffffffffff169052565b5060408301516112bc604084018264ffffffffff169052565b5060608301516112cf6060840182611259565b5060808301516112ea60808401826001600160a01b03169052565b5060a083015161130560a08401826001600160a01b03169052565b5060c083015161132060c08401826001600160a01b03169052565b5060e083015161133b60e08401826001600160a01b03169052565b5061010083015161010083015261012083015161012083015292915050565b602081016111678284611259565b5f60208284031215611378575f5ffd5b8135611383816111dd565b9392505050565b5f6020828403121561139a575f5ffd5b5035919050565b64ffffffffff811681146111f1575f5ffd5b5f602082840312156113c3575f5ffd5b8135611383816113a1565b600581106111f1575f5ffd5b5f602082840312156113ea575f5ffd5b8135611383816113ce565b5f8135611167816111dd565b80546001600160a01b0319166001600160a01b0392909216919091179055565b5f8135611167816113a1565b5f8135611167816113ce565b6005821061145557634e487b7160e01b5f52602160045260245ffd5b805460ff60f01b191660f09290921b60ff60f01b16919091179055565b61148461147e836113f5565b82611401565b6114b961149360208401611421565b82805464ffffffffff60a01b191660a09290921b64ffffffffff60a01b16919091179055565b6114ee6114c860408401611421565b82805464ffffffffff60c81b191660c89290921b64ffffffffff60c81b16919091179055565b6115036114fd6060840161142d565b82611439565b61151b611512608084016113f5565b60018301611401565b61153361152a60a084016113f5565b60028301611401565b61154b61154260c084016113f5565b60038301611401565b61156361155a60e084016113f5565b60048301611401565b610100820135600582015561012090910135600690910155565b8082018082111561116757634e487b7160e01b5f52601160045260245ffd5b5f602082840312156115ac575f5ffd5b5051919050565b5f602082840312156115c3575f5ffd5b81518015158114611383575f5ffdfea264697066735822122073791785d0f9c9044ac708d93e3d38c40d35d1014f591823e762532177385c0664736f6c634300081c0033",
  "linkReferences": {},
  "deployedLinkReferences": {},
  "immutableReferences": {},
  "inputSourceName": "project/src/Bet.sol",
  "buildInfoId": "solc-0_8_28-0fa623bda83d322fa74f4f8d11fb1e8b7556ec0b"
}