{
  "_format": "hh3-artifact-1",
  "contractName": "BetFactory",
  "sourceName": "src/BetFactory.sol",
  "abi": [
    {
      "inputs": [
        {
          "internalType": "address",
          "name": "_owner",
          "type": "address"
        },
        {
          "internalType": "address",
          "name": "_betImplementation",
          "type": "address"
        }
      ],
      "stateMutability": "nonpayable",
      "type": "constructor"
    },
    {
      "inputs": [],
      "name": "BetNotFound",
      "type": "error"
    },
    {
      "inputs": [],
      "name": "FailedDeployment",
      "type": "error"
    },
    {
      "inputs": [
        {
          "internalType": "uint256",
          "name": "balance",
          "type": "uint256"
        },
        {
          "internalType": "uint256",
          "name": "needed",
          "type": "uint256"
        }
      ],
      "name": "InsufficientBalance",
      "type": "error"
    },
    {
      "inputs": [
        {
          "internalType": "address",
          "name": "owner",
          "type": "address"
        }
      ],
      "name": "OwnableInvalidOwner",
      "type": "error"
    },
    {
      "inputs": [
        {
          "internalType": "address",
          "name": "account",
          "type": "address"
        }
      ],
      "name": "OwnableUnauthorizedAccount",
      "type": "error"
    },
    {
      "anonymous": false,
      "inputs": [
        {
          "indexed": true,
          "internalType": "address",
          "name": "bet",
          "type": "address"
        }
      ],
      "name": "BetCreated",
      "type": "event"
    },
    {
      "anonymous": false,
      "inputs": [
        {
          "indexed": true,
          "internalType": "address",
          "name": "newImplementation",
          "type": "address"
        }
      ],
      "name": "ImplementationUpdated",
      "type": "event"
    },
    {
      "anonymous": false,
      "inputs": [
        {
          "indexed": true,
          "internalType": "address",
          "name": "previousOwner",
          "type": "address"
        },
        {
          "indexed": true,
          "internalType": "address",
          "name": "newOwner",
          "type": "address"
        }
      ],
      "name": "OwnershipTransferred",
      "type": "event"
    },
    {
      "anonymous": false,
      "inputs": [
        {
          "indexed": true,
          "internalType": "address",
          "name": "token",
          "type": "address"
        },
        {
          "indexed": true,
          "internalType": "address",
          "name": "pool",
          "type": "address"
        }
      ],
      "name": "PoolConfigured",
      "type": "event"
    },
    {
      "anonymous": false,
      "inputs": [
        {
          "indexed": true,
          "internalType": "address",
          "name": "newTreasury",
          "type": "address"
        }
      ],
      "name": "TreasuryUpdated",
      "type": "event"
    },
    {
      "inputs": [
        {
          "internalType": "address",
          "name": "addr",
          "type": "address"
        }
      ],
      "name": "bet",
      "outputs": [
        {
          "components": [
            {
              "internalType": "address",
              "name": "maker",
              "type": "address"
            },
            {
              "internalType": "uint40",
              "name": "acceptBy",
              "type": "uint40"
            },
            {
              "internalType": "uint40",
              "name": "resolveBy",
              "type": "uint40"
            },
            {
              "internalType": "enum IBet.Status",
              "name": "status",
              "type": "uint8"
            },
            {
              "internalType": "address",
              "name": "taker",
              "type": "address"
            },
            {
              "internalType": "address",
              "name": "judge",
              "type": "address"
            },
            {
              "internalType": "address",
              "name": "asset",
              "type": "address"
            },
            {
              "internalType": "address",
              "name": "winner",
              "type": "address"
            },
            {
              "internalType": "uint256",
              "name": "makerStake",
              "type": "uint256"
            },
            {
              "internalType": "uint256",
              "name": "takerStake",
              "type": "uint256"
            }
          ],
          "internalType": "struct IBet.Bet",
          "name": "",
          "type": "tuple"
        }
      ],
      "stateMutability": "view",
      "type": "function"
    },
    {
      "inputs": [],
      "name": "betCount",
      "outputs": [
        {
          "internalType": "uint256",
          "name": "",
          "type": "uint256"
        }
      ],
      "stateMutability": "view",
      "type": "function"
    },
    {
      "inputs": [],
      "name": "betImplementation",
      "outputs": [
        {
          "internalType": "address",
          "name": "",
          "type": "address"
        }
      ],
      "stateMutability": "view",
      "type": "function"
    },
    {
      "inputs": [
        {
          "internalType": "address",
          "name": "taker",
          "type": "address"
        },
        {
          "internalType": "address",
          "name": "judge",
          "type": "address"
        },
        {
          "internalType": "address",
          "name": "asset",
          "type": "address"
        },
        {
          "internalType": "uint256",
          "name": "makerStake",
          "type": "uint256"
        },
        {
          "internalType": "uint256",
          "name": "takerStake",
          "type": "uint256"
        },
        {
          "internalType": "uint40",
          "name": "acceptBy",
          "type": "uint40"
        },
        {
          "internalType": "uint40",
          "name": "resolveBy",
          "type": "uint40"
        },
        {
          "internalType": "string",
          "name": "description",
          "type": "string"
        }
      ],
      "name": "createBet",
      "outputs": [
        {
          "internalType": "address",
          "name": "",
          "type": "address"
        }
      ],
      "stateMutability": "nonpayable",
      "type": "function"
    },
    {
      "inputs": [],
      "name": "owner",
      "outputs": [
        {
          "internalType": "address",
          "name": "",
          "type": "address"
        }
      ],
      "stateMutability": "view",
      "type": "function"
    },
    {
      "inputs": [
        {
          "internalType": "address",
          "name": "maker",
          "type": "address"
        },
        {
          "internalType": "address",
          "name": "taker",
          "type": "address"
        },
        {
          "internalType": "address",
          "name": "asset",
          "type": "address"
        },
        {
          "internalType": "uint256",
          "name": "makerStake",
          "type": "uint256"
        },
        {
          "internalType": "uint256",
          "name": "takerStake",
          "type": "uint256"
        },
        {
          "internalType": "uint40",
          "name": "acceptBy",
          "type": "uint40"
        },
        {
          "internalType": "uint40",
          "name": "resolveBy",
          "type": "uint40"
        }
      ],
      "name": "predictBetAddress",
      "outputs": [
        {
          "internalType": "address",
          "name": "",
          "type": "address"
        }
      ],
      "stateMutability": "view",
      "type": "function"
    },
    {
      "inputs": [],
      "name": "renounceOwnership",
      "outputs": [],
      "stateMutability": "nonpayable",
      "type": "function"
    },
    {
      "inputs": [
        {
          "internalType": "address",
          "name": "_token",
          "type": "address"
        },
        {
          "internalType": "address",
          "name": "_pool",
          "type": "address"
        }
      ],
      "name": "setPool",
      "outputs": [],
      "stateMutability": "nonpayable",
      "type": "function"
    },
    {
      "inputs": [
        {
          "internalType": "address",
          "name": "_treasury",
          "type": "address"
        }
      ],
      "name": "setTreasury",
      "outputs": [],
      "stateMutability": "nonpayable",
      "type": "function"
    },
    {
      "inputs": [
        {
          "internalType": "address",
          "name": "",
          "type": "address"
        }
      ],
      "name": "tokenToPool",
      "outputs": [
        {
          "internalType": "address",
          "name": "",
          "type": "address"
        }
      ],
      "stateMutability": "view",
      "type": "function"
    },
    {
      "inputs": [
        {
          "internalType": "address",
          "name": "newOwner",
          "type": "address"
        }
      ],
      "name": "transferOwnership",
      "outputs": [],
      "stateMutability": "nonpayable",
      "type": "function"
    },
    {
      "inputs": [],
      "name": "treasury",
      "outputs": [
        {
          "internalType": "address",
          "name": "",
          "type": "address"
        }
      ],
      "stateMutability": "view",
      "type": "function"
    },
    {
      "inputs": [
        {
          "internalType": "address",
          "name": "_betImplementation",
          "type": "address"
        }
      ],
      "name": "updateImplementation",
      "outputs": [],
      "stateMutability": "nonpayable",
      "type": "function"
    }
  ],
  "bytecode": "0x6080346100ea57601f610bf538819003918201601f19168301916001600160401b038311848410176100ee5780849260409485528339810103126100ea57610052602061004b83610102565b9201610102565b6001600160a01b039091169081156100d7575f80546001600160a01b031981168417825560405193916001600160a01b03909116907f8be0079c531659141344cd1fd0a4f28419497f9722a3daafe3b4186f6b6457e09080a3600180546001600160a01b0319166001600160a01b0392909216919091179055610ade90816101178239f35b631e4fbdf760e01b5f525f60045260245ffd5b5f80fd5b634e487b7160e01b5f52604160045260245ffd5b51906001600160a01b03821682036100ea5756fe60806040526004361015610011575f80fd5b5f5f3560e01c8063025b22bc146106e25780630474a68e146106af5780633ff9e8e0146106875780634e847fc71461060857806361d027b3146105e0578063715018a6146105895780638da5cb5b14610562578063989796b514610522578063c2addbb614610454578063cf09449714610437578063f00cb90314610199578063f0f44260146101315763f2fde38b146100a9575f80fd5b3461012e57602036600319011261012e576100c2610748565b6100ca610a82565b6001600160a01b0316801561011a5781546001600160a01b03198116821783556001600160a01b03167f8be0079c531659141344cd1fd0a4f28419497f9722a3daafe3b4186f6b6457e08380a380f35b631e4fbdf760e01b82526004829052602482fd5b80fd5b503461012e57602036600319011261012e5761014b610748565b610153610a82565b600480546001600160a01b0319166001600160a01b039290921691821790557f7dae230f18360d76a040c81f050aa14eb9d6dc7901b20fc5d855e2a20fe814d18280a280f35b503461041057610100366003190112610410576101b4610748565b906101bd61075e565b916101c6610774565b906084356064356101d5610833565b916101de610847565b9460e4359767ffffffffffffffff8911610410573660238a0112156104105788600401359567ffffffffffffffff871161041057366024888c010111610410576002545f198114610423576001016002556001546e5af43d82803e903d91602b57fd5bf38661026061026e8c6040519283918d8c60208501978d8c338b610a3a565b03601f19810183528261088c565b51902091763d602d80600a3d3981f3363d3d373d3d3d363d7300000062ffffff8260881c16175f526effffffffffffffffffffffffffffff199060781b161760205260018060a01b0390603760095ff5169788156104145764ffffffffff9081604051986102db8a61085b565b338a521660208901521660408701525f606087015260018060a01b0316608086015260018060a01b031660a085015260018060a01b0316918260c08501525f60e08501526101008401526101208301525f52600360205260018060a01b0360405f20541660018060a01b036004541691843b15610410578361037b936101c4935f9660246040519b8c988997631a1bb33560e11b8952600489019061078a565b6101a0610144880152826101a488015201868601378383018501879052610164840152610184830152601f01601f1916810103018183855af1928315610405576020936103f0575b50807fbdfd908d5005fd89d2ca88c0256d46e69a81b03e98a6b5f51baf0945ccce06fe6040519380a28152f35b6103fd9192505f9061088c565b5f905f6103c3565b6040513d5f823e3d90fd5b5f80fd5b63b06ebf3d60e01b5f5260045ffd5b634e487b7160e01b5f52601160045260245ffd5b34610410575f366003190112610410576020600254604051908152f35b346104105760e036600319011261041057602061046f610748565b61047761075e565b61047f610774565b906104bb61048b610833565b93610260610497610847565b60018060a01b0360015416966040519586948a86019860843592606435928b610a3a565b519020604051913060388401526f5af43d82803e903d91602b57fd5bf3ff60248401526014830152733d602d80600a3d3981f3363d3d373d3d3d363d73825260588201526037600c82012060788201526055604360018060a01b0392012016604051908152f35b34610410576020366003190112610410576001600160a01b03610543610748565b165f526003602052602060018060a01b0360405f205416604051908152f35b34610410575f366003190112610410575f546040516001600160a01b039091168152602090f35b34610410575f366003190112610410576105a1610a82565b5f80546001600160a01b0319811682556001600160a01b03167f8be0079c531659141344cd1fd0a4f28419497f9722a3daafe3b4186f6b6457e08280a3005b34610410575f366003190112610410576004546040516001600160a01b039091168152602090f35b3461041057604036600319011261041057610621610748565b61062961075e565b90610632610a82565b6001600160a01b039081165f81815260036020526040812080546001600160a01b03191694909316938417909255907fe4b33c6c01d2f440febfa6d01356ad3357d405b8c85acabc87e47d5e66a776e69080a3005b34610410575f366003190112610410576001546040516001600160a01b039091168152602090f35b34610410576020366003190112610410576101406106d36106ce610748565b6108d4565b6106e0604051809261078a565bf35b34610410576020366003190112610410576106fb610748565b610703610a82565b600180546001600160a01b0319166001600160a01b039290921691821790557f310ba5f1d2ed074b51e2eccd052a47ae9ab7c6b800d1fca3db3999d6a592ca035f80a2005b600435906001600160a01b038216820361041057565b602435906001600160a01b038216820361041057565b604435906001600160a01b038216820361041057565b60018060a01b03815116825264ffffffffff602082015116602083015264ffffffffff60408201511660408301526060810151600581101561081f5760608301526080808201516001600160a01b039081169184019190915260a08083015182169084015260c08083015182169084015260e08083015190911690830152610100808201519083015261012090810151910152565b634e487b7160e01b5f52602160045260245ffd5b60a4359064ffffffffff8216820361041057565b60c4359064ffffffffff8216820361041057565b610140810190811067ffffffffffffffff82111761087857604052565b634e487b7160e01b5f52604160045260245ffd5b90601f8019910116810190811067ffffffffffffffff82111761087857604052565b51906001600160a01b038216820361041057565b519064ffffffffff8216820361041057565b6101406004916040516108e68161085b565b5f81525f60208201525f60408201525f60608201525f60808201525f60a08201525f60c08201525f60e08201525f6101008201525f61012082015250604051928380926311610c2560e01b825260018060a01b03165afa5f918161095c575b506109595763469bfa9160e01b5f5260045ffd5b90565b909150610140813d8211610a32575b81610979610140938361088c565b81010312610410576040519061098e8261085b565b610997816108ae565b82526109a5602082016108c2565b60208301526109b6604082016108c2565b60408301526060810151906005821015610410576101209160608401526109df608082016108ae565b60808401526109f060a082016108ae565b60a0840152610a0160c082016108ae565b60c0840152610a1260e082016108ae565b60e08401526101008101516101008401520151610120820152905f610945565b3d915061096b565b6001600160a01b039182168152918116602083015290911660408201526060810191909152608081019190915264ffffffffff91821660a0820152911660c082015260e00190565b5f546001600160a01b03163303610a9557565b63118cdaa760e01b5f523360045260245ffdfea2646970667358221220060c2b7f8ffc6d70940aad6ede00888550df198ce1a0b500df4e624b591144c864736f6c634300081c0033",
  "linkReferences": {},
  "deployedLinkReferences": {},
  "immutableReferences": {},
  "inputSourceName": "project/src/BetFactory.sol",
  "buildInfoId": "solc-0_8_28-5c0078f914ca296236887fa402214aa152b11c8b"
}