{
  "_format": "hh3-artifact-1",
  "contractName": "Bet",
  "sourceName": "src/Bet.sol",
  "abi": [
    {
      "inputs": [],
      "stateMutability": "nonpayable",
      "type": "constructor"
    },
    {
      "inputs": [],
      "name": "InvalidAddress",
      "type": "error"
    },
    {
      "inputs": [],
      "name": "InvalidAmount",
      "type": "error"
    },
    {
      "inputs": [],
      "name": "InvalidInitialization",
      "type": "error"
    },
    {
      "inputs": [],
      "name": "InvalidStatus",
      "type": "error"
    },
    {
      "inputs": [],
      "name": "InvalidTimestamp",
      "type": "error"
    },
    {
      "inputs": [],
      "name": "NotInitializing",
      "type": "error"
    },
    {
      "inputs": [],
      "name": "Unauthorized",
      "type": "error"
    },
    {
      "anonymous": false,
      "inputs": [],
      "name": "BetAccepted",
      "type": "event"
    },
    {
      "anonymous": false,
      "inputs": [],
      "name": "BetCancelled",
      "type": "event"
    },
    {
      "anonymous": false,
      "inputs": [
        {
          "indexed": true,
          "internalType": "address",
          "name": "maker",
          "type": "address"
        },
        {
          "indexed": true,
          "internalType": "address",
          "name": "taker",
          "type": "address"
        },
        {
          "indexed": true,
          "internalType": "address",
          "name": "asset",
          "type": "address"
        },
        {
          "indexed": false,
          "internalType": "uint40",
          "name": "acceptBy",
          "type": "uint40"
        },
        {
          "indexed": false,
          "internalType": "uint40",
          "name": "resolveBy",
          "type": "uint40"
        },
        {
          "indexed": false,
          "internalType": "uint256",
          "name": "makerStake",
          "type": "uint256"
        },
        {
          "indexed": false,
          "internalType": "uint256",
          "name": "takerStake",
          "type": "uint256"
        }
      ],
      "name": "BetCreated",
      "type": "event"
    },
    {
      "anonymous": false,
      "inputs": [
        {
          "indexed": true,
          "internalType": "address",
          "name": "winner",
          "type": "address"
        },
        {
          "indexed": false,
          "internalType": "uint256",
          "name": "amount",
          "type": "uint256"
        }
      ],
      "name": "BetResolved",
      "type": "event"
    },
    {
      "anonymous": false,
      "inputs": [
        {
          "indexed": false,
          "internalType": "uint64",
          "name": "version",
          "type": "uint64"
        }
      ],
      "name": "Initialized",
      "type": "event"
    },
    {
      "inputs": [],
      "name": "accept",
      "outputs": [],
      "stateMutability": "nonpayable",
      "type": "function"
    },
    {
      "inputs": [],
      "name": "balanceOfAsset",
      "outputs": [
        {
          "internalType": "uint256",
          "name": "",
          "type": "uint256"
        }
      ],
      "stateMutability": "view",
      "type": "function"
    },
    {
      "inputs": [],
      "name": "bet",
      "outputs": [
        {
          "components": [
            {
              "internalType": "address",
              "name": "maker",
              "type": "address"
            },
            {
              "internalType": "uint40",
              "name": "acceptBy",
              "type": "uint40"
            },
            {
              "internalType": "uint40",
              "name": "resolveBy",
              "type": "uint40"
            },
            {
              "internalType": "enum IBet.Status",
              "name": "status",
              "type": "uint8"
            },
            {
              "internalType": "address",
              "name": "taker",
              "type": "address"
            },
            {
              "internalType": "address",
              "name": "judge",
              "type": "address"
            },
            {
              "internalType": "address",
              "name": "asset",
              "type": "address"
            },
            {
              "internalType": "address",
              "name": "winner",
              "type": "address"
            },
            {
              "internalType": "uint256",
              "name": "makerStake",
              "type": "uint256"
            },
            {
              "internalType": "uint256",
              "name": "takerStake",
              "type": "uint256"
            }
          ],
          "internalType": "struct IBet.Bet",
          "name": "state",
          "type": "tuple"
        }
      ],
      "stateMutability": "view",
      "type": "function"
    },
    {
      "inputs": [],
      "name": "cancel",
      "outputs": [],
      "stateMutability": "nonpayable",
      "type": "function"
    },
    {
      "inputs": [
        {
          "components": [
            {
              "internalType": "address",
              "name": "maker",
              "type": "address"
            },
            {
              "internalType": "uint40",
              "name": "acceptBy",
              "type": "uint40"
            },
            {
              "internalType": "uint40",
              "name": "resolveBy",
              "type": "uint40"
            },
            {
              "internalType": "enum IBet.Status",
              "name": "status",
              "type": "uint8"
            },
            {
              "internalType": "address",
              "name": "taker",
              "type": "address"
            },
            {
              "internalType": "address",
              "name": "judge",
              "type": "address"
            },
            {
              "internalType": "address",
              "name": "asset",
              "type": "address"
            },
            {
              "internalType": "address",
              "name": "winner",
              "type": "address"
            },
            {
              "internalType": "uint256",
              "name": "makerStake",
              "type": "uint256"
            },
            {
              "internalType": "uint256",
              "name": "takerStake",
              "type": "uint256"
            }
          ],
          "internalType": "struct IBet.Bet",
          "name": "initialBet",
          "type": "tuple"
        },
        {
          "internalType": "address",
          "name": "pool",
          "type": "address"
        },
        {
          "internalType": "address",
          "name": "treasury",
          "type": "address"
        }
      ],
      "name": "initialize",
      "outputs": [],
      "stateMutability": "nonpayable",
      "type": "function"
    },
    {
      "inputs": [
        {
          "internalType": "address",
          "name": "winner",
          "type": "address"
        }
      ],
      "name": "resolve",
      "outputs": [],
      "stateMutability": "nonpayable",
      "type": "function"
    },
    {
      "inputs": [],
      "name": "status",
      "outputs": [
        {
          "internalType": "enum IBet.Status",
          "name": "",
          "type": "uint8"
        }
      ],
      "stateMutability": "view",
      "type": "function"
    }
  ],
  "bytecode": "0x6080604052348015600e575f5ffd5b5060156019565b60c9565b7ff0c57e16840df040f15088dc2f81fe391c3923bec73e23a9662efc9c229c6a00805468010000000000000000900460ff161560685760405163f92ee8a960e01b815260040160405180910390fd5b80546001600160401b039081161460c65780546001600160401b0319166001600160401b0390811782556040519081527fc7f505b2f371ae2175ee4913f4499e1f2633a7b5936321eed1cdaeb6115181d29060200160405180910390a15b50565b6116d8806100d65f395ff3fe608060405234801561000f575f5ffd5b506004361061007a575f3560e01c80632852b71c116100585780632852b71c146100c657806355ea6c47146100ce578063797bf343146100e1578063ea8a1af0146100f7575f5ffd5b8063079f55e31461007e57806311610c2514610093578063200d2ed2146100b1575b5f5ffd5b61009161008c3660046112db565b6100ff565b005b61009b6106d8565b6040516100a89190611360565b60405180910390f35b6100b9610823565b6040516100a89190611441565b6100916108f4565b6100916100dc36600461144f565b610b6e565b6100e9610f3b565b6040519081526020016100a8565b610091610fa5565b5f61010861122a565b805490915060ff600160401b820416159067ffffffffffffffff165f8115801561012f5750825b90505f8267ffffffffffffffff16600114801561014b5750303b155b905081158015610159575080155b156101775760405163f92ee8a960e01b815260040160405180910390fd5b845467ffffffffffffffff1916600117855583156101a157845460ff60401b1916600160401b1785555b600960208181527fa5834974e1759241ec52bd9f9e726a21f57f3cb855352070eb0675ce685a6a3e8054600160ff1991821681179092557fbdd13c3d71b4c1dd1a1982dda01644ca7b46c0aa96d270fd15c77110820dd20980548216831790557f50ff35c29a86854bfdf875d1f4dad0bcc2afa1731848be0cc942b2fd4cdbb3a980548216831790557ff162882f347bffeab9c5451b506d13fa1e84c4699b03e9a70bdff51d3c76f22380548216831790557f7227e49eb6e085d5ae7ae1ed784bf9329af247886ecbd05f71911c08a4f3d25f805482168317905573716b52795a72de3309d86971428e19843d6d9a815f9081527f92db28f9f3e7852c0cdac6b8d5296d8c80dab9704825d1e0fa35943c70732b1080549092169092179055906102cd908b018b61144f565b6001600160a01b0316815260208101919091526040015f205460ff16610305576040516282b42960e81b815260040160405180910390fd5b5f61031360208a018a61144f565b6001600160a01b0316148061033f57505f61033460a08a0160808b0161144f565b6001600160a01b0316145b8061036157505f61035660e08a0160c08b0161144f565b6001600160a01b0316145b8061038357505f61037860c08a0160a08b0161144f565b6001600160a01b0316145b156103a15760405163e6c4247b60e01b815260040160405180910390fd5b5f6103b260408a0160208b01611483565b9050428164ffffffffff161115806103e7575064ffffffffff81166103dd60608b0160408c01611483565b64ffffffffff1611155b156104055760405163b7d0949760e01b815260040160405180910390fd5b5f61041660808b0160608c016114aa565b60048111156104275761042761132c565b14610445576040516307a92f1960e51b815260040160405180910390fd5b885f6104518282611542565b5050600880546001600160a01b03808a166001600160a01b03199283161790925560078054928b169290911691909117905561049360e08a0160c08b0161144f565b6001600160a01b03166323b872dd6104ae60208c018c61144f565b6040516001600160e01b031960e084901b1681526001600160a01b0390911660048201523060248201526101008c013560448201526064016020604051808303815f875af1158015610502573d5f5f3e3d5ffd5b505050506040513d601f19601f82011682018060405250810190610526919061164d565b506001600160a01b038816156105c3576007546001600160a01b031663617ba03761055760e08c0160c08d0161144f565b6040516001600160e01b031960e084901b1681526001600160a01b0390911660048201526101008c013560248201523060448201525f60648201526084015f604051808303815f87803b1580156105ac575f5ffd5b505af11580156105be573d5f5f3e3d5ffd5b505050505b6105d360e08a0160c08b0161144f565b6001600160a01b03166105ec60a08b0160808c0161144f565b6001600160a01b031661060260208c018c61144f565b6001600160a01b03167f8dc5fa0e4fac3ee322f7740c523d7b69cbec4b6895fd492ef4912ba45b8ba52e61063c60408e0160208f01611483565b8d604001602081019061064f9190611483565b6040805164ffffffffff93841681529290911660208301526101008f0135908201526101208e0135606082015260800160405180910390a45083156106ce57845460ff60401b19168555604051600181527fc7f505b2f371ae2175ee4913f4499e1f2633a7b5936321eed1cdaeb6115181d29060200160405180910390a15b5050505050505050565b60408051610140810182525f80825260208201819052918101829052606081018290526080810182905260a0810182905260c0810182905260e08101829052610100810182905261012081019190915260408051610140810182525f80546001600160a01b038116835264ffffffffff600160a01b820481166020850152600160c81b820416938301939093529091606083019060ff600160f01b9091041660048111156107885761078861132c565b60048111156107995761079961132c565b815260018201546001600160a01b0390811660208301526002830154811660408301526003830154811660608301526004830154166080820152600582015460a082015260069091015460c09091015290506107f481611254565b8160600190600481111561080a5761080a61132c565b9081600481111561081d5761081d61132c565b90525090565b60408051610140810182525f80546001600160a01b038116835264ffffffffff600160a01b820481166020850152600160c81b82041693830193909352916108ef91908390606083019060ff600160f01b9091041660048111156108895761088961132c565b600481111561089a5761089a61132c565b815260018201546001600160a01b0390811660208301526002830154811660408301526003830154811660608301526004830154166080820152600582015460a082015260069091015460c090910152611254565b905090565b60408051610140810182525f80546001600160a01b038116835264ffffffffff600160a01b820481166020850152600160c81b82041693830193909352918290606083019060ff600160f01b9091041660048111156109555761095561132c565b60048111156109665761096661132c565b815260018201546001600160a01b0390811660208301526002830154811660408301526003830154811660608301526004830154166080820152600582015460a082015260069091015460c09091015290505f6109c282611254565b60048111156109d3576109d361132c565b146109f1576040516307a92f1960e51b815260040160405180910390fd5b80608001516001600160a01b0316336001600160a01b031614610a26576040516282b42960e81b815260040160405180910390fd5b60c08101516101208201516040516323b872dd60e01b815233600482015230602482015260448101919091526001600160a01b03909116906323b872dd906064016020604051808303815f875af1158015610a83573d5f5f3e3d5ffd5b505050506040513d601f19601f82011682018060405250810190610aa7919061164d565b506007546001600160a01b031615610b325760075460c082015161012083015160405163617ba03760e01b81526001600160a01b03928316600482015260248101919091523060448201525f606482015291169063617ba037906084015f604051808303815f87803b158015610b1b575f5ffd5b505af1158015610b2d573d5f5f3e3d5ffd5b505050505b5f805460ff60f01b1916600160f01b1781556040517ff6a659fe9c2ae0ca4af5c4aebfae05a84e00868374bcfff5bccaee0b77eae7a19190a150565b60408051610140810182525f80546001600160a01b038116835264ffffffffff600160a01b820481166020850152600160c81b82041693830193909352918290606083019060ff600160f01b909104166004811115610bcf57610bcf61132c565b6004811115610be057610be061132c565b815260018201546001600160a01b039081166020830152600283015481166040830152600383015481166060830152600483015481166080830152600583015460a08084019190915260069093015460c09092019190915290820151919250163314610c5e576040516282b42960e81b815260040160405180910390fd5b6001610c6982611254565b6004811115610c7a57610c7a61132c565b141580610c915750806040015164ffffffffff1642115b15610caf576040516307a92f1960e51b815260040160405180910390fd5b5f816101200151826101000151610cc6919061166c565b9050826001600160a01b03167f267080663d37ffe29159bb65a5b0fd5ef7a272464e69a52c77c0520592669c0d82604051610d0391815260200190565b60405180910390a26007546001600160a01b031615610d9c5760075460c0830151604051631a4ca37b60e21b81526001600160a01b039182166004820152602481018490523060448201529116906369328dec906064016020604051808303815f875af1158015610d76573d5f5f3e3d5ffd5b505050506040513d601f19601f82011682018060405250810190610d9a919061168b565b505b60c082015160405163a9059cbb60e01b81526001600160a01b038581166004830152602482018490529091169063a9059cbb906044016020604051808303815f875af1158015610dee573d5f5f3e3d5ffd5b505050506040513d601f19601f82011682018060405250810190610e12919061164d565b5060c08201516040516370a0823160e01b81523060048201525f916001600160a01b0316906370a0823190602401602060405180830381865afa158015610e5b573d5f5f3e3d5ffd5b505050506040513d601f19601f82011682018060405250810190610e7f919061168b565b90508015610f015760c083015160085460405163a9059cbb60e01b81526001600160a01b0391821660048201526024810184905291169063a9059cbb906044016020604051808303815f875af1158015610edb573d5f5f3e3d5ffd5b505050506040513d601f19601f82011682018060405250810190610eff919061164d565b505b600480546001600160a01b0319166001600160a01b0386161790555f80546002919060ff60f01b1916600160f01b83021790555050505050565b6003546040516370a0823160e01b81523060048201525f916001600160a01b0316906370a0823190602401602060405180830381865afa158015610f81573d5f5f3e3d5ffd5b505050506040513d601f19601f820116820180604052508101906108ef919061168b565b60408051610140810182525f80546001600160a01b038116835264ffffffffff600160a01b820481166020850152600160c81b82041693830193909352918290606083019060ff600160f01b9091041660048111156110065761100661132c565b60048111156110175761101761132c565b815260018201546001600160a01b0390811660208301526002808401548216604084015260038401548216606084015260048401549091166080830152600583015460a083015260069092015460c090910152909150816060015160048111156110835761108361132c565b106110a1576040516307a92f1960e51b815260040160405180910390fd5b80516001600160a01b0316331480156110cf57505f816060015160048111156110cc576110cc61132c565b14155b156110ed576040516307a92f1960e51b815260040160405180910390fd5b60c0810151815161010083015160405163a9059cbb60e01b81526001600160a01b039283166004820152602481019190915291169063a9059cbb906044016020604051808303815f875af1925050508015611165575060408051601f3d908101601f191682019092526111629181019061164d565b60015b1561116c57505b60c0810151608082015161012083015160405163a9059cbb60e01b81526001600160a01b039283166004820152602481019190915291169063a9059cbb906044016020604051808303815f875af19250505080156111e7575060408051601f3d908101601f191682019092526111e49181019061164d565b60015b156111ee57505b5f805460ff60f01b1916600360f01b1781556040517fa9c660d43fdb14d4f7f7226623a556967689f58ee0e7c1a3397257bb909454c99190a150565b5f807ff0c57e16840df040f15088dc2f81fe391c3923bec73e23a9662efc9c229c6a005b92915050565b60608101515f908181600481111561126e5761126e61132c565b1480156112855750826020015164ffffffffff1642115b806112b65750600181600481111561129f5761129f61132c565b1480156112b65750826040015164ffffffffff1642115b1561124e5750600492915050565b6001600160a01b03811681146112d8575f5ffd5b50565b5f5f5f8385036101808112156112ef575f5ffd5b6101408112156112fd575f5ffd5b50839250610140840135611310816112c4565b9150610160840135611321816112c4565b809150509250925092565b634e487b7160e01b5f52602160045260245ffd5b6005811061135c57634e487b7160e01b5f52602160045260245ffd5b9052565b81516001600160a01b031681526101408101602083015161138a602084018264ffffffffff169052565b5060408301516113a3604084018264ffffffffff169052565b5060608301516113b66060840182611340565b5060808301516113d160808401826001600160a01b03169052565b5060a08301516113ec60a08401826001600160a01b03169052565b5060c083015161140760c08401826001600160a01b03169052565b5060e083015161142260e08401826001600160a01b03169052565b5061010083015161010083015261012083015161012083015292915050565b6020810161124e8284611340565b5f6020828403121561145f575f5ffd5b813561146a816112c4565b9392505050565b64ffffffffff811681146112d8575f5ffd5b5f60208284031215611493575f5ffd5b813561146a81611471565b600581106112d8575f5ffd5b5f602082840312156114ba575f5ffd5b813561146a8161149e565b5f813561124e816112c4565b80546001600160a01b0319166001600160a01b0392909216919091179055565b5f813561124e81611471565b5f813561124e8161149e565b6005821061152557634e487b7160e01b5f52602160045260245ffd5b805460ff60f01b191660f09290921b60ff60f01b16919091179055565b61155461154e836114c5565b826114d1565b611589611563602084016114f1565b82805464ffffffffff60a01b191660a09290921b64ffffffffff60a01b16919091179055565b6115be611598604084016114f1565b82805464ffffffffff60c81b191660c89290921b64ffffffffff60c81b16919091179055565b6115d36115cd606084016114fd565b82611509565b6115eb6115e2608084016114c5565b600183016114d1565b6116036115fa60a084016114c5565b600283016114d1565b61161b61161260c084016114c5565b600383016114d1565b61163361162a60e084016114c5565b600483016114d1565b610100820135600582015561012090910135600690910155565b5f6020828403121561165d575f5ffd5b8151801515811461146a575f5ffd5b8082018082111561124e57634e487b7160e01b5f52601160045260245ffd5b5f6020828403121561169b575f5ffd5b505191905056fea264697066735822122050e7be5506ed3abb02e8fa7c35e9f27c3e3d6d46c4423444ac13d1a0fbfd3e6964736f6c634300081c0033",
  "linkReferences": {},
  "deployedLinkReferences": {},
  "immutableReferences": {},
  "inputSourceName": "project/src/Bet.sol",
  "buildInfoId": "solc-0_8_28-4a4cd0d9b8cc876401aa57c3dea6fab0f016d651"
}