{
  "_format": "hh3-artifact-1",
  "contractName": "Bet",
  "sourceName": "src/Bet.sol",
  "abi": [
    {
      "inputs": [],
      "stateMutability": "nonpayable",
      "type": "constructor"
    },
    {
      "inputs": [],
      "name": "InvalidAddress",
      "type": "error"
    },
    {
      "inputs": [],
      "name": "InvalidAmount",
      "type": "error"
    },
    {
      "inputs": [],
      "name": "InvalidInitialization",
      "type": "error"
    },
    {
      "inputs": [],
      "name": "InvalidStatus",
      "type": "error"
    },
    {
      "inputs": [],
      "name": "InvalidTimestamp",
      "type": "error"
    },
    {
      "inputs": [],
      "name": "NotInitializing",
      "type": "error"
    },
    {
      "inputs": [],
      "name": "Unauthorized",
      "type": "error"
    },
    {
      "anonymous": false,
      "inputs": [],
      "name": "BetAccepted",
      "type": "event"
    },
    {
      "anonymous": false,
      "inputs": [],
      "name": "BetCancelled",
      "type": "event"
    },
    {
      "anonymous": false,
      "inputs": [
        {
          "indexed": true,
          "internalType": "address",
          "name": "maker",
          "type": "address"
        },
        {
          "indexed": true,
          "internalType": "address",
          "name": "taker",
          "type": "address"
        },
        {
          "indexed": true,
          "internalType": "address",
          "name": "judge",
          "type": "address"
        },
        {
          "indexed": false,
          "internalType": "address",
          "name": "asset",
          "type": "address"
        },
        {
          "indexed": false,
          "internalType": "uint40",
          "name": "acceptBy",
          "type": "uint40"
        },
        {
          "indexed": false,
          "internalType": "uint40",
          "name": "resolveBy",
          "type": "uint40"
        },
        {
          "indexed": false,
          "internalType": "uint256",
          "name": "makerStake",
          "type": "uint256"
        },
        {
          "indexed": false,
          "internalType": "uint256",
          "name": "takerStake",
          "type": "uint256"
        },
        {
          "indexed": false,
          "internalType": "string",
          "name": "description",
          "type": "string"
        }
      ],
      "name": "BetCreated",
      "type": "event"
    },
    {
      "anonymous": false,
      "inputs": [
        {
          "indexed": true,
          "internalType": "address",
          "name": "winner",
          "type": "address"
        },
        {
          "indexed": false,
          "internalType": "uint256",
          "name": "amount",
          "type": "uint256"
        }
      ],
      "name": "BetResolved",
      "type": "event"
    },
    {
      "anonymous": false,
      "inputs": [
        {
          "indexed": false,
          "internalType": "uint64",
          "name": "version",
          "type": "uint64"
        }
      ],
      "name": "Initialized",
      "type": "event"
    },
    {
      "inputs": [],
      "name": "accept",
      "outputs": [],
      "stateMutability": "nonpayable",
      "type": "function"
    },
    {
      "inputs": [],
      "name": "bet",
      "outputs": [
        {
          "components": [
            {
              "internalType": "address",
              "name": "maker",
              "type": "address"
            },
            {
              "internalType": "uint40",
              "name": "acceptBy",
              "type": "uint40"
            },
            {
              "internalType": "uint40",
              "name": "resolveBy",
              "type": "uint40"
            },
            {
              "internalType": "enum IBet.Status",
              "name": "status",
              "type": "uint8"
            },
            {
              "internalType": "address",
              "name": "taker",
              "type": "address"
            },
            {
              "internalType": "address",
              "name": "judge",
              "type": "address"
            },
            {
              "internalType": "address",
              "name": "asset",
              "type": "address"
            },
            {
              "internalType": "address",
              "name": "winner",
              "type": "address"
            },
            {
              "internalType": "uint256",
              "name": "makerStake",
              "type": "uint256"
            },
            {
              "internalType": "uint256",
              "name": "takerStake",
              "type": "uint256"
            }
          ],
          "internalType": "struct IBet.Bet",
          "name": "state",
          "type": "tuple"
        }
      ],
      "stateMutability": "view",
      "type": "function"
    },
    {
      "inputs": [],
      "name": "cancel",
      "outputs": [],
      "stateMutability": "nonpayable",
      "type": "function"
    },
    {
      "inputs": [
        {
          "components": [
            {
              "internalType": "address",
              "name": "maker",
              "type": "address"
            },
            {
              "internalType": "uint40",
              "name": "acceptBy",
              "type": "uint40"
            },
            {
              "internalType": "uint40",
              "name": "resolveBy",
              "type": "uint40"
            },
            {
              "internalType": "enum IBet.Status",
              "name": "status",
              "type": "uint8"
            },
            {
              "internalType": "address",
              "name": "taker",
              "type": "address"
            },
            {
              "internalType": "address",
              "name": "judge",
              "type": "address"
            },
            {
              "internalType": "address",
              "name": "asset",
              "type": "address"
            },
            {
              "internalType": "address",
              "name": "winner",
              "type": "address"
            },
            {
              "internalType": "uint256",
              "name": "makerStake",
              "type": "uint256"
            },
            {
              "internalType": "uint256",
              "name": "takerStake",
              "type": "uint256"
            }
          ],
          "internalType": "struct IBet.Bet",
          "name": "initialBet",
          "type": "tuple"
        },
        {
          "internalType": "string",
          "name": "description",
          "type": "string"
        },
        {
          "internalType": "address",
          "name": "pool",
          "type": "address"
        },
        {
          "internalType": "address",
          "name": "treasury",
          "type": "address"
        }
      ],
      "name": "initialize",
      "outputs": [],
      "stateMutability": "nonpayable",
      "type": "function"
    },
    {
      "inputs": [
        {
          "internalType": "address",
          "name": "winner",
          "type": "address"
        }
      ],
      "name": "resolve",
      "outputs": [],
      "stateMutability": "nonpayable",
      "type": "function"
    },
    {
      "inputs": [],
      "name": "status",
      "outputs": [
        {
          "internalType": "enum IBet.Status",
          "name": "",
          "type": "uint8"
        }
      ],
      "stateMutability": "view",
      "type": "function"
    }
  ],
  "bytecode": "0x6080806040523460aa575f5160206115935f395f51905f525460ff8160401c16609b576002600160401b03196001600160401b038216016049575b6040516114e490816100af8239f35b6001600160401b0319166001600160401b039081175f5160206115935f395f51905f525581527fc7f505b2f371ae2175ee4913f4499e1f2633a7b5936321eed1cdaeb6115181d290602090a15f80603a565b63f92ee8a960e01b5f5260045ffd5b5f80fdfe6080806040526004361015610012575f80fd5b5f905f3560e01c90816311610c251461115457508063200d2ed2146111235780632852b71c14610f6a5780633437666a1461080257806355ea6c47146104015763ea8a1af014610060575f80fd5b346103fe57806003193601126103fe576100786112cc565b60608101805160058110156103ea5760021161009d576307a92f1960e51b8352600483fd5b81516001600160a01b0316331490816103c2575b506103b357610100810151610120820151600754909291906001600160a01b0316806101f4575b5060c082018051835160405163a9059cbb60e01b81526001600160a01b039182166004820152602481019490945261016a95602095909490939290918691839160449183918c91165af16101d9575b505160809091015160405163a9059cbb60e01b81526001600160a01b03918216600482015260248101939093529193849291909116908290869082906044820190565b03925af16101ac575b50805460ff60f01b1916600360f01b1781557fa9c660d43fdb14d4f7f7226623a556967689f58ee0e7c1a3397257bb909454c98180a180f35b6101cd9060203d6020116101d2575b6101c5818361129e565b81019061135e565b610173565b503d6101bb565b6101ef90853d87116101d2576101c5818361129e565b610127565b60c08301805160405163cff027d960e01b81526001600160a01b0390911660048201529492918691602087602481855afa96871561037b576024976020918591610386575b506040516370a0823160e01b815230600482015298899182906001600160a01b03165afa96871561037b578397610341575b5051604051631a4ca37b60e21b81526001600160a01b039091166004820152602481018790523060448201529160209183916064918391905af1801561033657610303575b50838110156102fc57925b8381039081116102e8579161016a93916020938082105f146102e157505b9350916100d8565b90506102d9565b634e487b7160e01b85526011600452602485fd5b50826102bb565b6020813d60201161032e575b8161031c6020938361129e565b8101031261032a57516102b0565b5f80fd5b3d915061030f565b6040513d88823e3d90fd5b925095506020823d602011610373575b8161035e6020938361129e565b8101031261032a57905194869190602061026b565b3d9150610351565b6040513d85823e3d90fd5b6103a69150823d84116103ac575b61039e818361129e565b8101906113f6565b5f610239565b503d610394565b6307a92f1960e51b8252600482fd5b90505160058110156103d65715155f6100b1565b634e487b7160e01b83526021600452602483fd5b634e487b7160e01b84526021600452602484fd5b80fd5b50346103fe5760203660031901126103fe576004356001600160a01b038116908181036107fe576104306112cc565b60a08101519091906001600160a01b031633036107f05761045082611424565b60058110156107dc576001148015906107c8575b6107b95761010082015161012083015181018091116102e85780847f267080663d37ffe29159bb65a5b0fd5ef7a272464e69a52c77c0520592669c0d6020604051848152a26007546001600160a01b0316908161063b575b505060c092909201805160405163a9059cbb60e01b81526001600160a01b03938416600482015260248101949094529091602091849116818781604481015b03925af19182156106135760249261061e575b5080516040516370a0823160e01b81523060048201529260209184919082906001600160a01b03165afa9182156106135784926105df575b5081610577575b5050600480546001600160a01b031916919091179055805460ff60f01b1916600160f11b17815580f35b5160085460405163a9059cbb60e01b81526001600160a01b0391821660048201526024810193909352602091839160449183918891165af1801561037b576105c0575b8061054d565b6105d89060203d6020116101d2576101c5818361129e565b505f6105ba565b9091506020813d60201161060b575b816105fb6020938361129e565b8101031261032a5751905f610546565b3d91506105ee565b6040513d86823e3d90fd5b6106369060203d6020116101d2576101c5818361129e565b61050e565b60c08501805160405163cff027d960e01b81526001600160a01b0390911660048201529293509190602082602481875afa918215610791576024926020918a9161079c575b506040516370a0823160e01b815230600482015293849182906001600160a01b03165afa91821561079157889261075b575b50610703936020929182811015610754575b9351604051631a4ca37b60e21b81526001600160a01b0390911660048201526024810192909252306044830152909384919082908a9082906064820190565b03925af18015610336576104fb9460209360c092610727575b5094508192506104bc565b61074690853d871161074d575b61073e818361129e565b810190611415565b505f61071c565b503d610734565b50816106c4565b91506020823d602011610789575b816107766020938361129e565b8101031261032a579051906107036106b2565b3d9150610769565b6040513d8a823e3d90fd5b6107b39150823d84116103ac5761039e818361129e565b5f610680565b6307a92f1960e51b8452600484fd5b5064ffffffffff6040830151164211610464565b634e487b7160e01b85526021600452602485fd5b6282b42960e81b8452600484fd5b8280fd5b50346103fe5736600319016101a08112610f6657610140136103fe576101443567ffffffffffffffff8111610f665736602382011215610f665780600401359067ffffffffffffffff82116107fe5736602483830101116107fe57610164356001600160a01b0381169290839003610f6257610184356001600160a01b0381169190829003610f5e575f51602061148f5f395f51905f52549360ff8560401c16159467ffffffffffffffff811680159081610f56575b6001149081610f4c575b159081610f43575b50610f345767ffffffffffffffff1981166001175f51602061148f5f395f51905f525585610f08575b5073a7860e99e3ce0752d1ac53b974e309fff80277c686526009602081815260408089208054600160ff19918216811790925573d37abf24c89bb36db9363da3a304a254488e1e028b52848452828b20805482168317905573534631bcf33bdb069fb20a93d2fdb9e4d4dd42cf8b52848452828b208054821683179055732aec130ec5156132fbb348292a90cb2f3de8a7828b52848452828b20805482168317905573179a862703a4adfb29896552df9e307980d192858b52848452828b20805482168317905573716b52795a72de3309d86971428e19843d6d9a818b5293909252882080549092161790556001600160a01b036109ef611376565b168652600960205260ff60408720541615610efa576001600160a01b03610a14611376565b16158015610ee2575b8015610eca575b8015610eb2575b610ea35764ffffffffff610a3d6113ce565b1642811190811591610e8a575b50610e7b57606435600581108015610e545781610e6c576001600160a01b03610a71611376565b89546001600160a01b0319169116178855610a8a6113ce565b885464ffffffffff60c81b610a9d6113e2565b60c81b169164ffffffffff60a01b9060a01b169069ffffffffffffffffffff60a01b19161717885515610e5857865460ff60f01b191660f09190911b60ff60f01b161786556001600160a01b03610af261138c565b166001600160601b0360a01b600154161760015560018060a01b03610b156113b8565b166001600160601b0360a01b600254161760025560018060a01b03610b386113a2565b166001600160601b0360a01b600354161760035560e43560018060a01b03811690818103610e5457506001600160601b0360a01b6004541617600455856101043591826005556101243594856006556001600160601b0360a01b6008541617600855806001600160601b0360a01b6007541617600755610c0960208460018060a01b03610bc36113a2565b16610bcc611376565b6040516323b872dd60e01b81526001600160a01b039091166004820152306024820152604481019290925290928391908290879082906064820190565b03925af1801561037b57610e37575b5080610d41575b50507f3a4e62063ca69177da15ef5b1c003aeeaa50e4ce5d6ab7fca6f3c24fe480e40e9060e0610c4d611376565b94610c5661138c565b96856024610c626113b8565b92610c6b6113a2565b94610c746113ce565b9764ffffffffff610c836113e2565b816040519b8c9a60018060a01b03168b521660208a01521660408801526060870152608086015260c060a08601528260c0860152018484013781860183018a90526001600160a01b03908116978116961694601f01601f19168101030190a4610ce95780f35b68ff0000000000000000195f51602061148f5f395f51905f5254165f51602061148f5f395f51905f52557fc7f505b2f371ae2175ee4913f4499e1f2633a7b5936321eed1cdaeb6115181d2602060405160018152a180f35b60209060446001600160a01b03610d566113a2565b1691604051948593849263095ea7b360e01b845260048401525f1960248401525af18015610e2c57610e0f575b5060075486906001600160a01b0316610d9a6113a2565b90803b156107fe5760405163617ba03760e01b81526001600160a01b03929092166004830152602482018490523060448301525f606483015282908290608490829084905af18015610e045715610c1f5781610df59161129e565b610e0057855f610c1f565b8580fd5b6040513d84823e3d90fd5b610e279060203d6020116101d2576101c5818361129e565b610d83565b6040513d89823e3d90fd5b610e4f9060203d6020116101d2576101c5818361129e565b610c18565b8780fd5b634e487b7160e01b87526021600452602487fd5b6307a92f1960e51b8852600488fd5b63b7d0949760e01b8652600486fd5b905064ffffffffff610e9a6113e2565b1611155f610a4a565b63e6c4247b60e01b8652600486fd5b506001600160a01b03610ec36113b8565b1615610a2b565b506001600160a01b03610edb6113a2565b1615610a24565b506001600160a01b03610ef361138c565b1615610a1d565b6282b42960e81b8652600486fd5b68ffffffffffffffffff191668010000000000000001175f51602061148f5f395f51905f52555f6108f3565b63f92ee8a960e01b8752600487fd5b9050155f6108ca565b303b1591506108c2565b8791506108b8565b8480fd5b8380fd5b5080fd5b503461032a575f36600319011261032a57610f836112cc565b610f8c81611424565b600581101561110f576111005760808101516001600160a01b031633036110f25760c08101805161012090920180516040516323b872dd60e01b815233600482015230602482015260448101919091529192909190602090829060649082905f906001600160a01b03165af180156110ca576110d5575b506007546001600160a01b03169182611050575b835460ff60f01b1916600160f01b178455837ff6a659fe9c2ae0ca4af5c4aebfae05a84e00868374bcfff5bccaee0b77eae7a18180a180f35b519051906001600160a01b0316823b1561032a5760405163617ba03760e01b81526001600160a01b0391909116600482015260248101919091523060448201525f6064820181905290918290608490829084905af180156110ca576110b7575b8080611017565b6110c391505f9061129e565b5f5f6110b0565b6040513d5f823e3d90fd5b6110ed9060203d6020116101d2576101c5818361129e565b611003565b6282b42960e81b5f5260045ffd5b6307a92f1960e51b5f5260045ffd5b634e487b7160e01b5f52602160045260245ffd5b3461032a575f36600319011261032a5760206111456111406112cc565b611424565b6111526040518092611260565bf35b3461032a575f36600319011261032a57610120816111725f9361126d565b8281528260208201528260408201528260608201528260808201528260a08201528260c08201528260e08201528261010082015201526101406111b36112cc565b6101206111bf82611424565b916111ce6060820193846112c0565b61120e6040519360018060a01b03835116855264ffffffffff602084015116602086015264ffffffffff6040840151166040860152516060850190611260565b6080818101516001600160a01b039081169185019190915260a08281015182169085015260c08083015182169085015260e0808301519091169084015261010080820151908401520151610120820152f35b90600582101561110f5752565b610140810190811067ffffffffffffffff82111761128a57604052565b634e487b7160e01b5f52604160045260245ffd5b90601f8019910116810190811067ffffffffffffffff82111761128a57604052565b600582101561110f5752565b604051906112d98261126d565b8161131960ff5f5460018060a01b038116845264ffffffffff8160a01c16602085015264ffffffffff8160c81c16604085015260f01c16606083016112c0565b6001546001600160a01b039081166080830152600254811660a0830152600354811660c08301526004541660e082015260055461010082015260065461012090910152565b9081602091031261032a5751801515810361032a5790565b6004356001600160a01b038116810361032a5790565b6084356001600160a01b038116810361032a5790565b60c4356001600160a01b038116810361032a5790565b60a4356001600160a01b038116810361032a5790565b60243564ffffffffff8116810361032a5790565b60443564ffffffffff8116810361032a5790565b9081602091031261032a57516001600160a01b038116810361032a5790565b9081602091031261032a575190565b606081015190600582101561110f5781159081611479575b8115611451575b5061144b5790565b50600490565b60018314915081611464575b505f611443565b64ffffffffff9150604001511642115f61145d565b602081015164ffffffffff164211915061143c56fef0c57e16840df040f15088dc2f81fe391c3923bec73e23a9662efc9c229c6a00a2646970667358221220f123d3edea124129237ea66fdcbaf3f3bab2a7d71af6229ee331550ee2a948cd64736f6c634300081c0033f0c57e16840df040f15088dc2f81fe391c3923bec73e23a9662efc9c229c6a00",
  "linkReferences": {},
  "deployedLinkReferences": {},
  "immutableReferences": {},
  "inputSourceName": "project/src/Bet.sol",
  "buildInfoId": "solc-0_8_28-96516910e1aa271b2c369fc91804cec636fa1043"
}