{
  "_format": "hh3-artifact-1",
  "contractName": "Bet",
  "sourceName": "src/Bet.sol",
  "abi": [
    {
      "inputs": [],
      "stateMutability": "nonpayable",
      "type": "constructor"
    },
    {
      "inputs": [],
      "name": "InvalidAddress",
      "type": "error"
    },
    {
      "inputs": [],
      "name": "InvalidAmount",
      "type": "error"
    },
    {
      "inputs": [],
      "name": "InvalidInitialization",
      "type": "error"
    },
    {
      "inputs": [],
      "name": "InvalidStatus",
      "type": "error"
    },
    {
      "inputs": [],
      "name": "InvalidTimestamp",
      "type": "error"
    },
    {
      "inputs": [],
      "name": "NotInitializing",
      "type": "error"
    },
    {
      "inputs": [],
      "name": "Unauthorized",
      "type": "error"
    },
    {
      "anonymous": false,
      "inputs": [],
      "name": "BetAccepted",
      "type": "event"
    },
    {
      "anonymous": false,
      "inputs": [],
      "name": "BetCancelled",
      "type": "event"
    },
    {
      "anonymous": false,
      "inputs": [
        {
          "indexed": true,
          "internalType": "address",
          "name": "maker",
          "type": "address"
        },
        {
          "indexed": true,
          "internalType": "address",
          "name": "taker",
          "type": "address"
        },
        {
          "indexed": true,
          "internalType": "address",
          "name": "asset",
          "type": "address"
        },
        {
          "indexed": false,
          "internalType": "uint40",
          "name": "acceptBy",
          "type": "uint40"
        },
        {
          "indexed": false,
          "internalType": "uint40",
          "name": "resolveBy",
          "type": "uint40"
        },
        {
          "indexed": false,
          "internalType": "uint256",
          "name": "makerStake",
          "type": "uint256"
        },
        {
          "indexed": false,
          "internalType": "uint256",
          "name": "takerStake",
          "type": "uint256"
        }
      ],
      "name": "BetCreated",
      "type": "event"
    },
    {
      "anonymous": false,
      "inputs": [
        {
          "indexed": true,
          "internalType": "address",
          "name": "winner",
          "type": "address"
        },
        {
          "indexed": false,
          "internalType": "uint256",
          "name": "amount",
          "type": "uint256"
        }
      ],
      "name": "BetResolved",
      "type": "event"
    },
    {
      "anonymous": false,
      "inputs": [
        {
          "indexed": false,
          "internalType": "uint64",
          "name": "version",
          "type": "uint64"
        }
      ],
      "name": "Initialized",
      "type": "event"
    },
    {
      "inputs": [],
      "name": "accept",
      "outputs": [],
      "stateMutability": "nonpayable",
      "type": "function"
    },
    {
      "inputs": [],
      "name": "balanceOfAsset",
      "outputs": [
        {
          "internalType": "uint256",
          "name": "",
          "type": "uint256"
        }
      ],
      "stateMutability": "view",
      "type": "function"
    },
    {
      "inputs": [],
      "name": "bet",
      "outputs": [
        {
          "components": [
            {
              "internalType": "address",
              "name": "maker",
              "type": "address"
            },
            {
              "internalType": "uint40",
              "name": "acceptBy",
              "type": "uint40"
            },
            {
              "internalType": "uint40",
              "name": "resolveBy",
              "type": "uint40"
            },
            {
              "internalType": "enum IBet.Status",
              "name": "status",
              "type": "uint8"
            },
            {
              "internalType": "address",
              "name": "taker",
              "type": "address"
            },
            {
              "internalType": "address",
              "name": "judge",
              "type": "address"
            },
            {
              "internalType": "address",
              "name": "asset",
              "type": "address"
            },
            {
              "internalType": "address",
              "name": "winner",
              "type": "address"
            },
            {
              "internalType": "uint256",
              "name": "makerStake",
              "type": "uint256"
            },
            {
              "internalType": "uint256",
              "name": "takerStake",
              "type": "uint256"
            }
          ],
          "internalType": "struct IBet.Bet",
          "name": "state",
          "type": "tuple"
        }
      ],
      "stateMutability": "view",
      "type": "function"
    },
    {
      "inputs": [],
      "name": "cancel",
      "outputs": [],
      "stateMutability": "nonpayable",
      "type": "function"
    },
    {
      "inputs": [
        {
          "components": [
            {
              "internalType": "address",
              "name": "maker",
              "type": "address"
            },
            {
              "internalType": "uint40",
              "name": "acceptBy",
              "type": "uint40"
            },
            {
              "internalType": "uint40",
              "name": "resolveBy",
              "type": "uint40"
            },
            {
              "internalType": "enum IBet.Status",
              "name": "status",
              "type": "uint8"
            },
            {
              "internalType": "address",
              "name": "taker",
              "type": "address"
            },
            {
              "internalType": "address",
              "name": "judge",
              "type": "address"
            },
            {
              "internalType": "address",
              "name": "asset",
              "type": "address"
            },
            {
              "internalType": "address",
              "name": "winner",
              "type": "address"
            },
            {
              "internalType": "uint256",
              "name": "makerStake",
              "type": "uint256"
            },
            {
              "internalType": "uint256",
              "name": "takerStake",
              "type": "uint256"
            }
          ],
          "internalType": "struct IBet.Bet",
          "name": "initialBet",
          "type": "tuple"
        },
        {
          "internalType": "address",
          "name": "pool",
          "type": "address"
        },
        {
          "internalType": "address",
          "name": "treasury",
          "type": "address"
        }
      ],
      "name": "initialize",
      "outputs": [],
      "stateMutability": "nonpayable",
      "type": "function"
    },
    {
      "inputs": [
        {
          "internalType": "address",
          "name": "winner",
          "type": "address"
        }
      ],
      "name": "resolve",
      "outputs": [],
      "stateMutability": "nonpayable",
      "type": "function"
    },
    {
      "inputs": [],
      "name": "status",
      "outputs": [
        {
          "internalType": "enum IBet.Status",
          "name": "",
          "type": "uint8"
        }
      ],
      "stateMutability": "view",
      "type": "function"
    }
  ],
  "bytecode": "0x6080604052348015600e575f5ffd5b5060156019565b60c9565b7ff0c57e16840df040f15088dc2f81fe391c3923bec73e23a9662efc9c229c6a00805468010000000000000000900460ff161560685760405163f92ee8a960e01b815260040160405180910390fd5b80546001600160401b039081161460c65780546001600160401b0319166001600160401b0390811782556040519081527fc7f505b2f371ae2175ee4913f4499e1f2633a7b5936321eed1cdaeb6115181d29060200160405180910390a15b50565b611a1d806100d65f395ff3fe608060405234801561000f575f5ffd5b506004361061007a575f3560e01c80632852b71c116100585780632852b71c146100c657806355ea6c47146100ce578063797bf343146100e1578063ea8a1af0146100f7575f5ffd5b8063079f55e31461007e57806311610c2514610093578063200d2ed2146100b1575b5f5ffd5b61009161008c3660046115f1565b6100ff565b005b61009b61075b565b6040516100a89190611676565b60405180910390f35b6100b96108a6565b6040516100a89190611757565b610091610977565b6100916100dc366004611765565b610bf1565b6100e96110a9565b6040519081526020016100a8565b610091611113565b5f610108611529565b805490915060ff600160401b820416159067ffffffffffffffff165f8115801561012f5750825b90505f8267ffffffffffffffff16600114801561014b5750303b155b905081158015610159575080155b156101775760405163f92ee8a960e01b815260040160405180910390fd5b845467ffffffffffffffff1916600117855583156101a157845460ff60401b1916600160401b1785555b600960208181527fa5834974e1759241ec52bd9f9e726a21f57f3cb855352070eb0675ce685a6a3e8054600160ff1991821681179092557fbdd13c3d71b4c1dd1a1982dda01644ca7b46c0aa96d270fd15c77110820dd20980548216831790557f50ff35c29a86854bfdf875d1f4dad0bcc2afa1731848be0cc942b2fd4cdbb3a980548216831790557ff162882f347bffeab9c5451b506d13fa1e84c4699b03e9a70bdff51d3c76f22380548216831790557f7227e49eb6e085d5ae7ae1ed784bf9329af247886ecbd05f71911c08a4f3d25f805482168317905573716b52795a72de3309d86971428e19843d6d9a815f9081527f92db28f9f3e7852c0cdac6b8d5296d8c80dab9704825d1e0fa35943c70732b1080549092169092179055906102cd908b018b611765565b6001600160a01b0316815260208101919091526040015f205460ff16610305576040516282b42960e81b815260040160405180910390fd5b5f61031360208a018a611765565b6001600160a01b0316148061033f57505f61033460a08a0160808b01611765565b6001600160a01b0316145b8061036157505f61035660e08a0160c08b01611765565b6001600160a01b0316145b8061038357505f61037860c08a0160a08b01611765565b6001600160a01b0316145b156103a15760405163e6c4247b60e01b815260040160405180910390fd5b5f6103b260408a0160208b01611792565b9050428164ffffffffff161115806103e7575064ffffffffff81166103dd60608b0160408c01611792565b64ffffffffff1611155b156104055760405163b7d0949760e01b815260040160405180910390fd5b5f61041660808b0160608c016117b9565b600481111561042757610427611642565b14610445576040516307a92f1960e51b815260040160405180910390fd5b885f6104518282611851565b5050600880546001600160a01b03808a166001600160a01b03199283161790925560078054928b169290911691909117905561049360e08a0160c08b01611765565b6001600160a01b03166323b872dd6104ae60208c018c611765565b6040516001600160e01b031960e084901b1681526001600160a01b0390911660048201523060248201526101008c013560448201526064016020604051808303815f875af1158015610502573d5f5f3e3d5ffd5b505050506040513d601f19601f82011682018060405250810190610526919061195c565b506001600160a01b038816156106465761054660e08a0160c08b01611765565b60405163095ea7b360e01b81526001600160a01b038a811660048301525f196024830152919091169063095ea7b3906044016020604051808303815f875af1158015610594573d5f5f3e3d5ffd5b505050506040513d601f19601f820116820180604052508101906105b8919061195c565b506007546001600160a01b031663617ba0376105da60e08c0160c08d01611765565b6040516001600160e01b031960e084901b1681526001600160a01b0390911660048201526101008c013560248201523060448201525f60648201526084015f604051808303815f87803b15801561062f575f5ffd5b505af1158015610641573d5f5f3e3d5ffd5b505050505b61065660e08a0160c08b01611765565b6001600160a01b031661066f60a08b0160808c01611765565b6001600160a01b031661068560208c018c611765565b6001600160a01b03167f8dc5fa0e4fac3ee322f7740c523d7b69cbec4b6895fd492ef4912ba45b8ba52e6106bf60408e0160208f01611792565b8d60400160208101906106d29190611792565b6040805164ffffffffff93841681529290911660208301526101008f0135908201526101208e0135606082015260800160405180910390a450831561075157845460ff60401b19168555604051600181527fc7f505b2f371ae2175ee4913f4499e1f2633a7b5936321eed1cdaeb6115181d29060200160405180910390a15b5050505050505050565b60408051610140810182525f80825260208201819052918101829052606081018290526080810182905260a0810182905260c0810182905260e08101829052610100810182905261012081019190915260408051610140810182525f80546001600160a01b038116835264ffffffffff600160a01b820481166020850152600160c81b820416938301939093529091606083019060ff600160f01b90910416600481111561080b5761080b611642565b600481111561081c5761081c611642565b815260018201546001600160a01b0390811660208301526002830154811660408301526003830154811660608301526004830154166080820152600582015460a082015260069091015460c090910152905061087781611553565b8160600190600481111561088d5761088d611642565b908160048111156108a0576108a0611642565b90525090565b60408051610140810182525f80546001600160a01b038116835264ffffffffff600160a01b820481166020850152600160c81b820416938301939093529161097291908390606083019060ff600160f01b90910416600481111561090c5761090c611642565b600481111561091d5761091d611642565b815260018201546001600160a01b0390811660208301526002830154811660408301526003830154811660608301526004830154166080820152600582015460a082015260069091015460c090910152611553565b905090565b60408051610140810182525f80546001600160a01b038116835264ffffffffff600160a01b820481166020850152600160c81b82041693830193909352918290606083019060ff600160f01b9091041660048111156109d8576109d8611642565b60048111156109e9576109e9611642565b815260018201546001600160a01b0390811660208301526002830154811660408301526003830154811660608301526004830154166080820152600582015460a082015260069091015460c09091015290505f610a4582611553565b6004811115610a5657610a56611642565b14610a74576040516307a92f1960e51b815260040160405180910390fd5b80608001516001600160a01b0316336001600160a01b031614610aa9576040516282b42960e81b815260040160405180910390fd5b60c08101516101208201516040516323b872dd60e01b815233600482015230602482015260448101919091526001600160a01b03909116906323b872dd906064016020604051808303815f875af1158015610b06573d5f5f3e3d5ffd5b505050506040513d601f19601f82011682018060405250810190610b2a919061195c565b506007546001600160a01b031615610bb55760075460c082015161012083015160405163617ba03760e01b81526001600160a01b03928316600482015260248101919091523060448201525f606482015291169063617ba037906084015f604051808303815f87803b158015610b9e575f5ffd5b505af1158015610bb0573d5f5f3e3d5ffd5b505050505b5f805460ff60f01b1916600160f01b1781556040517ff6a659fe9c2ae0ca4af5c4aebfae05a84e00868374bcfff5bccaee0b77eae7a19190a150565b60408051610140810182525f80546001600160a01b038116835264ffffffffff600160a01b820481166020850152600160c81b82041693830193909352918290606083019060ff600160f01b909104166004811115610c5257610c52611642565b6004811115610c6357610c63611642565b815260018201546001600160a01b039081166020830152600283015481166040830152600383015481166060830152600483015481166080830152600583015460a08084019190915260069093015460c09092019190915290820151919250163314610ce1576040516282b42960e81b815260040160405180910390fd5b6001610cec82611553565b6004811115610cfd57610cfd611642565b141580610d145750806040015164ffffffffff1642115b15610d32576040516307a92f1960e51b815260040160405180910390fd5b5f816101200151826101000151610d49919061198f565b9050826001600160a01b03167f267080663d37ffe29159bb65a5b0fd5ef7a272464e69a52c77c0520592669c0d82604051610d8691815260200190565b60405180910390a26007546001600160a01b031615610f0a5760075460c083015160405163cff027d960e01b81526001600160a01b0391821660048201525f92919091169063cff027d990602401602060405180830381865afa158015610def573d5f5f3e3d5ffd5b505050506040513d601f19601f82011682018060405250810190610e1391906119a2565b6040516370a0823160e01b81523060048201526001600160a01b0391909116906370a0823190602401602060405180830381865afa158015610e57573d5f5f3e3d5ffd5b505050506040513d601f19601f82011682018060405250810190610e7b91906119bd565b9050610e8782826115c3565b60075460c0850151604051631a4ca37b60e21b81526001600160a01b0391821660048201526024810185905230604482015292945016906369328dec906064016020604051808303815f875af1158015610ee3573d5f5f3e3d5ffd5b505050506040513d601f19601f82011682018060405250810190610f0791906119bd565b50505b60c082015160405163a9059cbb60e01b81526001600160a01b038581166004830152602482018490529091169063a9059cbb906044016020604051808303815f875af1158015610f5c573d5f5f3e3d5ffd5b505050506040513d601f19601f82011682018060405250810190610f80919061195c565b5060c08201516040516370a0823160e01b81523060048201525f916001600160a01b0316906370a0823190602401602060405180830381865afa158015610fc9573d5f5f3e3d5ffd5b505050506040513d601f19601f82011682018060405250810190610fed91906119bd565b9050801561106f5760c083015160085460405163a9059cbb60e01b81526001600160a01b0391821660048201526024810184905291169063a9059cbb906044016020604051808303815f875af1158015611049573d5f5f3e3d5ffd5b505050506040513d601f19601f8201168201806040525081019061106d919061195c565b505b600480546001600160a01b0319166001600160a01b0386161790555f80546002919060ff60f01b1916600160f01b83021790555050505050565b6003546040516370a0823160e01b81523060048201525f916001600160a01b0316906370a0823190602401602060405180830381865afa1580156110ef573d5f5f3e3d5ffd5b505050506040513d601f19601f8201168201806040525081019061097291906119bd565b60408051610140810182525f80546001600160a01b038116835264ffffffffff600160a01b820481166020850152600160c81b82041693830193909352918290606083019060ff600160f01b90910416600481111561117457611174611642565b600481111561118557611185611642565b815260018201546001600160a01b0390811660208301526002808401548216604084015260038401548216606084015260048401549091166080830152600583015460a083015260069092015460c090910152909150816060015160048111156111f1576111f1611642565b1061120f576040516307a92f1960e51b815260040160405180910390fd5b80516001600160a01b03163314801561123d57505f8160600151600481111561123a5761123a611642565b14155b1561125b576040516307a92f1960e51b815260040160405180910390fd5b6101008101516101208201516007546001600160a01b0316156113f85760075460c084015160405163cff027d960e01b81526001600160a01b0391821660048201525f92919091169063cff027d990602401602060405180830381865afa1580156112c8573d5f5f3e3d5ffd5b505050506040513d601f19601f820116820180604052508101906112ec91906119a2565b6040516370a0823160e01b81523060048201526001600160a01b0391909116906370a0823190602401602060405180830381865afa158015611330573d5f5f3e3d5ffd5b505050506040513d601f19601f8201168201806040525081019061135491906119bd565b60075460c0860151604051631a4ca37b60e21b81526001600160a01b0391821660048201526024810184905230604482015292935016906369328dec906064016020604051808303815f875af11580156113b0573d5f5f3e3d5ffd5b505050506040513d601f19601f820116820180604052508101906113d491906119bd565b506113df83826115c3565b92506113f4826113ef85846119d4565b6115c3565b9150505b60c0830151835160405163a9059cbb60e01b81526001600160a01b0391821660048201526024810185905291169063a9059cbb906044016020604051808303815f875af1925050508015611469575060408051601f3d908101601f191682019092526114669181019061195c565b60015b1561147057505b60c0830151608084015160405163a9059cbb60e01b81526001600160a01b0391821660048201526024810184905291169063a9059cbb906044016020604051808303815f875af19250505080156114e4575060408051601f3d908101601f191682019092526114e19181019061195c565b60015b156114eb57505b5f805460ff60f01b1916600360f01b1781556040517fa9c660d43fdb14d4f7f7226623a556967689f58ee0e7c1a3397257bb909454c99190a1505050565b5f807ff0c57e16840df040f15088dc2f81fe391c3923bec73e23a9662efc9c229c6a005b92915050565b60608101515f908181600481111561156d5761156d611642565b1480156115845750826020015164ffffffffff1642115b806115b55750600181600481111561159e5761159e611642565b1480156115b55750826040015164ffffffffff1642115b1561154d5750600492915050565b5f8183106115d157816115d3565b825b9392505050565b6001600160a01b03811681146115ee575f5ffd5b50565b5f5f5f838503610180811215611605575f5ffd5b610140811215611613575f5ffd5b50839250610140840135611626816115da565b9150610160840135611637816115da565b809150509250925092565b634e487b7160e01b5f52602160045260245ffd5b6005811061167257634e487b7160e01b5f52602160045260245ffd5b9052565b81516001600160a01b03168152610140810160208301516116a0602084018264ffffffffff169052565b5060408301516116b9604084018264ffffffffff169052565b5060608301516116cc6060840182611656565b5060808301516116e760808401826001600160a01b03169052565b5060a083015161170260a08401826001600160a01b03169052565b5060c083015161171d60c08401826001600160a01b03169052565b5060e083015161173860e08401826001600160a01b03169052565b5061010083015161010083015261012083015161012083015292915050565b6020810161154d8284611656565b5f60208284031215611775575f5ffd5b81356115d3816115da565b64ffffffffff811681146115ee575f5ffd5b5f602082840312156117a2575f5ffd5b81356115d381611780565b600581106115ee575f5ffd5b5f602082840312156117c9575f5ffd5b81356115d3816117ad565b5f813561154d816115da565b80546001600160a01b0319166001600160a01b0392909216919091179055565b5f813561154d81611780565b5f813561154d816117ad565b6005821061183457634e487b7160e01b5f52602160045260245ffd5b805460ff60f01b191660f09290921b60ff60f01b16919091179055565b61186361185d836117d4565b826117e0565b61189861187260208401611800565b82805464ffffffffff60a01b191660a09290921b64ffffffffff60a01b16919091179055565b6118cd6118a760408401611800565b82805464ffffffffff60c81b191660c89290921b64ffffffffff60c81b16919091179055565b6118e26118dc6060840161180c565b82611818565b6118fa6118f1608084016117d4565b600183016117e0565b61191261190960a084016117d4565b600283016117e0565b61192a61192160c084016117d4565b600383016117e0565b61194261193960e084016117d4565b600483016117e0565b610100820135600582015561012090910135600690910155565b5f6020828403121561196c575f5ffd5b815180151581146115d3575f5ffd5b634e487b7160e01b5f52601160045260245ffd5b8082018082111561154d5761154d61197b565b5f602082840312156119b2575f5ffd5b81516115d3816115da565b5f602082840312156119cd575f5ffd5b5051919050565b8181038181111561154d5761154d61197b56fea2646970667358221220455a8a9f7c9d8747ce50ebebb6ef9cd1b0f892757b8041c69b0f609d34b5fe7a64736f6c634300081c0033",
  "linkReferences": {},
  "deployedLinkReferences": {},
  "immutableReferences": {},
  "inputSourceName": "project/src/Bet.sol",
  "buildInfoId": "solc-0_8_28-1ca63e3fee2e7aa10a094e81a4ab3b303b1cd2f9"
}