{
  "_format": "hh3-artifact-1",
  "contractName": "Bet",
  "sourceName": "src/Bet.sol",
  "abi": [
    {
      "inputs": [],
      "stateMutability": "nonpayable",
      "type": "constructor"
    },
    {
      "inputs": [],
      "name": "InvalidAddress",
      "type": "error"
    },
    {
      "inputs": [],
      "name": "InvalidAmount",
      "type": "error"
    },
    {
      "inputs": [],
      "name": "InvalidInitialization",
      "type": "error"
    },
    {
      "inputs": [],
      "name": "InvalidStatus",
      "type": "error"
    },
    {
      "inputs": [],
      "name": "InvalidTimestamp",
      "type": "error"
    },
    {
      "inputs": [],
      "name": "NotInitializing",
      "type": "error"
    },
    {
      "inputs": [],
      "name": "Unauthorized",
      "type": "error"
    },
    {
      "anonymous": false,
      "inputs": [],
      "name": "BetCancelled",
      "type": "event"
    },
    {
      "anonymous": false,
      "inputs": [
        {
          "indexed": true,
          "internalType": "address",
          "name": "maker",
          "type": "address"
        },
        {
          "indexed": true,
          "internalType": "address",
          "name": "taker",
          "type": "address"
        },
        {
          "indexed": true,
          "internalType": "address",
          "name": "asset",
          "type": "address"
        },
        {
          "indexed": false,
          "internalType": "uint40",
          "name": "acceptBy",
          "type": "uint40"
        },
        {
          "indexed": false,
          "internalType": "uint40",
          "name": "resolveBy",
          "type": "uint40"
        },
        {
          "indexed": false,
          "internalType": "uint256",
          "name": "makerStake",
          "type": "uint256"
        },
        {
          "indexed": false,
          "internalType": "uint256",
          "name": "takerStake",
          "type": "uint256"
        }
      ],
      "name": "BetCreated",
      "type": "event"
    },
    {
      "anonymous": false,
      "inputs": [
        {
          "indexed": true,
          "internalType": "address",
          "name": "winner",
          "type": "address"
        },
        {
          "indexed": false,
          "internalType": "uint256",
          "name": "amount",
          "type": "uint256"
        }
      ],
      "name": "BetResolved",
      "type": "event"
    },
    {
      "anonymous": false,
      "inputs": [
        {
          "indexed": true,
          "internalType": "address",
          "name": "depositor",
          "type": "address"
        },
        {
          "indexed": false,
          "internalType": "uint256",
          "name": "amount",
          "type": "uint256"
        }
      ],
      "name": "Deposited",
      "type": "event"
    },
    {
      "anonymous": false,
      "inputs": [
        {
          "indexed": false,
          "internalType": "uint64",
          "name": "version",
          "type": "uint64"
        }
      ],
      "name": "Initialized",
      "type": "event"
    },
    {
      "inputs": [],
      "name": "bet",
      "outputs": [
        {
          "components": [
            {
              "internalType": "address",
              "name": "maker",
              "type": "address"
            },
            {
              "internalType": "uint40",
              "name": "acceptBy",
              "type": "uint40"
            },
            {
              "internalType": "uint40",
              "name": "resolveBy",
              "type": "uint40"
            },
            {
              "internalType": "enum IBet.Status",
              "name": "status",
              "type": "uint8"
            },
            {
              "internalType": "address",
              "name": "taker",
              "type": "address"
            },
            {
              "internalType": "address",
              "name": "judge",
              "type": "address"
            },
            {
              "internalType": "address",
              "name": "asset",
              "type": "address"
            },
            {
              "internalType": "address",
              "name": "winner",
              "type": "address"
            },
            {
              "internalType": "uint256",
              "name": "makerStake",
              "type": "uint256"
            },
            {
              "internalType": "uint256",
              "name": "takerStake",
              "type": "uint256"
            }
          ],
          "internalType": "struct IBet.Bet",
          "name": "state",
          "type": "tuple"
        }
      ],
      "stateMutability": "view",
      "type": "function"
    },
    {
      "inputs": [],
      "name": "cancelBet",
      "outputs": [],
      "stateMutability": "nonpayable",
      "type": "function"
    },
    {
      "inputs": [
        {
          "internalType": "uint256",
          "name": "amount",
          "type": "uint256"
        }
      ],
      "name": "deposit",
      "outputs": [],
      "stateMutability": "nonpayable",
      "type": "function"
    },
    {
      "inputs": [
        {
          "components": [
            {
              "internalType": "address",
              "name": "maker",
              "type": "address"
            },
            {
              "internalType": "uint40",
              "name": "acceptBy",
              "type": "uint40"
            },
            {
              "internalType": "uint40",
              "name": "resolveBy",
              "type": "uint40"
            },
            {
              "internalType": "enum IBet.Status",
              "name": "status",
              "type": "uint8"
            },
            {
              "internalType": "address",
              "name": "taker",
              "type": "address"
            },
            {
              "internalType": "address",
              "name": "judge",
              "type": "address"
            },
            {
              "internalType": "address",
              "name": "asset",
              "type": "address"
            },
            {
              "internalType": "address",
              "name": "winner",
              "type": "address"
            },
            {
              "internalType": "uint256",
              "name": "makerStake",
              "type": "uint256"
            },
            {
              "internalType": "uint256",
              "name": "takerStake",
              "type": "uint256"
            }
          ],
          "internalType": "struct IBet.Bet",
          "name": "initialBet",
          "type": "tuple"
        },
        {
          "internalType": "address",
          "name": "pool",
          "type": "address"
        },
        {
          "internalType": "address",
          "name": "treasury",
          "type": "address"
        }
      ],
      "name": "initialize",
      "outputs": [],
      "stateMutability": "nonpayable",
      "type": "function"
    },
    {
      "inputs": [
        {
          "internalType": "address",
          "name": "winner",
          "type": "address"
        }
      ],
      "name": "resolveBet",
      "outputs": [],
      "stateMutability": "nonpayable",
      "type": "function"
    },
    {
      "inputs": [],
      "name": "status",
      "outputs": [
        {
          "internalType": "enum IBet.Status",
          "name": "",
          "type": "uint8"
        }
      ],
      "stateMutability": "view",
      "type": "function"
    }
  ],
  "bytecode": "0x6080604052348015600e575f5ffd5b5060156019565b60c9565b7ff0c57e16840df040f15088dc2f81fe391c3923bec73e23a9662efc9c229c6a00805468010000000000000000900460ff161560685760405163f92ee8a960e01b815260040160405180910390fd5b80546001600160401b039081161460c65780546001600160401b0319166001600160401b0390811782556040519081527fc7f505b2f371ae2175ee4913f4499e1f2633a7b5936321eed1cdaeb6115181d29060200160405180910390a15b50565b61146d806100d65f395ff3fe608060405234801561000f575f5ffd5b5060043610610060575f3560e01c8063079f55e31461006457806311610c2514610079578063200d2ed2146100975780637b6d79f1146100ac578063b6b55f25146100b4578063d0b8a361146100c7575b5f5ffd5b610077610072366004611059565b6100da565b005b6100816104f8565b60405161008e91906110de565b60405180910390f35b61009f610643565b60405161008e91906111bf565b610077610714565b6100776100c23660046111cd565b610881565b6100776100d53660046111e4565b610bdf565b5f6100e3610fa8565b805490915060ff600160401b820416159067ffffffffffffffff165f8115801561010a5750825b90505f8267ffffffffffffffff1660011480156101265750303b155b905081158015610134575080155b156101525760405163f92ee8a960e01b815260040160405180910390fd5b845467ffffffffffffffff19166001178555831561017c57845460ff60401b1916600160401b1785555b600960208181527fa5834974e1759241ec52bd9f9e726a21f57f3cb855352070eb0675ce685a6a3e8054600160ff1991821681179092557f50ff35c29a86854bfdf875d1f4dad0bcc2afa1731848be0cc942b2fd4cdbb3a9805482168317905573179a862703a4adfb29896552df9e307980d192855f9081527f7227e49eb6e085d5ae7ae1ed784bf9329af247886ecbd05f71911c08a4f3d25f805490921690921790559061022d908b018b6111e4565b6001600160a01b0316815260208101919091526040015f205460ff16610265576040516282b42960e81b815260040160405180910390fd5b5f61027360208a018a6111e4565b6001600160a01b0316148061029f57505f61029460a08a0160808b016111e4565b6001600160a01b0316145b806102c157505f6102b660e08a0160c08b016111e4565b6001600160a01b0316145b806102e357505f6102d860c08a0160a08b016111e4565b6001600160a01b0316145b156103015760405163e6c4247b60e01b815260040160405180910390fd5b5f61031260408a0160208b01611218565b9050428164ffffffffff16111580610347575064ffffffffff811661033d60608b0160408c01611218565b64ffffffffff1611155b156103655760405163b7d0949760e01b815260040160405180910390fd5b5f61037660808b0160608c0161123f565b6004811115610387576103876110aa565b146103a5576040516307a92f1960e51b815260040160405180910390fd5b885f6103b182826112d7565b5050600880546001600160a01b03808a166001600160a01b03199283161790925560078054928b16929091169190911790556103f360e08a0160c08b016111e4565b6001600160a01b031661040c60a08b0160808c016111e4565b6001600160a01b031661042260208c018c6111e4565b6001600160a01b03167f8dc5fa0e4fac3ee322f7740c523d7b69cbec4b6895fd492ef4912ba45b8ba52e61045c60408e0160208f01611218565b8d604001602081019061046f9190611218565b6040805164ffffffffff93841681529290911660208301526101008f0135908201526101208e0135606082015260800160405180910390a45083156104ee57845460ff60401b19168555604051600181527fc7f505b2f371ae2175ee4913f4499e1f2633a7b5936321eed1cdaeb6115181d29060200160405180910390a15b5050505050505050565b60408051610140810182525f80825260208201819052918101829052606081018290526080810182905260a0810182905260c0810182905260e08101829052610100810182905261012081019190915260408051610140810182525f80546001600160a01b038116835264ffffffffff600160a01b820481166020850152600160c81b820416938301939093529091606083019060ff600160f01b9091041660048111156105a8576105a86110aa565b60048111156105b9576105b96110aa565b815260018201546001600160a01b0390811660208301526002830154811660408301526003830154811660608301526004830154166080820152600582015460a082015260069091015460c090910152905061061481610fd2565b8160600190600481111561062a5761062a6110aa565b9081600481111561063d5761063d6110aa565b90525090565b60408051610140810182525f80546001600160a01b038116835264ffffffffff600160a01b820481166020850152600160c81b820416938301939093529161070f91908390606083019060ff600160f01b9091041660048111156106a9576106a96110aa565b60048111156106ba576106ba6110aa565b815260018201546001600160a01b0390811660208301526002830154811660408301526003830154811660608301526004830154166080820152600582015460a082015260069091015460c090910152610fd2565b905090565b60025f54600160f01b900460ff166004811115610733576107336110aa565b10610751576040516307a92f1960e51b815260040160405180910390fd5b6003545f5460055460405163a9059cbb60e01b81526001600160a01b039283166004820152602481019190915291169063a9059cbb906044016020604051808303815f875af11580156107a6573d5f5f3e3d5ffd5b505050506040513d601f19601f820116820180604052508101906107ca91906113e2565b5060035460015460065460405163a9059cbb60e01b81526001600160a01b039283166004820152602481019190915291169063a9059cbb906044016020604051808303815f875af1158015610821573d5f5f3e3d5ffd5b505050506040513d601f19601f8201168201806040525081019061084591906113e2565b505f805460ff60f01b1916600360f01b1781556040517fa9c660d43fdb14d4f7f7226623a556967689f58ee0e7c1a3397257bb909454c99190a1565b60408051610140810182525f80546001600160a01b038116835264ffffffffff600160a01b820481166020850152600160c81b82041693830193909352918290606083019060ff600160f01b9091041660048111156108e2576108e26110aa565b60048111156108f3576108f36110aa565b815260018201546001600160a01b0390811660208301526002830154811660408301526003830154811660608301526004830154166080820152600582015460a082015260069091015460c09091015290505f8160600151600481111561095c5761095c6110aa565b1461097a576040516307a92f1960e51b815260040160405180910390fd5b80516001600160a01b031633148015906109aa575080608001516001600160a01b0316336001600160a01b031614155b156109c7576040516282b42960e81b815260040160405180910390fd5b80516001600160a01b031633146109e6578061012001518214156109f0565b8061010001518214155b15610a0e5760405163162908e360e11b815260040160405180910390fd5b60c08101516040516323b872dd60e01b8152336004820152306024820152604481018490526001600160a01b03909116906323b872dd906064016020604051808303815f875af1158015610a64573d5f5f3e3d5ffd5b505050506040513d601f19601f82011682018060405250810190610a8891906113e2565b506007546001600160a01b031615610b0c5760075460c082015160405163617ba03760e01b81526001600160a01b039182166004820152602481018590523060448201525f606482015291169063617ba037906084015f604051808303815f87803b158015610af5575f5ffd5b505af1158015610b07573d5f5f3e3d5ffd5b505050505b806101200151816101000151610b229190611401565b60c08201516040516370a0823160e01b81523060048201526001600160a01b03909116906370a0823190602401602060405180830381865afa158015610b6a573d5f5f3e3d5ffd5b505050506040513d601f19601f82011682018060405250810190610b8e9190611420565b03610ba6575f805460ff60f01b1916600160f01b1790555b60405182815233907f2da466a7b24304f47e87fa2e1e5a81b9831ce54fec19055ce277ca2f39ba42c49060200160405180910390a25050565b60408051610140810182525f80546001600160a01b038116835264ffffffffff600160a01b820481166020850152600160c81b82041693830193909352918290606083019060ff600160f01b909104166004811115610c4057610c406110aa565b6004811115610c5157610c516110aa565b815260018201546001600160a01b039081166020830152600283015481166040830152600383015481166060830152600483015481166080830152600583015460a08084019190915260069093015460c09092019190915290820151919250163314610ccf576040516282b42960e81b815260040160405180910390fd5b600181606001516004811115610ce757610ce76110aa565b141580610cfe5750806040015164ffffffffff1642115b15610d1c576040516307a92f1960e51b815260040160405180910390fd5b5f816101200151826101000151610d339190611401565b9050826001600160a01b03167f267080663d37ffe29159bb65a5b0fd5ef7a272464e69a52c77c0520592669c0d82604051610d7091815260200190565b60405180910390a26007546001600160a01b031615610e095760075460c0830151604051631a4ca37b60e21b81526001600160a01b039182166004820152602481018490523060448201529116906369328dec906064016020604051808303815f875af1158015610de3573d5f5f3e3d5ffd5b505050506040513d601f19601f82011682018060405250810190610e079190611420565b505b60c082015160405163a9059cbb60e01b81526001600160a01b038581166004830152602482018490529091169063a9059cbb906044016020604051808303815f875af1158015610e5b573d5f5f3e3d5ffd5b505050506040513d601f19601f82011682018060405250810190610e7f91906113e2565b5060c08201516040516370a0823160e01b81523060048201525f916001600160a01b0316906370a0823190602401602060405180830381865afa158015610ec8573d5f5f3e3d5ffd5b505050506040513d601f19601f82011682018060405250810190610eec9190611420565b90508015610f6e5760c083015160085460405163a9059cbb60e01b81526001600160a01b0391821660048201526024810184905291169063a9059cbb906044016020604051808303815f875af1158015610f48573d5f5f3e3d5ffd5b505050506040513d601f19601f82011682018060405250810190610f6c91906113e2565b505b600480546001600160a01b0319166001600160a01b0386161790555f80546002919060ff60f01b1916600160f01b83021790555050505050565b5f807ff0c57e16840df040f15088dc2f81fe391c3923bec73e23a9662efc9c229c6a005b92915050565b60608101515f9081816004811115610fec57610fec6110aa565b1480156110035750826020015164ffffffffff1642115b806110345750600181600481111561101d5761101d6110aa565b1480156110345750826040015164ffffffffff1642115b15610fcc5750600492915050565b6001600160a01b0381168114611056575f5ffd5b50565b5f5f5f83850361018081121561106d575f5ffd5b61014081121561107b575f5ffd5b5083925061014084013561108e81611042565b915061016084013561109f81611042565b809150509250925092565b634e487b7160e01b5f52602160045260245ffd5b600581106110da57634e487b7160e01b5f52602160045260245ffd5b9052565b81516001600160a01b0316815261014081016020830151611108602084018264ffffffffff169052565b506040830151611121604084018264ffffffffff169052565b50606083015161113460608401826110be565b50608083015161114f60808401826001600160a01b03169052565b5060a083015161116a60a08401826001600160a01b03169052565b5060c083015161118560c08401826001600160a01b03169052565b5060e08301516111a060e08401826001600160a01b03169052565b5061010083015161010083015261012083015161012083015292915050565b60208101610fcc82846110be565b5f602082840312156111dd575f5ffd5b5035919050565b5f602082840312156111f4575f5ffd5b81356111ff81611042565b9392505050565b64ffffffffff81168114611056575f5ffd5b5f60208284031215611228575f5ffd5b81356111ff81611206565b60058110611056575f5ffd5b5f6020828403121561124f575f5ffd5b81356111ff81611233565b5f8135610fcc81611042565b80546001600160a01b0319166001600160a01b0392909216919091179055565b5f8135610fcc81611206565b5f8135610fcc81611233565b600582106112ba57634e487b7160e01b5f52602160045260245ffd5b805460ff60f01b191660f09290921b60ff60f01b16919091179055565b6112e96112e38361125a565b82611266565b61131e6112f860208401611286565b82805464ffffffffff60a01b191660a09290921b64ffffffffff60a01b16919091179055565b61135361132d60408401611286565b82805464ffffffffff60c81b191660c89290921b64ffffffffff60c81b16919091179055565b61136861136260608401611292565b8261129e565b6113806113776080840161125a565b60018301611266565b61139861138f60a0840161125a565b60028301611266565b6113b06113a760c0840161125a565b60038301611266565b6113c86113bf60e0840161125a565b60048301611266565b610100820135600582015561012090910135600690910155565b5f602082840312156113f2575f5ffd5b815180151581146111ff575f5ffd5b80820180821115610fcc57634e487b7160e01b5f52601160045260245ffd5b5f60208284031215611430575f5ffd5b505191905056fea2646970667358221220dcb19bd37dff9409c87c6a7acdcf28a087b9054f3924c30ee838d96002e05b1864736f6c634300081c0033",
  "linkReferences": {},
  "deployedLinkReferences": {},
  "immutableReferences": {},
  "inputSourceName": "project/src/Bet.sol",
  "buildInfoId": "solc-0_8_28-d39f4d559d9ec4f78008ed8b2eb25068d5ba10a5"
}