{
  "_format": "hh3-artifact-1",
  "contractName": "Bet",
  "sourceName": "src/Bet.sol",
  "abi": [
    {
      "inputs": [],
      "stateMutability": "nonpayable",
      "type": "constructor"
    },
    {
      "inputs": [],
      "name": "InvalidAddress",
      "type": "error"
    },
    {
      "inputs": [],
      "name": "InvalidInitialization",
      "type": "error"
    },
    {
      "inputs": [],
      "name": "InvalidStatus",
      "type": "error"
    },
    {
      "inputs": [],
      "name": "InvalidTimestamp",
      "type": "error"
    },
    {
      "inputs": [],
      "name": "NotInitializing",
      "type": "error"
    },
    {
      "inputs": [
        {
          "internalType": "address",
          "name": "token",
          "type": "address"
        }
      ],
      "name": "SafeERC20FailedOperation",
      "type": "error"
    },
    {
      "inputs": [],
      "name": "Unauthorized",
      "type": "error"
    },
    {
      "anonymous": false,
      "inputs": [],
      "name": "BetAccepted",
      "type": "event"
    },
    {
      "anonymous": false,
      "inputs": [],
      "name": "BetCancelled",
      "type": "event"
    },
    {
      "anonymous": false,
      "inputs": [
        {
          "indexed": true,
          "internalType": "address",
          "name": "maker",
          "type": "address"
        },
        {
          "indexed": true,
          "internalType": "address",
          "name": "taker",
          "type": "address"
        },
        {
          "indexed": true,
          "internalType": "address",
          "name": "judge",
          "type": "address"
        },
        {
          "indexed": false,
          "internalType": "address",
          "name": "asset",
          "type": "address"
        },
        {
          "indexed": false,
          "internalType": "uint40",
          "name": "acceptBy",
          "type": "uint40"
        },
        {
          "indexed": false,
          "internalType": "uint40",
          "name": "endsBy",
          "type": "uint40"
        },
        {
          "indexed": false,
          "internalType": "uint256",
          "name": "makerStake",
          "type": "uint256"
        },
        {
          "indexed": false,
          "internalType": "uint256",
          "name": "takerStake",
          "type": "uint256"
        },
        {
          "indexed": false,
          "internalType": "string",
          "name": "description",
          "type": "string"
        }
      ],
      "name": "BetCreated",
      "type": "event"
    },
    {
      "anonymous": false,
      "inputs": [
        {
          "indexed": true,
          "internalType": "address",
          "name": "winner",
          "type": "address"
        },
        {
          "indexed": false,
          "internalType": "uint256",
          "name": "amount",
          "type": "uint256"
        }
      ],
      "name": "BetResolved",
      "type": "event"
    },
    {
      "anonymous": false,
      "inputs": [
        {
          "indexed": false,
          "internalType": "uint64",
          "name": "version",
          "type": "uint64"
        }
      ],
      "name": "Initialized",
      "type": "event"
    },
    {
      "inputs": [],
      "name": "JUDGING_WINDOW",
      "outputs": [
        {
          "internalType": "uint40",
          "name": "",
          "type": "uint40"
        }
      ],
      "stateMutability": "view",
      "type": "function"
    },
    {
      "inputs": [],
      "name": "accept",
      "outputs": [],
      "stateMutability": "nonpayable",
      "type": "function"
    },
    {
      "inputs": [],
      "name": "bet",
      "outputs": [
        {
          "components": [
            {
              "internalType": "address",
              "name": "maker",
              "type": "address"
            },
            {
              "internalType": "uint40",
              "name": "acceptBy",
              "type": "uint40"
            },
            {
              "internalType": "uint40",
              "name": "endsBy",
              "type": "uint40"
            },
            {
              "internalType": "enum IBet.Status",
              "name": "status",
              "type": "uint8"
            },
            {
              "internalType": "address",
              "name": "taker",
              "type": "address"
            },
            {
              "internalType": "address",
              "name": "judge",
              "type": "address"
            },
            {
              "internalType": "address",
              "name": "asset",
              "type": "address"
            },
            {
              "internalType": "address",
              "name": "winner",
              "type": "address"
            },
            {
              "internalType": "uint256",
              "name": "makerStake",
              "type": "uint256"
            },
            {
              "internalType": "uint256",
              "name": "takerStake",
              "type": "uint256"
            }
          ],
          "internalType": "struct IBet.Bet",
          "name": "state",
          "type": "tuple"
        }
      ],
      "stateMutability": "view",
      "type": "function"
    },
    {
      "inputs": [],
      "name": "cancel",
      "outputs": [],
      "stateMutability": "nonpayable",
      "type": "function"
    },
    {
      "inputs": [
        {
          "components": [
            {
              "internalType": "address",
              "name": "maker",
              "type": "address"
            },
            {
              "internalType": "uint40",
              "name": "acceptBy",
              "type": "uint40"
            },
            {
              "internalType": "uint40",
              "name": "endsBy",
              "type": "uint40"
            },
            {
              "internalType": "enum IBet.Status",
              "name": "status",
              "type": "uint8"
            },
            {
              "internalType": "address",
              "name": "taker",
              "type": "address"
            },
            {
              "internalType": "address",
              "name": "judge",
              "type": "address"
            },
            {
              "internalType": "address",
              "name": "asset",
              "type": "address"
            },
            {
              "internalType": "address",
              "name": "winner",
              "type": "address"
            },
            {
              "internalType": "uint256",
              "name": "makerStake",
              "type": "uint256"
            },
            {
              "internalType": "uint256",
              "name": "takerStake",
              "type": "uint256"
            }
          ],
          "internalType": "struct IBet.Bet",
          "name": "initialBet",
          "type": "tuple"
        },
        {
          "internalType": "string",
          "name": "description",
          "type": "string"
        },
        {
          "internalType": "address",
          "name": "pool",
          "type": "address"
        },
        {
          "internalType": "address",
          "name": "treasury",
          "type": "address"
        }
      ],
      "name": "initialize",
      "outputs": [],
      "stateMutability": "nonpayable",
      "type": "function"
    },
    {
      "inputs": [],
      "name": "judgingDeadline",
      "outputs": [
        {
          "internalType": "uint40",
          "name": "",
          "type": "uint40"
        }
      ],
      "stateMutability": "view",
      "type": "function"
    },
    {
      "inputs": [
        {
          "internalType": "address",
          "name": "winner",
          "type": "address"
        }
      ],
      "name": "resolve",
      "outputs": [],
      "stateMutability": "nonpayable",
      "type": "function"
    },
    {
      "inputs": [],
      "name": "status",
      "outputs": [
        {
          "internalType": "enum IBet.Status",
          "name": "",
          "type": "uint8"
        }
      ],
      "stateMutability": "view",
      "type": "function"
    }
  ],
  "bytecode": "0x6080806040523460aa575f5160206113605f395f51905f525460ff8160401c16609b576002600160401b03196001600160401b038216016049575b6040516112b190816100af8239f35b6001600160401b0319166001600160401b039081175f5160206113605f395f51905f525581527fc7f505b2f371ae2175ee4913f4499e1f2633a7b5936321eed1cdaeb6115181d290602090a15f80603a565b63f92ee8a960e01b5f5260045ffd5b5f80fdfe6080806040526004361015610012575f80fd5b5f905f3560e01c90816311610c2514610db057508063200d2ed214610d7f5780632852b71c14610c125780633437666a146105ec5780634e5ea7f0146105b657806355ea6c471461031d578063cddb597e146102ff5763ea8a1af014610076575f80fd5b346102fc57806003193601126102fc5761008e610f28565b906100988261106a565b6007546001600160a01b03169290600681101561027f57806102a1575080516001600160a01b03163303610293575b6060810151600681101561027f57825460ff60f01b1916600160f21b1783556101008201519293849391600103610279576101208301515b809180610197575b505060c083018051845161014c965091936101309290916001600160a01b03918216911661112c565b80610173575b505190516001600160a01b039081169116611167565b7fa9c660d43fdb14d4f7f7226623a556967689f58ee0e7c1a3397257bb909454c98180a180f35b8151608084015161019192916001600160a01b03918216911661112c565b5f610136565b60c0850151604051631a4ca37b60e21b81526001600160a01b0390911660048201525f1960248201523060448201529691939250602091879160649183915af194851561026e578495610236575b508481101561022e57905b81850394851161021a57929361014c93908082101561021357505b84935f610107565b905061020b565b634e487b7160e01b84526011600452602484fd5b5083906101f0565b9094506020813d602011610266575b8161025260209383610efa565b810103126102625751935f6101e5565b5f80fd5b3d9150610245565b6040513d86823e3d90fd5b836100ff565b634e487b7160e01b83526021600452602483fd5b6282b42960e81b8252600482fd5b826001821480156102f0575b156102d657505060a08101516001600160a01b031633146100c7576282b42960e81b8252600482fd5b61027f576005146100c7576307a92f1960e51b8252600482fd5b505082600282146102ad565b80fd5b50346102fc57806003193601126102fc57602060405162278d008152f35b50346102fc5760203660031901126102fc576004356001600160a01b038116908181036105b25761034c610f28565b60075460a08201516001600160a01b0391821692911633036105a4576103718161106a565b60068110156105905760018114159081610584575b506105755780516001600160a01b03168414158061055e575b61054f57600480546001600160a01b03191685179055845460ff60f01b1916600360f01b178555610100810151610120820151810190811061053b578581938061043f575b50857f267080663d37ffe29159bb65a5b0fd5ef7a272464e69a52c77c0520592669c0d6020866104358960c08901610426848360018060a01b0384511661112c565b516001600160a01b0316611167565b604051908152a280f35b60c0840151604051631a4ca37b60e21b81526001600160a01b0390911660048201525f196024820152306044820152939450919291602091839160649183915af19081156105305786916104d8575b507f267080663d37ffe29159bb65a5b0fd5ef7a272464e69a52c77c0520592669c0d9360c060209493610435938082105f146104d157505b9450879195506103e4565b90506104c6565b929190506020833d602011610528575b816104f560209383610efa565b810103126102625791519091907f267080663d37ffe29159bb65a5b0fd5ef7a272464e69a52c77c0520592669c0d61048e565b3d91506104e8565b6040513d88823e3d90fd5b634e487b7160e01b86526011600452602486fd5b63e6c4247b60e01b8552600485fd5b5060808101516001600160a01b031684141561039f565b6307a92f1960e51b8552600485fd5b6002915014155f610386565b634e487b7160e01b86526021600452602486fd5b6282b42960e81b8552600485fd5b8280fd5b50346102fc57806003193601126102fc576105dd64ffffffffff6020925460c81c1661103a565b64ffffffffff60405191168152f35b50346102fc5736600319016101a08112610c0e57610140136102fc576101443567ffffffffffffffff8111610c0e5736602382011215610c0e5780600401359067ffffffffffffffff82116105b25736602483830101116105b257610164356001600160a01b0381169290839003610c0a57610184356001600160a01b0381169190829003610c06575f51602061125c5f395f51905f52549360ff8560401c16159467ffffffffffffffff811680159081610bfe575b6001149081610bf4575b159081610beb575b50610bdc5767ffffffffffffffff1981166001175f51602061125c5f395f51905f525585610bb0575b506001600160a01b036106ee610fba565b16158015610b98575b8015610b80575b8015610b68575b610b595764ffffffffff610717611012565b1642811190811591610b40575b50610b3157606435600681108015610b0a5781610b22576001600160a01b0361074b610fba565b89546001600160a01b0319169116178855610764611012565b885464ffffffffff60c81b610777611026565b60c81b169164ffffffffff60a01b9060a01b169069ffffffffffffffffffff60a01b19161717885515610b0e57865460ff60f01b191660f09190911b60ff60f01b161786556001600160a01b036107cc610fd0565b166001600160601b0360a01b600154161760015560018060a01b036107ef610ffc565b166001600160601b0360a01b600254161760025560018060a01b03610812610fe6565b166001600160601b0360a01b600354161760035560e43560018060a01b03811690818103610b0a57506001600160601b0360a01b6004541617600455856101043591826005556101243594856006556001600160601b0360a01b6008541617600855806001600160601b0360a01b60075416176007556108ab8360018060a01b0361089b610fe6565b166108a4610fba565b30916110e8565b806109d3575b50507f3a4e62063ca69177da15ef5b1c003aeeaa50e4ce5d6ab7fca6f3c24fe480e40e9060e06108df610fba565b946108e8610fd0565b968560246108f4610ffc565b926108fd610fe6565b94610906611012565b9764ffffffffff610915611026565b816040519b8c9a60018060a01b03168b521660208a01521660408801526060870152608086015260c060a08601528260c0860152018484013781860183018a90526001600160a01b03908116978116961694601f01601f19168101030190a461097b5780f35b68ff0000000000000000195f51602061125c5f395f51905f5254165f51602061125c5f395f51905f52557fc7f505b2f371ae2175ee4913f4499e1f2633a7b5936321eed1cdaeb6115181d2602060405160018152a180f35b6001600160a01b036109e3610fe6565b1660405160208481830163095ea7b360e01b81528560248501525f19604485015260448452610a13606485610efa565b83519082865af184513d82610aee575b505015610aaa575b5050610a35610fe6565b90803b156105b25760405163617ba03760e01b81526001600160a01b03929092166004830152602482018490523060448301525f606483015282908290608490829084905af18015610a9f57156108b15781610a9091610efa565b610a9b57855f6108b1565b8580fd5b6040513d84823e3d90fd5b610ae791610ae260405163095ea7b360e01b602082015285602482015286604482015260448152610adc606482610efa565b82611203565b611203565b5f80610a2b565b909150610b025750813b15155b5f80610a23565b600114610afb565b8780fd5b634e487b7160e01b87526021600452602487fd5b6307a92f1960e51b8852600488fd5b63b7d0949760e01b8652600486fd5b905064ffffffffff610b50611026565b1611155f610724565b63e6c4247b60e01b8652600486fd5b506001600160a01b03610b79610ffc565b1615610705565b506001600160a01b03610b91610fe6565b16156106fe565b506001600160a01b03610ba9610fd0565b16156106f7565b68ffffffffffffffffff191668010000000000000001175f51602061125c5f395f51905f52555f6106dd565b63f92ee8a960e01b8752600487fd5b9050155f6106b4565b303b1591506106ac565b8791506106a2565b8480fd5b8380fd5b5080fd5b5034610262575f36600319011261026257610c2b610f28565b6007546001600160a01b031690610c418161106a565b6006811015610d6b57610d5c5760808101516001600160a01b03163303610d4e575f805460ff60f01b1916600160f01b17905560c08101805161012090920180519092610c9b9190309033906001600160a01b03166110e8565b82610cc9575b837ff6a659fe9c2ae0ca4af5c4aebfae05a84e00868374bcfff5bccaee0b77eae7a18180a180f35b519051906001600160a01b0316823b156102625760405163617ba03760e01b81526001600160a01b0391909116600482015260248101919091523060448201525f6064820181905290918290608490829084905af18015610d4357610d30575b8080610ca1565b610d3c91505f90610efa565b5f5f610d29565b6040513d5f823e3d90fd5b6282b42960e81b5f5260045ffd5b6307a92f1960e51b5f5260045ffd5b634e487b7160e01b5f52602160045260245ffd5b34610262575f366003190112610262576020610da1610d9c610f28565b61106a565b610dae6040518092610ebc565bf35b34610262575f3660031901126102625761012081610dce5f93610ec9565b8281528260208201528260408201528260608201528260808201528260a08201528260c08201528260e0820152826101008201520152610140610e0f610f28565b610120610e1b8261106a565b91610e2a606082019384610f1c565b610e6a6040519360018060a01b03835116855264ffffffffff602084015116602086015264ffffffffff6040840151166040860152516060850190610ebc565b6080818101516001600160a01b039081169185019190915260a08281015182169085015260c08083015182169085015260e0808301519091169084015261010080820151908401520151610120820152f35b906006821015610d6b5752565b610140810190811067ffffffffffffffff821117610ee657604052565b634e487b7160e01b5f52604160045260245ffd5b90601f8019910116810190811067ffffffffffffffff821117610ee657604052565b6006821015610d6b5752565b60405190610f3582610ec9565b81610f7560ff5f5460018060a01b038116845264ffffffffff8160a01c16602085015264ffffffffff8160c81c16604085015260f01c1660608301610f1c565b6001546001600160a01b039081166080830152600254811660a0830152600354811660c08301526004541660e082015260055461010082015260065461012090910152565b6004356001600160a01b03811681036102625790565b6084356001600160a01b03811681036102625790565b60c4356001600160a01b03811681036102625790565b60a4356001600160a01b03811681036102625790565b60243564ffffffffff811681036102625790565b60443564ffffffffff811681036102625790565b64ffffffffff62278d009116019064ffffffffff821161105657565b634e487b7160e01b5f52601160045260245ffd5b906060820151916006831015610d6b57828015806110d4575b1561109057506005925050565b60011461109a5750565b60400164ffffffffff6110af8183511661103a565b164211156110bf5750600591505b565b5164ffffffffff164211156110bd5760029150565b5064ffffffffff6020830151164211611083565b6040516323b872dd60e01b60208201526001600160a01b0392831660248201529290911660448301526064808301939093529181526110bd91610ae2608483610efa565b60405163a9059cbb60e01b60208201526001600160a01b0390921660248301526044808301939093529181526110bd91610ae2606483610efa565b6040516370a0823160e01b81523060048201526001600160a01b039190911691602082602481865afa918215610d43575f926111cf575b50816111a957505050565b6008546001600160a01b0316806111c457506110bd9261112c565b90506110bd9261112c565b9091506020813d6020116111fb575b816111eb60209383610efa565b810103126102625751905f61119e565b3d91506111de565b905f602091828151910182855af115610d43575f513d61125257506001600160a01b0381163b155b6112325750565b635274afe760e01b5f9081526001600160a01b0391909116600452602490fd5b6001141561122b56fef0c57e16840df040f15088dc2f81fe391c3923bec73e23a9662efc9c229c6a00a2646970667358221220b3345d82316c45bd5b2cf0b7028f5b52560e688668b9aed01a5ac4a19984656264736f6c634300081c0033f0c57e16840df040f15088dc2f81fe391c3923bec73e23a9662efc9c229c6a00",
  "linkReferences": {},
  "deployedLinkReferences": {},
  "immutableReferences": {},
  "inputSourceName": "project/src/Bet.sol",
  "buildInfoId": "solc-0_8_28-d9538a4cd86d6a02bb8926c6d7e4baab31b8a0af"
}